{"contracts/PoliticalCorruptionPacks.sol":{"PoliticalCorruptionPacks":{"abi":[{"inputs":[{"internalType":"string","name":"uri","type":"string"}],"stateMutability":"nonpayable","type":"constructor"},{"anonymous":false,"inputs":[{"indexed":true,"internalType":"address","name":"account","type":"address"},{"indexed":true,"internalType":"address","name":"operator","type":"address"},{"indexed":false,"internalType":"bool","name":"approved","type":"bool"}],"name":"ApprovalForAll","type":"event"},{"anonymous":false,"inputs":[{"indexed":true,"internalType":"address","name":"previousOwner","type":"address"},{"indexed":true,"internalType":"address","name":"newOwner","type":"address"}],"name":"OwnershipTransferred","type":"event"},{"anonymous":false,"inputs":[{"indexed":true,"internalType":"address","name":"operator","type":"address"},{"indexed":true,"internalType":"address","name":"from","type":"address"},{"indexed":true,"internalType":"address","name":"to","type":"address"},{"indexed":false,"internalType":"uint256[]","name":"ids","type":"uint256[]"},{"indexed":false,"internalType":"uint256[]","name":"values","type":"uint256[]"}],"name":"TransferBatch","type":"event"},{"anonymous":false,"inputs":[{"indexed":true,"internalType":"address","name":"operator","type":"address"},{"indexed":true,"internalType":"address","name":"from","type":"address"},{"indexed":true,"internalType":"address","name":"to","type":"address"},{"indexed":false,"internalType":"uint256","name":"id","type":"uint256"},{"indexed":false,"internalType":"uint256","name":"value","type":"uint256"}],"name":"TransferSingle","type":"event"},{"anonymous":false,"inputs":[{"indexed":false,"internalType":"string","name":"value","type":"string"},{"indexed":true,"internalType":"uint256","name":"id","type":"uint256"}],"name":"URI","type":"event"},{"inputs":[{"internalType":"address","name":"account","type":"address"},{"internalType":"uint256","name":"id","type":"uint256"}],"name":"balanceOf","outputs":[{"internalType":"uint256","name":"","type":"uint256"}],"stateMutability":"view","type":"function"},{"inputs":[{"internalType":"address[]","name":"accounts","type":"address[]"},{"internalType":"uint256[]","name":"ids","type":"uint256[]"}],"name":"balanceOfBatch","outputs":[{"internalType":"uint256[]","name":"","type":"uint256[]"}],"stateMutability":"view","type":"function"},{"inputs":[{"internalType":"string","name":"_seriesName","type":"string"},{"internalType":"string","name":"_setName","type":"string"},{"internalType":"uint256[]","name":"_politicianTokenIds","type":"uint256[]"},{"internalType":"uint256","name":"_mintingCost","type":"uint256"}],"name":"createSeries","outputs":[],"stateMutability":"nonpayable","type":"function"},{"inputs":[{"internalType":"string","name":"","type":"string"}],"name":"defaultDropRates","outputs":[{"internalType":"uint256","name":"","type":"uint256"}],"stateMutability":"view","type":"function"},{"inputs":[{"internalType":"address","name":"account","type":"address"},{"internalType":"address","name":"operator","type":"address"}],"name":"isApprovedForAll","outputs":[{"internalType":"bool","name":"","type":"bool"}],"stateMutability":"view","type":"function"},{"inputs":[{"internalType":"string","name":"_seriesName","type":"string"}],"name":"mintPack","outputs":[],"stateMutability":"payable","type":"function"},{"inputs":[{"internalType":"string","name":"_seriesName","type":"string"},{"internalType":"uint256","name":"packTokenId","type":"uint256"}],"name":"openPack","outputs":[],"stateMutability":"nonpayable","type":"function"},{"inputs":[],"name":"owner","outputs":[{"internalType":"address","name":"","type":"address"}],"stateMutability":"view","type":"function"},{"inputs":[],"name":"renounceOwnership","outputs":[],"stateMutability":"nonpayable","type":"function"},{"inputs":[{"internalType":"address","name":"from","type":"address"},{"internalType":"address","name":"to","type":"address"},{"internalType":"uint256[]","name":"ids","type":"uint256[]"},{"internalType":"uint256[]","name":"amounts","type":"uint256[]"},{"internalType":"bytes","name":"data","type":"bytes"}],"name":"safeBatchTransferFrom","outputs":[],"stateMutability":"nonpayable","type":"function"},{"inputs":[{"internalType":"address","name":"from","type":"address"},{"internalType":"address","name":"to","type":"address"},{"internalType":"uint256","name":"id","type":"uint256"},{"internalType":"uint256","name":"amount","type":"uint256"},{"internalType":"bytes","name":"data","type":"bytes"}],"name":"safeTransferFrom","outputs":[],"stateMutability":"nonpayable","type":"function"},{"inputs":[{"internalType":"string","name":"","type":"string"}],"name":"series","outputs":[{"internalType":"string","name":"setName","type":"string"},{"internalType":"uint256","name":"mintingCost","type":"uint256"}],"stateMutability":"view","type":"function"},{"inputs":[{"internalType":"address","name":"operator","type":"address"},{"internalType":"bool","name":"approved","type":"bool"}],"name":"setApprovalForAll","outputs":[],"stateMutability":"nonpayable","type":"function"},{"inputs":[{"internalType":"string","name":"rarity","type":"string"},{"internalType":"uint256","name":"rate","type":"uint256"}],"name":"setDefaultDropRate","outputs":[],"stateMutability":"nonpayable","type":"function"},{"inputs":[{"internalType":"bytes4","name":"interfaceId","type":"bytes4"}],"name":"supportsInterface","outputs":[{"internalType":"bool","name":"","type":"bool"}],"stateMutability":"view","type":"function"},{"inputs":[{"internalType":"address","name":"newOwner","type":"address"}],"name":"transferOwnership","outputs":[],"stateMutability":"nonpayable","type":"function"},{"inputs":[{"internalType":"string","name":"_seriesName","type":"string"},{"internalType":"uint256","name":"_tokenId","type":"uint256"},{"internalType":"uint256","name":"_dropRate","type":"uint256"}],"name":"updateDropRate","outputs":[],"stateMutability":"nonpayable","type":"function"},{"inputs":[{"internalType":"uint256","name":"","type":"uint256"}],"name":"uri","outputs":[{"internalType":"string","name":"","type":"string"}],"stateMutability":"view","type":"function"}],"evm":{"bytecode":{"linkReferences":{},"object":"6080604052346200024c5762001e90803803806200001d8162000250565b928339810190602080828403126200024c5781516001600160401b03928382116200024c570192601f908082860112156200024c5784518481116200022357601f1995620000718285018816860162000250565b928284528583830101116200024c5784905f5b838110620002375750505f918301015280519384116200022357600254926001938481811c9116801562000218575b828210146200020457838111620001bb575b5080928511600114620001545750839450908392915f9462000148575b50501b915f199060031b1c1916176002555b60038054336001600160a01b03198216811790925560405191906001600160a01b03167f8be0079c531659141344cd1fd0a4f28419497f9722a3daafe3b4186f6b6457e05f80a3611c199081620002778239f35b015192505f80620000e2565b92948490811660025f52845f20945f905b88838310620001a0575050501062000187575b505050811b01600255620000f4565b01515f1960f88460031b161c191690555f808062000178565b85870151885590960195948501948793509081019062000165565b60025f52815f208480880160051c820192848910620001fa575b0160051c019085905b828110620001ee575050620000c5565b5f8155018590620001de565b92508192620001d5565b634e487b7160e01b5f52602260045260245ffd5b90607f1690620000b3565b634e487b7160e01b5f52604160045260245ffd5b81810183015185820184015286920162000084565b5f80fd5b6040519190601f01601f191682016001600160401b03811183821017620002235760405256fe60406080815260049081361015610014575f80fd5b5f91823560e01c8062fdd58e1461157357806301ffc9a71461150657806305685fa6146114ab5780630a761a051461146b5780630b29e5161461135a5780630e89341c146112715780632eb2c2d614610f5b5780634e1273f414610dbf578063715018a614610d625780638da5cb5b14610d39578063993d3c2614610b19578063a09d4a0314610ab9578063a22cb465146109dc578063d0b1f02514610704578063e985e9c5146106b2578063ec2ba0e114610459578063f242432a146101b15763f2fde38b146100e3575f80fd5b346101ad5760203660031901126101ad576100fc6115a3565b906101056117ea565b6001600160a01b0391821692831561015b575050600354826bffffffffffffffffffffffff60a01b821617600355167f8be0079c531659141344cd1fd0a4f28419497f9722a3daafe3b4186f6b6457e08380a380f35b906020608492519162461bcd60e51b8352820152602660248201527f4f776e61626c653a206e6577206f776e657220697320746865207a65726f206160448201526564647265737360d01b6064820152fd5b8280fd5b50346101ad5760a03660031901126101ad576101cb6115a3565b916101d46115bd565b9260443590606435906084356001600160401b038111610455576101fb903690870161163e565b926001600160a01b03918216913383148015610436575b61021b90611919565b87169161022983151561197c565b61023282611b68565b5061023c84611b68565b50818952602097898952868a20828b52895284878b205461025f828210156119d6565b848c528b8b52888c20848d528b5203878b2055828a52898952868a20848b528952868a2061028e868254611a35565b905583828851858152878c8201527fc3d58168c5ae7397731d063d5bbf3d657854427343f4c083240f7aacaa2d0f628a3392a43b6102ca578880f35b918697989596949391868a946103138a519788968795869463f23a6e6160e01b9c8d8752339087015260248601526044850152606484015260a0608484015260a483019061171d565b03925af1839181610407575b506103885750505061032f611a62565b6308c379a014610357575b5162461bcd60e51b815291508190610353908201611aed565b0390fd5b61035f611a7d565b8061036a575061033a565b610353915193849362461bcd60e51b8552840152602483019061171d565b9194506001600160e01b0319909116036103aa5750505f808080808080808880f35b5162461bcd60e51b81529150819061035390820160809060208152602860208201527f455243313135353a204552433131353552656365697665722072656a656374656040820152676420746f6b656e7360c01b60608201520190565b610428919250873d891161042f575b610420818361161d565b810190611a42565b905f61031f565b503d610416565b5082895260016020908152868a20338b5290528589205460ff16610212565b8780fd5b50602091826003193601126106ae5781356001600160401b0381116106aa576104ca8461048b6003933690870161163e565b8451906104ba60018251938581818601966104a781838a6116c4565b8101600581520301902001541515611b9f565b85519384928392519283916116c4565b81016005815203019020015434036106725760065481516104ea816115d3565b8581523315610625576104fc82611b68565b50610505611b42565b50818652858552828620338752855282862080549060018201809211610612575582518281526001868201528633917fc3d58168c5ae7397731d063d5bbf3d657854427343f4c083240f7aacaa2d0f62863392a4333b610572575b8561056c6006546118c2565b60065580f35b846105b5918495969794518093819263f23a6e6160e01b96878452338b85015288602485015260448401526001606484015260a0608484015260a483019061171d565b038186335af18391816105f3575b506105d35750505061032f611a62565b9194506001600160e01b0319909116036103aa5750505f80808080610560565b61060b919250873d891161042f57610420818361161d565b905f6105c3565b634e487b7160e01b885260118652602488fd5b825162461bcd60e51b8152808501869052602160248201527f455243313135353a206d696e7420746f20746865207a65726f206164647265736044820152607360f81b6064820152608490fd5b91606492519162461bcd60e51b83528201526014602482015273125b98dbdc9c9958dd0811551208185b5bdd5b9d60621b6044820152fd5b8480fd5b8380fd5b50503461070057806003193601126107005760ff816020936106d26115a3565b6106da6115bd565b6001600160a01b0391821683526001875283832091168252855220549151911615158152f35b5080fd5b5090346101ad5761071436611693565b9190815181516020908184019061072c8185846116c4565b830161074b600591828152858560019788930301902001541515611b9f565b6107558733611842565b1561099957331561094a5761076987611b68565b50610772611b42565b5088865161077f816115d3565b52868952888352858920338a52835285892054968488106108fb5789905f989698198097828452838752898420338552875201888320558751908152858582015233907fc3d58168c5ae7397731d063d5bbf3d657854427343f4c083240f7aacaa2d0f62893392a48886516107f3816115d3565b52889443019643881197403360601b965b60038110610810578b80f35b896108e8578851868101838152898b830152605483818401528252608091828101918183106001600160401b038411176108d35782918a918c948f52815190209489846108618d8c519283916116c4565b830191820152030190200190888b518981806108818c8b519283916116c4565b81018a815203019020015480156108bf578254910610156108ac578c526108a7906118c2565b610804565b634e487b7160e01b8d5260328c5260248dfd5b50634e487b7160e01b8e5260128d5260248efd5b5050634e487b7160e01b8e5260418d5260248efd5b634e487b7160e01b8c5260118b5260248cfd5b865162461bcd60e51b8152808a018590526024808201527f455243313135353a206275726e20616d6f756e7420657863656564732062616c604482015263616e636560e01b6064820152608490fd5b855162461bcd60e51b8152808901849052602360248201527f455243313135353a206275726e2066726f6d20746865207a65726f206164647260448201526265737360e81b6064820152608490fd5b855162461bcd60e51b8152808901849052601860248201527f596f7520646f206e6f74206f776e2074686973207061636b00000000000000006044820152606490fd5b5090346101ad57806003193601126101ad576109f66115a3565b90602435918215158093036106aa576001600160a01b031692338414610a655750338452600160205280842083855260205280842060ff1981541660ff8416179055519081527f17307eab39ab6107e8899845ad3d59bd9653f200f220920489ca2b5937696c3160203392a380f35b6020608492519162461bcd60e51b8352820152602960248201527f455243313135353a2073657474696e6720617070726f76616c20737461747573604482015268103337b91039b2b63360b91b6064820152fd5b509134610b16576020366003190112610b16578235906001600160401b038211610b16575060208093610af2610b05933690830161163e565b90828551948386809551938492016116c4565b820190815203019020549051908152f35b80fd5b5090346101ad5760803660031901126101ad576001600160401b0382358181116106aa57610b4a903690850161163e565b92602435828111610d3557610b62903690830161163e565b93604435838111610d3157610b7a9036908401611759565b93610b836117ea565b518181809351610b9981602096878096016116c4565b8101600581520301902094805190848211610d1e578190610bba88546116e5565b601f8111610ce5575b508390601f8311600114610c83578992610c78575b50508160011b915f199060031b1c19161785555b600193848601928151948511610c6557680100000000000000008511610c65575081908354858555808610610c4b575b500191865280862090865b848110610c3a5760643560038801558780f35b835183820155928101928501610c27565b848952828920610c5f918101908701611b89565b5f610c1c565b634e487b7160e01b885260419052602487fd5b015190505f80610bd8565b888a52848a209250601f1984168a5b86828210610ccf575050908460019594939210610cb7575b505050811b018555610bec565b01515f1960f88460031b161c191690555f8080610caa565b6001859682939686015181550195019301610c92565b610d0e90898b52858b20601f850160051c810191878610610d14575b601f0160051c0190611b89565b5f610bc3565b9091508190610d01565b634e487b7160e01b885260418452602488fd5b8680fd5b8580fd5b50503461070057816003193601126107005760035490516001600160a01b039091168152602090f35b8334610b165780600319360112610b1657610d7b6117ea565b600380546001600160a01b0319811690915581906001600160a01b03167f8be0079c531659141344cd1fd0a4f28419497f9722a3daafe3b4186f6b6457e08280a380f35b50346101ad57816003193601126101ad5780356001600160401b038082116106aa57366023830112156106aa578183013590610dfa82611742565b92610e078651948561161d565b82845260209260248486019160051b83010191368311610f5757602401905b828210610f3457505050602435908111610d3557610e479036908501611759565b928251845103610ee15750815194610e5e86611742565b95610e6b8651978861161d565b808752610e7a601f1991611742565b0136838801375b8251811015610ecb57610ec690610eb66001600160a01b03610ea38387611905565b5116610eaf8388611905565b5190611842565b610ec08289611905565b526118c2565b610e81565b845182815280610edd818501896117b7565b0390f35b60849185519162461bcd60e51b8352820152602960248201527f455243313135353a206163636f756e747320616e6420696473206c656e677468604482015268040dad2e6dac2e8c6d60bb1b6064820152fd5b81356001600160a01b0381168103610f53578152908401908401610e26565b8980fd5b8880fd5b508234610b16576003199260a03685011261070057610f786115a3565b91610f816115bd565b946001600160401b03936044358581116106ae57610fa29036908801611759565b6064358681116106aa57610fb99036908901611759565b956084359081116106aa57610fd1903690890161163e565b966001600160a01b03928316923384148015611252575b610ff190611919565b82518851036111fe5789169361100885151561197c565b855b835181101561108c57806110216110879286611905565b5161102c828c611905565b5190808a526020908a82528b8b20898c528252828c8c8b8282205492611054858510156119d6565b858352828752822091528452038c8c20558a528981528a8a2090898b52526110808a8a20918254611a35565b90556118c2565b61100a565b50949897909692959784878a518b81527f4a39dc06d4c0dbc64b70af90fd698a233a518aa5d07e595d983b8c0526c8f7fb6110c98d8301886117b7565b918083036020820152806110de33948b6117b7565b0390a43b6110ea578880f35b8798969751948593849363bc197c8160e01b98898652338c87015260248601526044850160a0905260a4850161111f916117b7565b82858203016064860152611132916117b7565b908382030160848401526111459161171d565b0381865a94602095f18391816111de575b506111be57505050611166611a62565b6308c379a01461118a575b905162461bcd60e51b8152908190610353908201611aed565b611192611a7d565b8061119d5750611171565b610353906020935193849362461bcd60e51b8552840152602483019061171d565b9193916001600160e01b031916036103aa57505081808080808080808880f35b6111f791925060203d811161042f57610420818361161d565b9086611156565b865162461bcd60e51b8152602081840152602860248201527f455243313135353a2069647320616e6420616d6f756e7473206c656e677468206044820152670dad2e6dac2e8c6d60c31b6064820152608490fd5b508386526001602090815287872033885290528686205460ff16610fe8565b50503461070057602090816003193601126101ad57805183819490600254611298816116e5565b918285526001918783821691825f146113335750506001146112d7575b505050610edd92916112c891038561161d565b5192828493845283019061171d565b9190869350600283527f405787fa12a823e0f2b7631cc41b3ba8828b3321ca811111fa75cd3aa3bb5ace5b82841061131b57505050820101816112c8610edd6112b5565b8054848a018601528895508794909301928101611302565b60ff19168782015293151560051b860190930193508492506112c89150610edd90506112b5565b50346101ad57602090816003193601126106ae578035906001600160401b0382116106aa5761139083916113a29336910161163e565b818551938285809451938492016116c4565b8101600581520301902082518481959083546113bd816116e5565b918285526001918783821691825f14611445575050600114611409575b505050600392916113ec91038661161d565b0154611401835194848695865285019061171d565b918301520390f35b91908693508583528383205b82841061142d57505050820101816113ec60036113da565b8054848b018601528995508794909301928101611415565b60ff19168782015293151560051b860190930193508492506113ec9150600390506113da565b5090346101ad57602061149e91819361148336611693565b95909261148e6117ea565b51948386809551938492016116c4565b8201908152030190205580f35b50346101ad5760603660031901126101ad5780356001600160401b0381116106ae5760206114e16002936114e99336910161163e565b61048b6117ea565b810160058152030190200160243583526020526044359082205580f35b50346101ad5760203660031901126101ad57359063ffffffff60e01b82168092036101ad5760209250636cdb3d1360e11b8214918215611562575b8215611551575b50519015158152f35b6301ffc9a760e01b1491505f611548565b6303a24d0760e21b81149250611541565b50503461070057806003193601126107005760209061159c6115936115a3565b60243590611842565b9051908152f35b600435906001600160a01b03821682036115b957565b5f80fd5b602435906001600160a01b03821682036115b957565b602081019081106001600160401b038211176115ee57604052565b634e487b7160e01b5f52604160045260245ffd5b604081019081106001600160401b038211176115ee57604052565b90601f801991011681019081106001600160401b038211176115ee57604052565b81601f820112156115b9578035906001600160401b0382116115ee5760405192611672601f8401601f19166020018561161d565b828452602083830101116115b957815f926020809301838601378301015290565b60406003198201126115b957600435906001600160401b0382116115b9576116bd9160040161163e565b9060243590565b5f5b8381106116d55750505f910152565b81810151838201526020016116c6565b90600182811c92168015611713575b60208310146116ff57565b634e487b7160e01b5f52602260045260245ffd5b91607f16916116f4565b90602091611736815180928185528580860191016116c4565b601f01601f1916010190565b6001600160401b0381116115ee5760051b60200190565b9080601f830112156115b957602090823561177381611742565b93611781604051958661161d565b818552838086019260051b8201019283116115b9578301905b8282106117a8575050505090565b8135815290830190830161179a565b9081518082526020808093019301915f5b8281106117d6575050505090565b8351855293810193928101926001016117c8565b6003546001600160a01b031633036117fe57565b606460405162461bcd60e51b815260206004820152602060248201527f4f776e61626c653a2063616c6c6572206973206e6f7420746865206f776e65726044820152fd5b6001600160a01b031690811561186a575f525f60205260405f20905f5260205260405f205490565b60405162461bcd60e51b815260206004820152602a60248201527f455243313135353a2061646472657373207a65726f206973206e6f742061207660448201526930b634b21037bbb732b960b11b6064820152608490fd5b5f1981146118d05760010190565b634e487b7160e01b5f52601160045260245ffd5b8051156118f15760200190565b634e487b7160e01b5f52603260045260245ffd5b80518210156118f15760209160051b010190565b1561192057565b60405162461bcd60e51b815260206004820152602e60248201527f455243313135353a2063616c6c6572206973206e6f7420746f6b656e206f776e60448201526d195c881bdc88185c1c1c9bdd995960921b6064820152608490fd5b1561198357565b60405162461bcd60e51b815260206004820152602560248201527f455243313135353a207472616e7366657220746f20746865207a65726f206164604482015264647265737360d81b6064820152608490fd5b156119dd57565b60405162461bcd60e51b815260206004820152602a60248201527f455243313135353a20696e73756666696369656e742062616c616e636520666f60448201526939103a3930b739b332b960b11b6064820152608490fd5b919082018092116118d057565b908160209103126115b957516001600160e01b0319811681036115b95790565b5f9060033d11611a6e57565b905060045f803e5f5160e01c90565b5f60443d10611ad957604051600319913d83016004833e81516001600160401b03918282113d602484011117611adc57818401948551938411611ae4573d85010160208487010111611adc5750611ad99291016020019061161d565b90565b949350505050565b50949350505050565b60809060208152603460208201527f455243313135353a207472616e7366657220746f206e6f6e2d455243313135356040820152732932b1b2b4bb32b91034b6b83632b6b2b73a32b960611b60608201520190565b604051611b4e81611602565b60018152602036818301376001611b64826118e4565b5290565b60405190611b7582611602565b6001825260203681840137611b64826118e4565b818110611b94575050565b5f8155600101611b89565b15611ba657565b60405162461bcd60e51b815260206004820152601560248201527414d95c9a595cc8191bd95cc81b9bdd08195e1a5cdd605a1b6044820152606490fdfea264697066735822122014b9e1562c194cd8fff243ff0424363141ba5975787d16b04a44d98e5de796e364736f6c63430008150033","opcodes":"PUSH1 0x80 PUSH1 0x40 MSTORE CALLVALUE PUSH3 0x24C JUMPI PUSH3 0x1E90 DUP1 CODESIZE SUB DUP1 PUSH3 0x1D DUP2 PUSH3 0x250 JUMP JUMPDEST SWAP3 DUP4 CODECOPY DUP2 ADD SWAP1 PUSH1 0x20 DUP1 DUP3 DUP5 SUB SLT PUSH3 0x24C JUMPI DUP2 MLOAD PUSH1 0x1 PUSH1 0x1 PUSH1 0x40 SHL SUB SWAP3 DUP4 DUP3 GT PUSH3 0x24C JUMPI ADD SWAP3 PUSH1 0x1F SWAP1 DUP1 DUP3 DUP7 ADD SLT ISZERO PUSH3 0x24C JUMPI DUP5 MLOAD DUP5 DUP2 GT PUSH3 0x223 JUMPI PUSH1 0x1F NOT SWAP6 PUSH3 0x71 DUP3 DUP6 ADD DUP9 AND DUP7 ADD PUSH3 0x250 JUMP JUMPDEST SWAP3 DUP3 DUP5 MSTORE DUP6 DUP4 DUP4 ADD ADD GT PUSH3 0x24C JUMPI DUP5 SWAP1 PUSH0 JUMPDEST DUP4 DUP2 LT PUSH3 0x237 JUMPI POP POP PUSH0 SWAP2 DUP4 ADD ADD MSTORE DUP1 MLOAD SWAP4 DUP5 GT PUSH3 0x223 JUMPI PUSH1 0x2 SLOAD SWAP3 PUSH1 0x1 SWAP4 DUP5 DUP2 DUP2 SHR SWAP2 AND DUP1 ISZERO PUSH3 0x218 JUMPI JUMPDEST DUP3 DUP3 LT EQ PUSH3 0x204 JUMPI DUP4 DUP2 GT PUSH3 0x1BB JUMPI JUMPDEST POP DUP1 SWAP3 DUP6 GT PUSH1 0x1 EQ PUSH3 0x154 JUMPI POP DUP4 SWAP5 POP SWAP1 DUP4 SWAP3 SWAP2 PUSH0 SWAP5 PUSH3 0x148 JUMPI JUMPDEST POP POP SHL SWAP2 PUSH0 NOT SWAP1 PUSH1 0x3 SHL SHR NOT AND OR PUSH1 0x2 SSTORE JUMPDEST PUSH1 0x3 DUP1 SLOAD CALLER PUSH1 0x1 PUSH1 0x1 PUSH1 0xA0 SHL SUB NOT DUP3 AND DUP2 OR SWAP1 SWAP3 SSTORE PUSH1 0x40 MLOAD SWAP2 SWAP1 PUSH1 0x1 PUSH1 0x1 PUSH1 0xA0 SHL SUB AND PUSH32 0x8BE0079C531659141344CD1FD0A4F28419497F9722A3DAAFE3B4186F6B6457E0 PUSH0 DUP1 LOG3 PUSH2 0x1C19 SWAP1 DUP2 PUSH3 0x277 DUP3 CODECOPY RETURN JUMPDEST ADD MLOAD SWAP3 POP PUSH0 DUP1 PUSH3 0xE2 JUMP JUMPDEST SWAP3 SWAP5 DUP5 SWAP1 DUP2 AND PUSH1 0x2 PUSH0 MSTORE DUP5 PUSH0 KECCAK256 SWAP5 PUSH0 SWAP1 JUMPDEST DUP9 DUP4 DUP4 LT PUSH3 0x1A0 JUMPI POP POP POP LT PUSH3 0x187 JUMPI JUMPDEST POP POP POP DUP2 SHL ADD PUSH1 0x2 SSTORE PUSH3 0xF4 JUMP JUMPDEST ADD MLOAD PUSH0 NOT PUSH1 0xF8 DUP5 PUSH1 0x3 SHL AND SHR NOT AND SWAP1 SSTORE PUSH0 DUP1 DUP1 PUSH3 0x178 JUMP JUMPDEST DUP6 DUP8 ADD MLOAD DUP9 SSTORE SWAP1 SWAP7 ADD SWAP6 SWAP5 DUP6 ADD SWAP5 DUP8 SWAP4 POP SWAP1 DUP2 ADD SWAP1 PUSH3 0x165 JUMP JUMPDEST PUSH1 0x2 PUSH0 MSTORE DUP2 PUSH0 KECCAK256 DUP5 DUP1 DUP9 ADD PUSH1 0x5 SHR DUP3 ADD SWAP3 DUP5 DUP10 LT PUSH3 0x1FA JUMPI JUMPDEST ADD PUSH1 0x5 SHR ADD SWAP1 DUP6 SWAP1 JUMPDEST DUP3 DUP2 LT PUSH3 0x1EE JUMPI POP POP PUSH3 0xC5 JUMP JUMPDEST PUSH0 DUP2 SSTORE ADD DUP6 SWAP1 PUSH3 0x1DE JUMP JUMPDEST SWAP3 POP DUP2 SWAP3 PUSH3 0x1D5 JUMP JUMPDEST PUSH4 0x4E487B71 PUSH1 0xE0 SHL PUSH0 MSTORE PUSH1 0x22 PUSH1 0x4 MSTORE PUSH1 0x24 PUSH0 REVERT JUMPDEST SWAP1 PUSH1 0x7F AND SWAP1 PUSH3 0xB3 JUMP JUMPDEST PUSH4 0x4E487B71 PUSH1 0xE0 SHL PUSH0 MSTORE PUSH1 0x41 PUSH1 0x4 MSTORE PUSH1 0x24 PUSH0 REVERT JUMPDEST DUP2 DUP2 ADD DUP4 ADD MLOAD DUP6 DUP3 ADD DUP5 ADD MSTORE DUP7 SWAP3 ADD PUSH3 0x84 JUMP JUMPDEST PUSH0 DUP1 REVERT JUMPDEST PUSH1 0x40 MLOAD SWAP2 SWAP1 PUSH1 0x1F ADD PUSH1 0x1F NOT AND DUP3 ADD PUSH1 0x1 PUSH1 0x1 PUSH1 0x40 SHL SUB DUP2 GT DUP4 DUP3 LT OR PUSH3 0x223 JUMPI PUSH1 0x40 MSTORE JUMP INVALID PUSH1 0x40 PUSH1 0x80 DUP2 MSTORE PUSH1 0x4 SWAP1 DUP2 CALLDATASIZE LT ISZERO PUSH2 0x14 JUMPI PUSH0 DUP1 REVERT JUMPDEST PUSH0 SWAP2 DUP3 CALLDATALOAD PUSH1 0xE0 SHR DUP1 PUSH3 0xFDD58E EQ PUSH2 0x1573 JUMPI DUP1 PUSH4 0x1FFC9A7 EQ PUSH2 0x1506 JUMPI DUP1 PUSH4 0x5685FA6 EQ PUSH2 0x14AB JUMPI DUP1 PUSH4 0xA761A05 EQ PUSH2 0x146B JUMPI DUP1 PUSH4 0xB29E516 EQ PUSH2 0x135A JUMPI DUP1 PUSH4 0xE89341C EQ PUSH2 0x1271 JUMPI DUP1 PUSH4 0x2EB2C2D6 EQ PUSH2 0xF5B JUMPI DUP1 PUSH4 0x4E1273F4 EQ PUSH2 0xDBF JUMPI DUP1 PUSH4 0x715018A6 EQ PUSH2 0xD62 JUMPI DUP1 PUSH4 0x8DA5CB5B EQ PUSH2 0xD39 JUMPI DUP1 PUSH4 0x993D3C26 EQ PUSH2 0xB19 JUMPI DUP1 PUSH4 0xA09D4A03 EQ PUSH2 0xAB9 JUMPI DUP1 PUSH4 0xA22CB465 EQ PUSH2 0x9DC JUMPI DUP1 PUSH4 0xD0B1F025 EQ PUSH2 0x704 JUMPI DUP1 PUSH4 0xE985E9C5 EQ PUSH2 0x6B2 JUMPI DUP1 PUSH4 0xEC2BA0E1 EQ PUSH2 0x459 JUMPI DUP1 PUSH4 0xF242432A EQ PUSH2 0x1B1 JUMPI PUSH4 0xF2FDE38B EQ PUSH2 0xE3 JUMPI PUSH0 DUP1 REVERT JUMPDEST CALLVALUE PUSH2 0x1AD JUMPI PUSH1 0x20 CALLDATASIZE PUSH1 0x3 NOT ADD SLT PUSH2 0x1AD JUMPI PUSH2 0xFC PUSH2 0x15A3 JUMP JUMPDEST SWAP1 PUSH2 0x105 PUSH2 0x17EA JUMP JUMPDEST PUSH1 0x1 PUSH1 0x1 PUSH1 0xA0 SHL SUB SWAP2 DUP3 AND SWAP3 DUP4 ISZERO PUSH2 0x15B JUMPI POP POP PUSH1 0x3 SLOAD DUP3 PUSH12 0xFFFFFFFFFFFFFFFFFFFFFFFF PUSH1 0xA0 SHL DUP3 AND OR PUSH1 0x3 SSTORE AND PUSH32 0x8BE0079C531659141344CD1FD0A4F28419497F9722A3DAAFE3B4186F6B6457E0 DUP4 DUP1 LOG3 DUP1 RETURN JUMPDEST SWAP1 PUSH1 0x20 PUSH1 0x84 SWAP3 MLOAD SWAP2 PUSH3 0x461BCD PUSH1 0xE5 SHL DUP4 MSTORE DUP3 ADD MSTORE PUSH1 0x26 PUSH1 0x24 DUP3 ADD MSTORE PUSH32 0x4F776E61626C653A206E6577206F776E657220697320746865207A65726F2061 PUSH1 0x44 DUP3 ADD MSTORE PUSH6 0x646472657373 PUSH1 0xD0 SHL PUSH1 0x64 DUP3 ADD MSTORE REVERT JUMPDEST DUP3 DUP1 REVERT JUMPDEST POP CALLVALUE PUSH2 0x1AD JUMPI PUSH1 0xA0 CALLDATASIZE PUSH1 0x3 NOT ADD SLT PUSH2 0x1AD JUMPI PUSH2 0x1CB PUSH2 0x15A3 JUMP JUMPDEST SWAP2 PUSH2 0x1D4 PUSH2 0x15BD JUMP JUMPDEST SWAP3 PUSH1 0x44 CALLDATALOAD SWAP1 PUSH1 0x64 CALLDATALOAD SWAP1 PUSH1 0x84 CALLDATALOAD PUSH1 0x1 PUSH1 0x1 PUSH1 0x40 SHL SUB DUP2 GT PUSH2 0x455 JUMPI PUSH2 0x1FB SWAP1 CALLDATASIZE SWAP1 DUP8 ADD PUSH2 0x163E JUMP JUMPDEST SWAP3 PUSH1 0x1 PUSH1 0x1 PUSH1 0xA0 SHL SUB SWAP2 DUP3 AND SWAP2 CALLER DUP4 EQ DUP1 ISZERO PUSH2 0x436 JUMPI JUMPDEST PUSH2 0x21B SWAP1 PUSH2 0x1919 JUMP JUMPDEST DUP8 AND SWAP2 PUSH2 0x229 DUP4 ISZERO ISZERO PUSH2 0x197C JUMP JUMPDEST PUSH2 0x232 DUP3 PUSH2 0x1B68 JUMP JUMPDEST POP PUSH2 0x23C DUP5 PUSH2 0x1B68 JUMP JUMPDEST POP DUP2 DUP10 MSTORE PUSH1 0x20 SWAP8 DUP10 DUP10 MSTORE DUP7 DUP11 KECCAK256 DUP3 DUP12 MSTORE DUP10 MSTORE DUP5 DUP8 DUP12 KECCAK256 SLOAD PUSH2 0x25F DUP3 DUP3 LT ISZERO PUSH2 0x19D6 JUMP JUMPDEST DUP5 DUP13 MSTORE DUP12 DUP12 MSTORE DUP9 DUP13 KECCAK256 DUP5 DUP14 MSTORE DUP12 MSTORE SUB DUP8 DUP12 KECCAK256 SSTORE DUP3 DUP11 MSTORE DUP10 DUP10 MSTORE DUP7 DUP11 KECCAK256 DUP5 DUP12 MSTORE DUP10 MSTORE DUP7 DUP11 KECCAK256 PUSH2 0x28E DUP7 DUP3 SLOAD PUSH2 0x1A35 JUMP JUMPDEST SWAP1 SSTORE DUP4 DUP3 DUP9 MLOAD DUP6 DUP2 MSTORE DUP8 DUP13 DUP3 ADD MSTORE PUSH32 0xC3D58168C5AE7397731D063D5BBF3D657854427343F4C083240F7AACAA2D0F62 DUP11 CALLER SWAP3 LOG4 EXTCODESIZE PUSH2 0x2CA JUMPI DUP9 DUP1 RETURN JUMPDEST SWAP2 DUP7 SWAP8 SWAP9 SWAP6 SWAP7 SWAP5 SWAP4 SWAP2 DUP7 DUP11 SWAP5 PUSH2 0x313 DUP11 MLOAD SWAP8 DUP9 SWAP7 DUP8 SWAP6 DUP7 SWAP5 PUSH4 0xF23A6E61 PUSH1 0xE0 SHL SWAP13 DUP14 DUP8 MSTORE CALLER SWAP1 DUP8 ADD MSTORE PUSH1 0x24 DUP7 ADD MSTORE PUSH1 0x44 DUP6 ADD MSTORE PUSH1 0x64 DUP5 ADD MSTORE PUSH1 0xA0 PUSH1 0x84 DUP5 ADD MSTORE PUSH1 0xA4 DUP4 ADD SWAP1 PUSH2 0x171D JUMP JUMPDEST SUB SWAP3 GAS CALL DUP4 SWAP2 DUP2 PUSH2 0x407 JUMPI JUMPDEST POP PUSH2 0x388 JUMPI POP POP POP PUSH2 0x32F PUSH2 0x1A62 JUMP JUMPDEST PUSH4 0x8C379A0 EQ PUSH2 0x357 JUMPI JUMPDEST MLOAD PUSH3 0x461BCD PUSH1 0xE5 SHL DUP2 MSTORE SWAP2 POP DUP2 SWAP1 PUSH2 0x353 SWAP1 DUP3 ADD PUSH2 0x1AED JUMP JUMPDEST SUB SWAP1 REVERT JUMPDEST PUSH2 0x35F PUSH2 0x1A7D JUMP JUMPDEST DUP1 PUSH2 0x36A JUMPI POP PUSH2 0x33A JUMP JUMPDEST PUSH2 0x353 SWAP2 MLOAD SWAP4 DUP5 SWAP4 PUSH3 0x461BCD PUSH1 0xE5 SHL DUP6 MSTORE DUP5 ADD MSTORE PUSH1 0x24 DUP4 ADD SWAP1 PUSH2 0x171D JUMP JUMPDEST SWAP2 SWAP5 POP PUSH1 0x1 PUSH1 0x1 PUSH1 0xE0 SHL SUB NOT SWAP1 SWAP2 AND SUB PUSH2 0x3AA JUMPI POP POP PUSH0 DUP1 DUP1 DUP1 DUP1 DUP1 DUP1 DUP1 DUP9 DUP1 RETURN JUMPDEST MLOAD PUSH3 0x461BCD PUSH1 0xE5 SHL DUP2 MSTORE SWAP2 POP DUP2 SWAP1 PUSH2 0x353 SWAP1 DUP3 ADD PUSH1 0x80 SWAP1 PUSH1 0x20 DUP2 MSTORE PUSH1 0x28 PUSH1 0x20 DUP3 ADD MSTORE PUSH32 0x455243313135353A204552433131353552656365697665722072656A65637465 PUSH1 0x40 DUP3 ADD MSTORE PUSH8 0x6420746F6B656E73 PUSH1 0xC0 SHL PUSH1 0x60 DUP3 ADD MSTORE ADD SWAP1 JUMP JUMPDEST PUSH2 0x428 SWAP2 SWAP3 POP DUP8 RETURNDATASIZE DUP10 GT PUSH2 0x42F JUMPI JUMPDEST PUSH2 0x420 DUP2 DUP4 PUSH2 0x161D JUMP JUMPDEST DUP2 ADD SWAP1 PUSH2 0x1A42 JUMP JUMPDEST SWAP1 PUSH0 PUSH2 0x31F JUMP JUMPDEST POP RETURNDATASIZE PUSH2 0x416 JUMP JUMPDEST POP DUP3 DUP10 MSTORE PUSH1 0x1 PUSH1 0x20 SWAP1 DUP2 MSTORE DUP7 DUP11 KECCAK256 CALLER DUP12 MSTORE SWAP1 MSTORE DUP6 DUP10 KECCAK256 SLOAD PUSH1 0xFF AND PUSH2 0x212 JUMP JUMPDEST DUP8 DUP1 REVERT JUMPDEST POP PUSH1 0x20 SWAP2 DUP3 PUSH1 0x3 NOT CALLDATASIZE ADD SLT PUSH2 0x6AE JUMPI DUP2 CALLDATALOAD PUSH1 0x1 PUSH1 0x1 PUSH1 0x40 SHL SUB DUP2 GT PUSH2 0x6AA JUMPI PUSH2 0x4CA DUP5 PUSH2 0x48B PUSH1 0x3 SWAP4 CALLDATASIZE SWAP1 DUP8 ADD PUSH2 0x163E JUMP JUMPDEST DUP5 MLOAD SWAP1 PUSH2 0x4BA PUSH1 0x1 DUP3 MLOAD SWAP4 DUP6 DUP2 DUP2 DUP7 ADD SWAP7 PUSH2 0x4A7 DUP2 DUP4 DUP11 PUSH2 0x16C4 JUMP JUMPDEST DUP2 ADD PUSH1 0x5 DUP2 MSTORE SUB ADD SWAP1 KECCAK256 ADD SLOAD ISZERO ISZERO PUSH2 0x1B9F JUMP JUMPDEST DUP6 MLOAD SWAP4 DUP5 SWAP3 DUP4 SWAP3 MLOAD SWAP3 DUP4 SWAP2 PUSH2 0x16C4 JUMP JUMPDEST DUP2 ADD PUSH1 0x5 DUP2 MSTORE SUB ADD SWAP1 KECCAK256 ADD SLOAD CALLVALUE SUB PUSH2 0x672 JUMPI PUSH1 0x6 SLOAD DUP2 MLOAD PUSH2 0x4EA DUP2 PUSH2 0x15D3 JUMP JUMPDEST DUP6 DUP2 MSTORE CALLER ISZERO PUSH2 0x625 JUMPI PUSH2 0x4FC DUP3 PUSH2 0x1B68 JUMP JUMPDEST POP PUSH2 0x505 PUSH2 0x1B42 JUMP JUMPDEST POP DUP2 DUP7 MSTORE DUP6 DUP6 MSTORE DUP3 DUP7 KECCAK256 CALLER DUP8 MSTORE DUP6 MSTORE DUP3 DUP7 KECCAK256 DUP1 SLOAD SWAP1 PUSH1 0x1 DUP3 ADD DUP1 SWAP3 GT PUSH2 0x612 JUMPI SSTORE DUP3 MLOAD DUP3 DUP2 MSTORE PUSH1 0x1 DUP7 DUP3 ADD MSTORE DUP7 CALLER SWAP2 PUSH32 0xC3D58168C5AE7397731D063D5BBF3D657854427343F4C083240F7AACAA2D0F62 DUP7 CALLER SWAP3 LOG4 CALLER EXTCODESIZE PUSH2 0x572 JUMPI JUMPDEST DUP6 PUSH2 0x56C PUSH1 0x6 SLOAD PUSH2 0x18C2 JUMP JUMPDEST PUSH1 0x6 SSTORE DUP1 RETURN JUMPDEST DUP5 PUSH2 0x5B5 SWAP2 DUP5 SWAP6 SWAP7 SWAP8 SWAP5 MLOAD DUP1 SWAP4 DUP2 SWAP3 PUSH4 0xF23A6E61 PUSH1 0xE0 SHL SWAP7 DUP8 DUP5 MSTORE CALLER DUP12 DUP6 ADD MSTORE DUP9 PUSH1 0x24 DUP6 ADD MSTORE PUSH1 0x44 DUP5 ADD MSTORE PUSH1 0x1 PUSH1 0x64 DUP5 ADD MSTORE PUSH1 0xA0 PUSH1 0x84 DUP5 ADD MSTORE PUSH1 0xA4 DUP4 ADD SWAP1 PUSH2 0x171D JUMP JUMPDEST SUB DUP2 DUP7 CALLER GAS CALL DUP4 SWAP2 DUP2 PUSH2 0x5F3 JUMPI JUMPDEST POP PUSH2 0x5D3 JUMPI POP POP POP PUSH2 0x32F PUSH2 0x1A62 JUMP JUMPDEST SWAP2 SWAP5 POP PUSH1 0x1 PUSH1 0x1 PUSH1 0xE0 SHL SUB NOT SWAP1 SWAP2 AND SUB PUSH2 0x3AA JUMPI POP POP PUSH0 DUP1 DUP1 DUP1 DUP1 PUSH2 0x560 JUMP JUMPDEST PUSH2 0x60B SWAP2 SWAP3 POP DUP8 RETURNDATASIZE DUP10 GT PUSH2 0x42F JUMPI PUSH2 0x420 DUP2 DUP4 PUSH2 0x161D JUMP JUMPDEST SWAP1 PUSH0 PUSH2 0x5C3 JUMP JUMPDEST PUSH4 0x4E487B71 PUSH1 0xE0 SHL DUP9 MSTORE PUSH1 0x11 DUP7 MSTORE PUSH1 0x24 DUP9 REVERT JUMPDEST DUP3 MLOAD PUSH3 0x461BCD PUSH1 0xE5 SHL DUP2 MSTORE DUP1 DUP6 ADD DUP7 SWAP1 MSTORE PUSH1 0x21 PUSH1 0x24 DUP3 ADD MSTORE PUSH32 0x455243313135353A206D696E7420746F20746865207A65726F20616464726573 PUSH1 0x44 DUP3 ADD MSTORE PUSH1 0x73 PUSH1 0xF8 SHL PUSH1 0x64 DUP3 ADD MSTORE PUSH1 0x84 SWAP1 REVERT JUMPDEST SWAP2 PUSH1 0x64 SWAP3 MLOAD SWAP2 PUSH3 0x461BCD PUSH1 0xE5 SHL DUP4 MSTORE DUP3 ADD MSTORE PUSH1 0x14 PUSH1 0x24 DUP3 ADD MSTORE PUSH20 0x125B98DBDC9C9958DD0811551208185B5BDD5B9D PUSH1 0x62 SHL PUSH1 0x44 DUP3 ADD MSTORE REVERT JUMPDEST DUP5 DUP1 REVERT JUMPDEST DUP4 DUP1 REVERT JUMPDEST POP POP CALLVALUE PUSH2 0x700 JUMPI DUP1 PUSH1 0x3 NOT CALLDATASIZE ADD SLT PUSH2 0x700 JUMPI PUSH1 0xFF DUP2 PUSH1 0x20 SWAP4 PUSH2 0x6D2 PUSH2 0x15A3 JUMP JUMPDEST PUSH2 0x6DA PUSH2 0x15BD JUMP JUMPDEST PUSH1 0x1 PUSH1 0x1 PUSH1 0xA0 SHL SUB SWAP2 DUP3 AND DUP4 MSTORE PUSH1 0x1 DUP8 MSTORE DUP4 DUP4 KECCAK256 SWAP2 AND DUP3 MSTORE DUP6 MSTORE KECCAK256 SLOAD SWAP2 MLOAD SWAP2 AND ISZERO ISZERO DUP2 MSTORE RETURN JUMPDEST POP DUP1 REVERT JUMPDEST POP SWAP1 CALLVALUE PUSH2 0x1AD JUMPI PUSH2 0x714 CALLDATASIZE PUSH2 0x1693 JUMP JUMPDEST SWAP2 SWAP1 DUP2 MLOAD DUP2 MLOAD PUSH1 0x20 SWAP1 DUP2 DUP5 ADD SWAP1 PUSH2 0x72C DUP2 DUP6 DUP5 PUSH2 0x16C4 JUMP JUMPDEST DUP4 ADD PUSH2 0x74B PUSH1 0x5 SWAP2 DUP3 DUP2 MSTORE DUP6 DUP6 PUSH1 0x1 SWAP8 DUP9 SWAP4 SUB ADD SWAP1 KECCAK256 ADD SLOAD ISZERO ISZERO PUSH2 0x1B9F JUMP JUMPDEST PUSH2 0x755 DUP8 CALLER PUSH2 0x1842 JUMP JUMPDEST ISZERO PUSH2 0x999 JUMPI CALLER ISZERO PUSH2 0x94A JUMPI PUSH2 0x769 DUP8 PUSH2 0x1B68 JUMP JUMPDEST POP PUSH2 0x772 PUSH2 0x1B42 JUMP JUMPDEST POP DUP9 DUP7 MLOAD PUSH2 0x77F DUP2 PUSH2 0x15D3 JUMP JUMPDEST MSTORE DUP7 DUP10 MSTORE DUP9 DUP4 MSTORE DUP6 DUP10 KECCAK256 CALLER DUP11 MSTORE DUP4 MSTORE DUP6 DUP10 KECCAK256 SLOAD SWAP7 DUP5 DUP9 LT PUSH2 0x8FB JUMPI DUP10 SWAP1 PUSH0 SWAP9 SWAP7 SWAP9 NOT DUP1 SWAP8 DUP3 DUP5 MSTORE DUP4 DUP8 MSTORE DUP10 DUP5 KECCAK256 CALLER DUP6 MSTORE DUP8 MSTORE ADD DUP9 DUP4 KECCAK256 SSTORE DUP8 MLOAD SWAP1 DUP2 MSTORE DUP6 DUP6 DUP3 ADD MSTORE CALLER SWAP1 PUSH32 0xC3D58168C5AE7397731D063D5BBF3D657854427343F4C083240F7AACAA2D0F62 DUP10 CALLER SWAP3 LOG4 DUP9 DUP7 MLOAD PUSH2 0x7F3 DUP2 PUSH2 0x15D3 JUMP JUMPDEST MSTORE DUP9 SWAP5 NUMBER ADD SWAP7 NUMBER DUP9 GT SWAP8 BLOCKHASH CALLER PUSH1 0x60 SHL SWAP7 JUMPDEST PUSH1 0x3 DUP2 LT PUSH2 0x810 JUMPI DUP12 DUP1 RETURN JUMPDEST DUP10 PUSH2 0x8E8 JUMPI DUP9 MLOAD DUP7 DUP2 ADD DUP4 DUP2 MSTORE DUP10 DUP12 DUP4 ADD MSTORE PUSH1 0x54 DUP4 DUP2 DUP5 ADD MSTORE DUP3 MSTORE PUSH1 0x80 SWAP2 DUP3 DUP2 ADD SWAP2 DUP2 DUP4 LT PUSH1 0x1 PUSH1 0x1 PUSH1 0x40 SHL SUB DUP5 GT OR PUSH2 0x8D3 JUMPI DUP3 SWAP2 DUP11 SWAP2 DUP13 SWAP5 DUP16 MSTORE DUP2 MLOAD SWAP1 KECCAK256 SWAP5 DUP10 DUP5 PUSH2 0x861 DUP14 DUP13 MLOAD SWAP3 DUP4 SWAP2 PUSH2 0x16C4 JUMP JUMPDEST DUP4 ADD SWAP2 DUP3 ADD MSTORE SUB ADD SWAP1 KECCAK256 ADD SWAP1 DUP9 DUP12 MLOAD DUP10 DUP2 DUP1 PUSH2 0x881 DUP13 DUP12 MLOAD SWAP3 DUP4 SWAP2 PUSH2 0x16C4 JUMP JUMPDEST DUP2 ADD DUP11 DUP2 MSTORE SUB ADD SWAP1 KECCAK256 ADD SLOAD DUP1 ISZERO PUSH2 0x8BF JUMPI DUP3 SLOAD SWAP2 MOD LT ISZERO PUSH2 0x8AC JUMPI DUP13 MSTORE PUSH2 0x8A7 SWAP1 PUSH2 0x18C2 JUMP JUMPDEST PUSH2 0x804 JUMP JUMPDEST PUSH4 0x4E487B71 PUSH1 0xE0 SHL DUP14 MSTORE PUSH1 0x32 DUP13 MSTORE PUSH1 0x24 DUP14 REVERT JUMPDEST POP PUSH4 0x4E487B71 PUSH1 0xE0 SHL DUP15 MSTORE PUSH1 0x12 DUP14 MSTORE PUSH1 0x24 DUP15 REVERT JUMPDEST POP POP PUSH4 0x4E487B71 PUSH1 0xE0 SHL DUP15 MSTORE PUSH1 0x41 DUP14 MSTORE PUSH1 0x24 DUP15 REVERT JUMPDEST PUSH4 0x4E487B71 PUSH1 0xE0 SHL DUP13 MSTORE PUSH1 0x11 DUP12 MSTORE PUSH1 0x24 DUP13 REVERT JUMPDEST DUP7 MLOAD PUSH3 0x461BCD PUSH1 0xE5 SHL DUP2 MSTORE DUP1 DUP11 ADD DUP6 SWAP1 MSTORE PUSH1 0x24 DUP1 DUP3 ADD MSTORE PUSH32 0x455243313135353A206275726E20616D6F756E7420657863656564732062616C PUSH1 0x44 DUP3 ADD MSTORE PUSH4 0x616E6365 PUSH1 0xE0 SHL PUSH1 0x64 DUP3 ADD MSTORE PUSH1 0x84 SWAP1 REVERT JUMPDEST DUP6 MLOAD PUSH3 0x461BCD PUSH1 0xE5 SHL DUP2 MSTORE DUP1 DUP10 ADD DUP5 SWAP1 MSTORE PUSH1 0x23 PUSH1 0x24 DUP3 ADD MSTORE PUSH32 0x455243313135353A206275726E2066726F6D20746865207A65726F2061646472 PUSH1 0x44 DUP3 ADD MSTORE PUSH3 0x657373 PUSH1 0xE8 SHL PUSH1 0x64 DUP3 ADD MSTORE PUSH1 0x84 SWAP1 REVERT JUMPDEST DUP6 MLOAD PUSH3 0x461BCD PUSH1 0xE5 SHL DUP2 MSTORE DUP1 DUP10 ADD DUP5 SWAP1 MSTORE PUSH1 0x18 PUSH1 0x24 DUP3 ADD MSTORE PUSH32 0x596F7520646F206E6F74206F776E2074686973207061636B0000000000000000 PUSH1 0x44 DUP3 ADD MSTORE PUSH1 0x64 SWAP1 REVERT JUMPDEST POP SWAP1 CALLVALUE PUSH2 0x1AD JUMPI DUP1 PUSH1 0x3 NOT CALLDATASIZE ADD SLT PUSH2 0x1AD JUMPI PUSH2 0x9F6 PUSH2 0x15A3 JUMP JUMPDEST SWAP1 PUSH1 0x24 CALLDATALOAD SWAP2 DUP3 ISZERO ISZERO DUP1 SWAP4 SUB PUSH2 0x6AA JUMPI PUSH1 0x1 PUSH1 0x1 PUSH1 0xA0 SHL SUB AND SWAP3 CALLER DUP5 EQ PUSH2 0xA65 JUMPI POP CALLER DUP5 MSTORE PUSH1 0x1 PUSH1 0x20 MSTORE DUP1 DUP5 KECCAK256 DUP4 DUP6 MSTORE PUSH1 0x20 MSTORE DUP1 DUP5 KECCAK256 PUSH1 0xFF NOT DUP2 SLOAD AND PUSH1 0xFF DUP5 AND OR SWAP1 SSTORE MLOAD SWAP1 DUP2 MSTORE PUSH32 0x17307EAB39AB6107E8899845AD3D59BD9653F200F220920489CA2B5937696C31 PUSH1 0x20 CALLER SWAP3 LOG3 DUP1 RETURN JUMPDEST PUSH1 0x20 PUSH1 0x84 SWAP3 MLOAD SWAP2 PUSH3 0x461BCD PUSH1 0xE5 SHL DUP4 MSTORE DUP3 ADD MSTORE PUSH1 0x29 PUSH1 0x24 DUP3 ADD MSTORE PUSH32 0x455243313135353A2073657474696E6720617070726F76616C20737461747573 PUSH1 0x44 DUP3 ADD MSTORE PUSH9 0x103337B91039B2B633 PUSH1 0xB9 SHL PUSH1 0x64 DUP3 ADD MSTORE REVERT JUMPDEST POP SWAP2 CALLVALUE PUSH2 0xB16 JUMPI PUSH1 0x20 CALLDATASIZE PUSH1 0x3 NOT ADD SLT PUSH2 0xB16 JUMPI DUP3 CALLDATALOAD SWAP1 PUSH1 0x1 PUSH1 0x1 PUSH1 0x40 SHL SUB DUP3 GT PUSH2 0xB16 JUMPI POP PUSH1 0x20 DUP1 SWAP4 PUSH2 0xAF2 PUSH2 0xB05 SWAP4 CALLDATASIZE SWAP1 DUP4 ADD PUSH2 0x163E JUMP JUMPDEST SWAP1 DUP3 DUP6 MLOAD SWAP5 DUP4 DUP7 DUP1 SWAP6 MLOAD SWAP4 DUP5 SWAP3 ADD PUSH2 0x16C4 JUMP JUMPDEST DUP3 ADD SWAP1 DUP2 MSTORE SUB ADD SWAP1 KECCAK256 SLOAD SWAP1 MLOAD SWAP1 DUP2 MSTORE RETURN JUMPDEST DUP1 REVERT JUMPDEST POP SWAP1 CALLVALUE PUSH2 0x1AD JUMPI PUSH1 0x80 CALLDATASIZE PUSH1 0x3 NOT ADD SLT PUSH2 0x1AD JUMPI PUSH1 0x1 PUSH1 0x1 PUSH1 0x40 SHL SUB DUP3 CALLDATALOAD DUP2 DUP2 GT PUSH2 0x6AA JUMPI PUSH2 0xB4A SWAP1 CALLDATASIZE SWAP1 DUP6 ADD PUSH2 0x163E JUMP JUMPDEST SWAP3 PUSH1 0x24 CALLDATALOAD DUP3 DUP2 GT PUSH2 0xD35 JUMPI PUSH2 0xB62 SWAP1 CALLDATASIZE SWAP1 DUP4 ADD PUSH2 0x163E JUMP JUMPDEST SWAP4 PUSH1 0x44 CALLDATALOAD DUP4 DUP2 GT PUSH2 0xD31 JUMPI PUSH2 0xB7A SWAP1 CALLDATASIZE SWAP1 DUP5 ADD PUSH2 0x1759 JUMP JUMPDEST SWAP4 PUSH2 0xB83 PUSH2 0x17EA JUMP JUMPDEST MLOAD DUP2 DUP2 DUP1 SWAP4 MLOAD PUSH2 0xB99 DUP2 PUSH1 0x20 SWAP7 DUP8 DUP1 SWAP7 ADD PUSH2 0x16C4 JUMP JUMPDEST DUP2 ADD PUSH1 0x5 DUP2 MSTORE SUB ADD SWAP1 KECCAK256 SWAP5 DUP1 MLOAD SWAP1 DUP5 DUP3 GT PUSH2 0xD1E JUMPI DUP2 SWAP1 PUSH2 0xBBA DUP9 SLOAD PUSH2 0x16E5 JUMP JUMPDEST PUSH1 0x1F DUP2 GT PUSH2 0xCE5 JUMPI JUMPDEST POP DUP4 SWAP1 PUSH1 0x1F DUP4 GT PUSH1 0x1 EQ PUSH2 0xC83 JUMPI DUP10 SWAP3 PUSH2 0xC78 JUMPI JUMPDEST POP POP DUP2 PUSH1 0x1 SHL SWAP2 PUSH0 NOT SWAP1 PUSH1 0x3 SHL SHR NOT AND OR DUP6 SSTORE JUMPDEST PUSH1 0x1 SWAP4 DUP5 DUP7 ADD SWAP3 DUP2 MLOAD SWAP5 DUP6 GT PUSH2 0xC65 JUMPI PUSH9 0x10000000000000000 DUP6 GT PUSH2 0xC65 JUMPI POP DUP2 SWAP1 DUP4 SLOAD DUP6 DUP6 SSTORE DUP1 DUP7 LT PUSH2 0xC4B JUMPI JUMPDEST POP ADD SWAP2 DUP7 MSTORE DUP1 DUP7 KECCAK256 SWAP1 DUP7 JUMPDEST DUP5 DUP2 LT PUSH2 0xC3A JUMPI PUSH1 0x64 CALLDATALOAD PUSH1 0x3 DUP9 ADD SSTORE DUP8 DUP1 RETURN JUMPDEST DUP4 MLOAD DUP4 DUP3 ADD SSTORE SWAP3 DUP2 ADD SWAP3 DUP6 ADD PUSH2 0xC27 JUMP JUMPDEST DUP5 DUP10 MSTORE DUP3 DUP10 KECCAK256 PUSH2 0xC5F SWAP2 DUP2 ADD SWAP1 DUP8 ADD PUSH2 0x1B89 JUMP JUMPDEST PUSH0 PUSH2 0xC1C JUMP JUMPDEST PUSH4 0x4E487B71 PUSH1 0xE0 SHL DUP9 MSTORE PUSH1 0x41 SWAP1 MSTORE PUSH1 0x24 DUP8 REVERT JUMPDEST ADD MLOAD SWAP1 POP PUSH0 DUP1 PUSH2 0xBD8 JUMP JUMPDEST DUP9 DUP11 MSTORE DUP5 DUP11 KECCAK256 SWAP3 POP PUSH1 0x1F NOT DUP5 AND DUP11 JUMPDEST DUP7 DUP3 DUP3 LT PUSH2 0xCCF JUMPI POP POP SWAP1 DUP5 PUSH1 0x1 SWAP6 SWAP5 SWAP4 SWAP3 LT PUSH2 0xCB7 JUMPI JUMPDEST POP POP POP DUP2 SHL ADD DUP6 SSTORE PUSH2 0xBEC JUMP JUMPDEST ADD MLOAD PUSH0 NOT PUSH1 0xF8 DUP5 PUSH1 0x3 SHL AND SHR NOT AND SWAP1 SSTORE PUSH0 DUP1 DUP1 PUSH2 0xCAA JUMP JUMPDEST PUSH1 0x1 DUP6 SWAP7 DUP3 SWAP4 SWAP7 DUP7 ADD MLOAD DUP2 SSTORE ADD SWAP6 ADD SWAP4 ADD PUSH2 0xC92 JUMP JUMPDEST PUSH2 0xD0E SWAP1 DUP10 DUP12 MSTORE DUP6 DUP12 KECCAK256 PUSH1 0x1F DUP6 ADD PUSH1 0x5 SHR DUP2 ADD SWAP2 DUP8 DUP7 LT PUSH2 0xD14 JUMPI JUMPDEST PUSH1 0x1F ADD PUSH1 0x5 SHR ADD SWAP1 PUSH2 0x1B89 JUMP JUMPDEST PUSH0 PUSH2 0xBC3 JUMP JUMPDEST SWAP1 SWAP2 POP DUP2 SWAP1 PUSH2 0xD01 JUMP JUMPDEST PUSH4 0x4E487B71 PUSH1 0xE0 SHL DUP9 MSTORE PUSH1 0x41 DUP5 MSTORE PUSH1 0x24 DUP9 REVERT JUMPDEST DUP7 DUP1 REVERT JUMPDEST DUP6 DUP1 REVERT JUMPDEST POP POP CALLVALUE PUSH2 0x700 JUMPI DUP2 PUSH1 0x3 NOT CALLDATASIZE ADD SLT PUSH2 0x700 JUMPI PUSH1 0x3 SLOAD SWAP1 MLOAD PUSH1 0x1 PUSH1 0x1 PUSH1 0xA0 SHL SUB SWAP1 SWAP2 AND DUP2 MSTORE PUSH1 0x20 SWAP1 RETURN JUMPDEST DUP4 CALLVALUE PUSH2 0xB16 JUMPI DUP1 PUSH1 0x3 NOT CALLDATASIZE ADD SLT PUSH2 0xB16 JUMPI PUSH2 0xD7B PUSH2 0x17EA JUMP JUMPDEST PUSH1 0x3 DUP1 SLOAD PUSH1 0x1 PUSH1 0x1 PUSH1 0xA0 SHL SUB NOT DUP2 AND SWAP1 SWAP2 SSTORE DUP2 SWAP1 PUSH1 0x1 PUSH1 0x1 PUSH1 0xA0 SHL SUB AND PUSH32 0x8BE0079C531659141344CD1FD0A4F28419497F9722A3DAAFE3B4186F6B6457E0 DUP3 DUP1 LOG3 DUP1 RETURN JUMPDEST POP CALLVALUE PUSH2 0x1AD JUMPI DUP2 PUSH1 0x3 NOT CALLDATASIZE ADD SLT PUSH2 0x1AD JUMPI DUP1 CALLDATALOAD PUSH1 0x1 PUSH1 0x1 PUSH1 0x40 SHL SUB DUP1 DUP3 GT PUSH2 0x6AA JUMPI CALLDATASIZE PUSH1 0x23 DUP4 ADD SLT ISZERO PUSH2 0x6AA JUMPI DUP2 DUP4 ADD CALLDATALOAD SWAP1 PUSH2 0xDFA DUP3 PUSH2 0x1742 JUMP JUMPDEST SWAP3 PUSH2 0xE07 DUP7 MLOAD SWAP5 DUP6 PUSH2 0x161D JUMP JUMPDEST DUP3 DUP5 MSTORE PUSH1 0x20 SWAP3 PUSH1 0x24 DUP5 DUP7 ADD SWAP2 PUSH1 0x5 SHL DUP4 ADD ADD SWAP2 CALLDATASIZE DUP4 GT PUSH2 0xF57 JUMPI PUSH1 0x24 ADD SWAP1 JUMPDEST DUP3 DUP3 LT PUSH2 0xF34 JUMPI POP POP POP PUSH1 0x24 CALLDATALOAD SWAP1 DUP2 GT PUSH2 0xD35 JUMPI PUSH2 0xE47 SWAP1 CALLDATASIZE SWAP1 DUP6 ADD PUSH2 0x1759 JUMP JUMPDEST SWAP3 DUP3 MLOAD DUP5 MLOAD SUB PUSH2 0xEE1 JUMPI POP DUP2 MLOAD SWAP5 PUSH2 0xE5E DUP7 PUSH2 0x1742 JUMP JUMPDEST SWAP6 PUSH2 0xE6B DUP7 MLOAD SWAP8 DUP9 PUSH2 0x161D JUMP JUMPDEST DUP1 DUP8 MSTORE PUSH2 0xE7A PUSH1 0x1F NOT SWAP2 PUSH2 0x1742 JUMP JUMPDEST ADD CALLDATASIZE DUP4 DUP9 ADD CALLDATACOPY JUMPDEST DUP3 MLOAD DUP2 LT ISZERO PUSH2 0xECB JUMPI PUSH2 0xEC6 SWAP1 PUSH2 0xEB6 PUSH1 0x1 PUSH1 0x1 PUSH1 0xA0 SHL SUB PUSH2 0xEA3 DUP4 DUP8 PUSH2 0x1905 JUMP JUMPDEST MLOAD AND PUSH2 0xEAF DUP4 DUP9 PUSH2 0x1905 JUMP JUMPDEST MLOAD SWAP1 PUSH2 0x1842 JUMP JUMPDEST PUSH2 0xEC0 DUP3 DUP10 PUSH2 0x1905 JUMP JUMPDEST MSTORE PUSH2 0x18C2 JUMP JUMPDEST PUSH2 0xE81 JUMP JUMPDEST DUP5 MLOAD DUP3 DUP2 MSTORE DUP1 PUSH2 0xEDD DUP2 DUP6 ADD DUP10 PUSH2 0x17B7 JUMP JUMPDEST SUB SWAP1 RETURN JUMPDEST PUSH1 0x84 SWAP2 DUP6 MLOAD SWAP2 PUSH3 0x461BCD PUSH1 0xE5 SHL DUP4 MSTORE DUP3 ADD MSTORE PUSH1 0x29 PUSH1 0x24 DUP3 ADD MSTORE PUSH32 0x455243313135353A206163636F756E747320616E6420696473206C656E677468 PUSH1 0x44 DUP3 ADD MSTORE PUSH9 0x40DAD2E6DAC2E8C6D PUSH1 0xBB SHL PUSH1 0x64 DUP3 ADD MSTORE REVERT JUMPDEST DUP2 CALLDATALOAD PUSH1 0x1 PUSH1 0x1 PUSH1 0xA0 SHL SUB DUP2 AND DUP2 SUB PUSH2 0xF53 JUMPI DUP2 MSTORE SWAP1 DUP5 ADD SWAP1 DUP5 ADD PUSH2 0xE26 JUMP JUMPDEST DUP10 DUP1 REVERT JUMPDEST DUP9 DUP1 REVERT JUMPDEST POP DUP3 CALLVALUE PUSH2 0xB16 JUMPI PUSH1 0x3 NOT SWAP3 PUSH1 0xA0 CALLDATASIZE DUP6 ADD SLT PUSH2 0x700 JUMPI PUSH2 0xF78 PUSH2 0x15A3 JUMP JUMPDEST SWAP2 PUSH2 0xF81 PUSH2 0x15BD JUMP JUMPDEST SWAP5 PUSH1 0x1 PUSH1 0x1 PUSH1 0x40 SHL SUB SWAP4 PUSH1 0x44 CALLDATALOAD DUP6 DUP2 GT PUSH2 0x6AE JUMPI PUSH2 0xFA2 SWAP1 CALLDATASIZE SWAP1 DUP9 ADD PUSH2 0x1759 JUMP JUMPDEST PUSH1 0x64 CALLDATALOAD DUP7 DUP2 GT PUSH2 0x6AA JUMPI PUSH2 0xFB9 SWAP1 CALLDATASIZE SWAP1 DUP10 ADD PUSH2 0x1759 JUMP JUMPDEST SWAP6 PUSH1 0x84 CALLDATALOAD SWAP1 DUP2 GT PUSH2 0x6AA JUMPI PUSH2 0xFD1 SWAP1 CALLDATASIZE SWAP1 DUP10 ADD PUSH2 0x163E JUMP JUMPDEST SWAP7 PUSH1 0x1 PUSH1 0x1 PUSH1 0xA0 SHL SUB SWAP3 DUP4 AND SWAP3 CALLER DUP5 EQ DUP1 ISZERO PUSH2 0x1252 JUMPI JUMPDEST PUSH2 0xFF1 SWAP1 PUSH2 0x1919 JUMP JUMPDEST DUP3 MLOAD DUP9 MLOAD SUB PUSH2 0x11FE JUMPI DUP10 AND SWAP4 PUSH2 0x1008 DUP6 ISZERO ISZERO PUSH2 0x197C JUMP JUMPDEST DUP6 JUMPDEST DUP4 MLOAD DUP2 LT ISZERO PUSH2 0x108C JUMPI DUP1 PUSH2 0x1021 PUSH2 0x1087 SWAP3 DUP7 PUSH2 0x1905 JUMP JUMPDEST MLOAD PUSH2 0x102C DUP3 DUP13 PUSH2 0x1905 JUMP JUMPDEST MLOAD SWAP1 DUP1 DUP11 MSTORE PUSH1 0x20 SWAP1 DUP11 DUP3 MSTORE DUP12 DUP12 KECCAK256 DUP10 DUP13 MSTORE DUP3 MSTORE DUP3 DUP13 DUP13 DUP12 DUP3 DUP3 KECCAK256 SLOAD SWAP3 PUSH2 0x1054 DUP6 DUP6 LT ISZERO PUSH2 0x19D6 JUMP JUMPDEST DUP6 DUP4 MSTORE DUP3 DUP8 MSTORE DUP3 KECCAK256 SWAP2 MSTORE DUP5 MSTORE SUB DUP13 DUP13 KECCAK256 SSTORE DUP11 MSTORE DUP10 DUP2 MSTORE DUP11 DUP11 KECCAK256 SWAP1 DUP10 DUP12 MSTORE MSTORE PUSH2 0x1080 DUP11 DUP11 KECCAK256 SWAP2 DUP3 SLOAD PUSH2 0x1A35 JUMP JUMPDEST SWAP1 SSTORE PUSH2 0x18C2 JUMP JUMPDEST PUSH2 0x100A JUMP JUMPDEST POP SWAP5 SWAP9 SWAP8 SWAP1 SWAP7 SWAP3 SWAP6 SWAP8 DUP5 DUP8 DUP11 MLOAD DUP12 DUP2 MSTORE PUSH32 0x4A39DC06D4C0DBC64B70AF90FD698A233A518AA5D07E595D983B8C0526C8F7FB PUSH2 0x10C9 DUP14 DUP4 ADD DUP9 PUSH2 0x17B7 JUMP JUMPDEST SWAP2 DUP1 DUP4 SUB PUSH1 0x20 DUP3 ADD MSTORE DUP1 PUSH2 0x10DE CALLER SWAP5 DUP12 PUSH2 0x17B7 JUMP JUMPDEST SUB SWAP1 LOG4 EXTCODESIZE PUSH2 0x10EA JUMPI DUP9 DUP1 RETURN JUMPDEST DUP8 SWAP9 SWAP7 SWAP8 MLOAD SWAP5 DUP6 SWAP4 DUP5 SWAP4 PUSH4 0xBC197C81 PUSH1 0xE0 SHL SWAP9 DUP10 DUP7 MSTORE CALLER DUP13 DUP8 ADD MSTORE PUSH1 0x24 DUP7 ADD MSTORE PUSH1 0x44 DUP6 ADD PUSH1 0xA0 SWAP1 MSTORE PUSH1 0xA4 DUP6 ADD PUSH2 0x111F SWAP2 PUSH2 0x17B7 JUMP JUMPDEST DUP3 DUP6 DUP3 SUB ADD PUSH1 0x64 DUP7 ADD MSTORE PUSH2 0x1132 SWAP2 PUSH2 0x17B7 JUMP JUMPDEST SWAP1 DUP4 DUP3 SUB ADD PUSH1 0x84 DUP5 ADD MSTORE PUSH2 0x1145 SWAP2 PUSH2 0x171D JUMP JUMPDEST SUB DUP2 DUP7 GAS SWAP5 PUSH1 0x20 SWAP6 CALL DUP4 SWAP2 DUP2 PUSH2 0x11DE JUMPI JUMPDEST POP PUSH2 0x11BE JUMPI POP POP POP PUSH2 0x1166 PUSH2 0x1A62 JUMP JUMPDEST PUSH4 0x8C379A0 EQ PUSH2 0x118A JUMPI JUMPDEST SWAP1 MLOAD PUSH3 0x461BCD PUSH1 0xE5 SHL DUP2 MSTORE SWAP1 DUP2 SWAP1 PUSH2 0x353 SWAP1 DUP3 ADD PUSH2 0x1AED JUMP JUMPDEST PUSH2 0x1192 PUSH2 0x1A7D JUMP JUMPDEST DUP1 PUSH2 0x119D JUMPI POP PUSH2 0x1171 JUMP JUMPDEST PUSH2 0x353 SWAP1 PUSH1 0x20 SWAP4 MLOAD SWAP4 DUP5 SWAP4 PUSH3 0x461BCD PUSH1 0xE5 SHL DUP6 MSTORE DUP5 ADD MSTORE PUSH1 0x24 DUP4 ADD SWAP1 PUSH2 0x171D JUMP JUMPDEST SWAP2 SWAP4 SWAP2 PUSH1 0x1 PUSH1 0x1 PUSH1 0xE0 SHL SUB NOT AND SUB PUSH2 0x3AA JUMPI POP POP DUP2 DUP1 DUP1 DUP1 DUP1 DUP1 DUP1 DUP1 DUP9 DUP1 RETURN JUMPDEST PUSH2 0x11F7 SWAP2 SWAP3 POP PUSH1 0x20 RETURNDATASIZE DUP2 GT PUSH2 0x42F JUMPI PUSH2 0x420 DUP2 DUP4 PUSH2 0x161D JUMP JUMPDEST SWAP1 DUP7 PUSH2 0x1156 JUMP JUMPDEST DUP7 MLOAD PUSH3 0x461BCD PUSH1 0xE5 SHL DUP2 MSTORE PUSH1 0x20 DUP2 DUP5 ADD MSTORE PUSH1 0x28 PUSH1 0x24 DUP3 ADD MSTORE PUSH32 0x455243313135353A2069647320616E6420616D6F756E7473206C656E67746820 PUSH1 0x44 DUP3 ADD MSTORE PUSH8 0xDAD2E6DAC2E8C6D PUSH1 0xC3 SHL PUSH1 0x64 DUP3 ADD MSTORE PUSH1 0x84 SWAP1 REVERT JUMPDEST POP DUP4 DUP7 MSTORE PUSH1 0x1 PUSH1 0x20 SWAP1 DUP2 MSTORE DUP8 DUP8 KECCAK256 CALLER DUP9 MSTORE SWAP1 MSTORE DUP7 DUP7 KECCAK256 SLOAD PUSH1 0xFF AND PUSH2 0xFE8 JUMP JUMPDEST POP POP CALLVALUE PUSH2 0x700 JUMPI PUSH1 0x20 SWAP1 DUP2 PUSH1 0x3 NOT CALLDATASIZE ADD SLT PUSH2 0x1AD JUMPI DUP1 MLOAD DUP4 DUP2 SWAP5 SWAP1 PUSH1 0x2 SLOAD PUSH2 0x1298 DUP2 PUSH2 0x16E5 JUMP JUMPDEST SWAP2 DUP3 DUP6 MSTORE PUSH1 0x1 SWAP2 DUP8 DUP4 DUP3 AND SWAP2 DUP3 PUSH0 EQ PUSH2 0x1333 JUMPI POP POP PUSH1 0x1 EQ PUSH2 0x12D7 JUMPI JUMPDEST POP POP POP PUSH2 0xEDD SWAP3 SWAP2 PUSH2 0x12C8 SWAP2 SUB DUP6 PUSH2 0x161D JUMP JUMPDEST MLOAD SWAP3 DUP3 DUP5 SWAP4 DUP5 MSTORE DUP4 ADD SWAP1 PUSH2 0x171D JUMP JUMPDEST SWAP2 SWAP1 DUP7 SWAP4 POP PUSH1 0x2 DUP4 MSTORE PUSH32 0x405787FA12A823E0F2B7631CC41B3BA8828B3321CA811111FA75CD3AA3BB5ACE JUMPDEST DUP3 DUP5 LT PUSH2 0x131B JUMPI POP POP POP DUP3 ADD ADD DUP2 PUSH2 0x12C8 PUSH2 0xEDD PUSH2 0x12B5 JUMP JUMPDEST DUP1 SLOAD DUP5 DUP11 ADD DUP7 ADD MSTORE DUP9 SWAP6 POP DUP8 SWAP5 SWAP1 SWAP4 ADD SWAP3 DUP2 ADD PUSH2 0x1302 JUMP JUMPDEST PUSH1 0xFF NOT AND DUP8 DUP3 ADD MSTORE SWAP4 ISZERO ISZERO PUSH1 0x5 SHL DUP7 ADD SWAP1 SWAP4 ADD SWAP4 POP DUP5 SWAP3 POP PUSH2 0x12C8 SWAP2 POP PUSH2 0xEDD SWAP1 POP PUSH2 0x12B5 JUMP JUMPDEST POP CALLVALUE PUSH2 0x1AD JUMPI PUSH1 0x20 SWAP1 DUP2 PUSH1 0x3 NOT CALLDATASIZE ADD SLT PUSH2 0x6AE JUMPI DUP1 CALLDATALOAD SWAP1 PUSH1 0x1 PUSH1 0x1 PUSH1 0x40 SHL SUB DUP3 GT PUSH2 0x6AA JUMPI PUSH2 0x1390 DUP4 SWAP2 PUSH2 0x13A2 SWAP4 CALLDATASIZE SWAP2 ADD PUSH2 0x163E JUMP JUMPDEST DUP2 DUP6 MLOAD SWAP4 DUP3 DUP6 DUP1 SWAP5 MLOAD SWAP4 DUP5 SWAP3 ADD PUSH2 0x16C4 JUMP JUMPDEST DUP2 ADD PUSH1 0x5 DUP2 MSTORE SUB ADD SWAP1 KECCAK256 DUP3 MLOAD DUP5 DUP2 SWAP6 SWAP1 DUP4 SLOAD PUSH2 0x13BD DUP2 PUSH2 0x16E5 JUMP JUMPDEST SWAP2 DUP3 DUP6 MSTORE PUSH1 0x1 SWAP2 DUP8 DUP4 DUP3 AND SWAP2 DUP3 PUSH0 EQ PUSH2 0x1445 JUMPI POP POP PUSH1 0x1 EQ PUSH2 0x1409 JUMPI JUMPDEST POP POP POP PUSH1 0x3 SWAP3 SWAP2 PUSH2 0x13EC SWAP2 SUB DUP7 PUSH2 0x161D JUMP JUMPDEST ADD SLOAD PUSH2 0x1401 DUP4 MLOAD SWAP5 DUP5 DUP7 SWAP6 DUP7 MSTORE DUP6 ADD SWAP1 PUSH2 0x171D JUMP JUMPDEST SWAP2 DUP4 ADD MSTORE SUB SWAP1 RETURN JUMPDEST SWAP2 SWAP1 DUP7 SWAP4 POP DUP6 DUP4 MSTORE DUP4 DUP4 KECCAK256 JUMPDEST DUP3 DUP5 LT PUSH2 0x142D JUMPI POP POP POP DUP3 ADD ADD DUP2 PUSH2 0x13EC PUSH1 0x3 PUSH2 0x13DA JUMP JUMPDEST DUP1 SLOAD DUP5 DUP12 ADD DUP7 ADD MSTORE DUP10 SWAP6 POP DUP8 SWAP5 SWAP1 SWAP4 ADD SWAP3 DUP2 ADD PUSH2 0x1415 JUMP JUMPDEST PUSH1 0xFF NOT AND DUP8 DUP3 ADD MSTORE SWAP4 ISZERO ISZERO PUSH1 0x5 SHL DUP7 ADD SWAP1 SWAP4 ADD SWAP4 POP DUP5 SWAP3 POP PUSH2 0x13EC SWAP2 POP PUSH1 0x3 SWAP1 POP PUSH2 0x13DA JUMP JUMPDEST POP SWAP1 CALLVALUE PUSH2 0x1AD JUMPI PUSH1 0x20 PUSH2 0x149E SWAP2 DUP2 SWAP4 PUSH2 0x1483 CALLDATASIZE PUSH2 0x1693 JUMP JUMPDEST SWAP6 SWAP1 SWAP3 PUSH2 0x148E PUSH2 0x17EA JUMP JUMPDEST MLOAD SWAP5 DUP4 DUP7 DUP1 SWAP6 MLOAD SWAP4 DUP5 SWAP3 ADD PUSH2 0x16C4 JUMP JUMPDEST DUP3 ADD SWAP1 DUP2 MSTORE SUB ADD SWAP1 KECCAK256 SSTORE DUP1 RETURN JUMPDEST POP CALLVALUE PUSH2 0x1AD JUMPI PUSH1 0x60 CALLDATASIZE PUSH1 0x3 NOT ADD SLT PUSH2 0x1AD JUMPI DUP1 CALLDATALOAD PUSH1 0x1 PUSH1 0x1 PUSH1 0x40 SHL SUB DUP2 GT PUSH2 0x6AE JUMPI PUSH1 0x20 PUSH2 0x14E1 PUSH1 0x2 SWAP4 PUSH2 0x14E9 SWAP4 CALLDATASIZE SWAP2 ADD PUSH2 0x163E JUMP JUMPDEST PUSH2 0x48B PUSH2 0x17EA JUMP JUMPDEST DUP2 ADD PUSH1 0x5 DUP2 MSTORE SUB ADD SWAP1 KECCAK256 ADD PUSH1 0x24 CALLDATALOAD DUP4 MSTORE PUSH1 0x20 MSTORE PUSH1 0x44 CALLDATALOAD SWAP1 DUP3 KECCAK256 SSTORE DUP1 RETURN JUMPDEST POP CALLVALUE PUSH2 0x1AD JUMPI PUSH1 0x20 CALLDATASIZE PUSH1 0x3 NOT ADD SLT PUSH2 0x1AD JUMPI CALLDATALOAD SWAP1 PUSH4 0xFFFFFFFF PUSH1 0xE0 SHL DUP3 AND DUP1 SWAP3 SUB PUSH2 0x1AD JUMPI PUSH1 0x20 SWAP3 POP PUSH4 0x6CDB3D13 PUSH1 0xE1 SHL DUP3 EQ SWAP2 DUP3 ISZERO PUSH2 0x1562 JUMPI JUMPDEST DUP3 ISZERO PUSH2 0x1551 JUMPI JUMPDEST POP MLOAD SWAP1 ISZERO ISZERO DUP2 MSTORE RETURN JUMPDEST PUSH4 0x1FFC9A7 PUSH1 0xE0 SHL EQ SWAP2 POP PUSH0 PUSH2 0x1548 JUMP JUMPDEST PUSH4 0x3A24D07 PUSH1 0xE2 SHL DUP2 EQ SWAP3 POP PUSH2 0x1541 JUMP JUMPDEST POP POP CALLVALUE PUSH2 0x700 JUMPI DUP1 PUSH1 0x3 NOT CALLDATASIZE ADD SLT PUSH2 0x700 JUMPI PUSH1 0x20 SWAP1 PUSH2 0x159C PUSH2 0x1593 PUSH2 0x15A3 JUMP JUMPDEST PUSH1 0x24 CALLDATALOAD SWAP1 PUSH2 0x1842 JUMP JUMPDEST SWAP1 MLOAD SWAP1 DUP2 MSTORE RETURN JUMPDEST PUSH1 0x4 CALLDATALOAD SWAP1 PUSH1 0x1 PUSH1 0x1 PUSH1 0xA0 SHL SUB DUP3 AND DUP3 SUB PUSH2 0x15B9 JUMPI JUMP JUMPDEST PUSH0 DUP1 REVERT JUMPDEST PUSH1 0x24 CALLDATALOAD SWAP1 PUSH1 0x1 PUSH1 0x1 PUSH1 0xA0 SHL SUB DUP3 AND DUP3 SUB PUSH2 0x15B9 JUMPI JUMP JUMPDEST PUSH1 0x20 DUP2 ADD SWAP1 DUP2 LT PUSH1 0x1 PUSH1 0x1 PUSH1 0x40 SHL SUB DUP3 GT OR PUSH2 0x15EE JUMPI PUSH1 0x40 MSTORE JUMP JUMPDEST PUSH4 0x4E487B71 PUSH1 0xE0 SHL PUSH0 MSTORE PUSH1 0x41 PUSH1 0x4 MSTORE PUSH1 0x24 PUSH0 REVERT JUMPDEST PUSH1 0x40 DUP2 ADD SWAP1 DUP2 LT PUSH1 0x1 PUSH1 0x1 PUSH1 0x40 SHL SUB DUP3 GT OR PUSH2 0x15EE JUMPI PUSH1 0x40 MSTORE JUMP JUMPDEST SWAP1 PUSH1 0x1F DUP1 NOT SWAP2 ADD AND DUP2 ADD SWAP1 DUP2 LT PUSH1 0x1 PUSH1 0x1 PUSH1 0x40 SHL SUB DUP3 GT OR PUSH2 0x15EE JUMPI PUSH1 0x40 MSTORE JUMP JUMPDEST DUP2 PUSH1 0x1F DUP3 ADD SLT ISZERO PUSH2 0x15B9 JUMPI DUP1 CALLDATALOAD SWAP1 PUSH1 0x1 PUSH1 0x1 PUSH1 0x40 SHL SUB DUP3 GT PUSH2 0x15EE JUMPI PUSH1 0x40 MLOAD SWAP3 PUSH2 0x1672 PUSH1 0x1F DUP5 ADD PUSH1 0x1F NOT AND PUSH1 0x20 ADD DUP6 PUSH2 0x161D JUMP JUMPDEST DUP3 DUP5 MSTORE PUSH1 0x20 DUP4 DUP4 ADD ADD GT PUSH2 0x15B9 JUMPI DUP2 PUSH0 SWAP3 PUSH1 0x20 DUP1 SWAP4 ADD DUP4 DUP7 ADD CALLDATACOPY DUP4 ADD ADD MSTORE SWAP1 JUMP JUMPDEST PUSH1 0x40 PUSH1 0x3 NOT DUP3 ADD SLT PUSH2 0x15B9 JUMPI PUSH1 0x4 CALLDATALOAD SWAP1 PUSH1 0x1 PUSH1 0x1 PUSH1 0x40 SHL SUB DUP3 GT PUSH2 0x15B9 JUMPI PUSH2 0x16BD SWAP2 PUSH1 0x4 ADD PUSH2 0x163E JUMP JUMPDEST SWAP1 PUSH1 0x24 CALLDATALOAD SWAP1 JUMP JUMPDEST PUSH0 JUMPDEST DUP4 DUP2 LT PUSH2 0x16D5 JUMPI POP POP PUSH0 SWAP2 ADD MSTORE JUMP JUMPDEST DUP2 DUP2 ADD MLOAD DUP4 DUP3 ADD MSTORE PUSH1 0x20 ADD PUSH2 0x16C6 JUMP JUMPDEST SWAP1 PUSH1 0x1 DUP3 DUP2 SHR SWAP3 AND DUP1 ISZERO PUSH2 0x1713 JUMPI JUMPDEST PUSH1 0x20 DUP4 LT EQ PUSH2 0x16FF JUMPI JUMP JUMPDEST PUSH4 0x4E487B71 PUSH1 0xE0 SHL PUSH0 MSTORE PUSH1 0x22 PUSH1 0x4 MSTORE PUSH1 0x24 PUSH0 REVERT JUMPDEST SWAP2 PUSH1 0x7F AND SWAP2 PUSH2 0x16F4 JUMP JUMPDEST SWAP1 PUSH1 0x20 SWAP2 PUSH2 0x1736 DUP2 MLOAD DUP1 SWAP3 DUP2 DUP6 MSTORE DUP6 DUP1 DUP7 ADD SWAP2 ADD PUSH2 0x16C4 JUMP JUMPDEST PUSH1 0x1F ADD PUSH1 0x1F NOT AND ADD ADD SWAP1 JUMP JUMPDEST PUSH1 0x1 PUSH1 0x1 PUSH1 0x40 SHL SUB DUP2 GT PUSH2 0x15EE JUMPI PUSH1 0x5 SHL PUSH1 0x20 ADD SWAP1 JUMP JUMPDEST SWAP1 DUP1 PUSH1 0x1F DUP4 ADD SLT ISZERO PUSH2 0x15B9 JUMPI PUSH1 0x20 SWAP1 DUP3 CALLDATALOAD PUSH2 0x1773 DUP2 PUSH2 0x1742 JUMP JUMPDEST SWAP4 PUSH2 0x1781 PUSH1 0x40 MLOAD SWAP6 DUP7 PUSH2 0x161D JUMP JUMPDEST DUP2 DUP6 MSTORE DUP4 DUP1 DUP7 ADD SWAP3 PUSH1 0x5 SHL DUP3 ADD ADD SWAP3 DUP4 GT PUSH2 0x15B9 JUMPI DUP4 ADD SWAP1 JUMPDEST DUP3 DUP3 LT PUSH2 0x17A8 JUMPI POP POP POP POP SWAP1 JUMP JUMPDEST DUP2 CALLDATALOAD DUP2 MSTORE SWAP1 DUP4 ADD SWAP1 DUP4 ADD PUSH2 0x179A JUMP JUMPDEST SWAP1 DUP2 MLOAD DUP1 DUP3 MSTORE PUSH1 0x20 DUP1 DUP1 SWAP4 ADD SWAP4 ADD SWAP2 PUSH0 JUMPDEST DUP3 DUP2 LT PUSH2 0x17D6 JUMPI POP POP POP POP SWAP1 JUMP JUMPDEST DUP4 MLOAD DUP6 MSTORE SWAP4 DUP2 ADD SWAP4 SWAP3 DUP2 ADD SWAP3 PUSH1 0x1 ADD PUSH2 0x17C8 JUMP JUMPDEST PUSH1 0x3 SLOAD PUSH1 0x1 PUSH1 0x1 PUSH1 0xA0 SHL SUB AND CALLER SUB PUSH2 0x17FE JUMPI JUMP JUMPDEST PUSH1 0x64 PUSH1 0x40 MLOAD PUSH3 0x461BCD PUSH1 0xE5 SHL DUP2 MSTORE PUSH1 0x20 PUSH1 0x4 DUP3 ADD MSTORE PUSH1 0x20 PUSH1 0x24 DUP3 ADD MSTORE PUSH32 0x4F776E61626C653A2063616C6C6572206973206E6F7420746865206F776E6572 PUSH1 0x44 DUP3 ADD MSTORE REVERT JUMPDEST PUSH1 0x1 PUSH1 0x1 PUSH1 0xA0 SHL SUB AND SWAP1 DUP2 ISZERO PUSH2 0x186A JUMPI PUSH0 MSTORE PUSH0 PUSH1 0x20 MSTORE PUSH1 0x40 PUSH0 KECCAK256 SWAP1 PUSH0 MSTORE PUSH1 0x20 MSTORE PUSH1 0x40 PUSH0 KECCAK256 SLOAD SWAP1 JUMP JUMPDEST PUSH1 0x40 MLOAD PUSH3 0x461BCD PUSH1 0xE5 SHL DUP2 MSTORE PUSH1 0x20 PUSH1 0x4 DUP3 ADD MSTORE PUSH1 0x2A PUSH1 0x24 DUP3 ADD MSTORE PUSH32 0x455243313135353A2061646472657373207A65726F206973206E6F7420612076 PUSH1 0x44 DUP3 ADD MSTORE PUSH10 0x30B634B21037BBB732B9 PUSH1 0xB1 SHL PUSH1 0x64 DUP3 ADD MSTORE PUSH1 0x84 SWAP1 REVERT JUMPDEST PUSH0 NOT DUP2 EQ PUSH2 0x18D0 JUMPI PUSH1 0x1 ADD SWAP1 JUMP JUMPDEST PUSH4 0x4E487B71 PUSH1 0xE0 SHL PUSH0 MSTORE PUSH1 0x11 PUSH1 0x4 MSTORE PUSH1 0x24 PUSH0 REVERT JUMPDEST DUP1 MLOAD ISZERO PUSH2 0x18F1 JUMPI PUSH1 0x20 ADD SWAP1 JUMP JUMPDEST PUSH4 0x4E487B71 PUSH1 0xE0 SHL PUSH0 MSTORE PUSH1 0x32 PUSH1 0x4 MSTORE PUSH1 0x24 PUSH0 REVERT JUMPDEST DUP1 MLOAD DUP3 LT ISZERO PUSH2 0x18F1 JUMPI PUSH1 0x20 SWAP2 PUSH1 0x5 SHL ADD ADD SWAP1 JUMP JUMPDEST ISZERO PUSH2 0x1920 JUMPI JUMP JUMPDEST PUSH1 0x40 MLOAD PUSH3 0x461BCD PUSH1 0xE5 SHL DUP2 MSTORE PUSH1 0x20 PUSH1 0x4 DUP3 ADD MSTORE PUSH1 0x2E PUSH1 0x24 DUP3 ADD MSTORE PUSH32 0x455243313135353A2063616C6C6572206973206E6F7420746F6B656E206F776E PUSH1 0x44 DUP3 ADD MSTORE PUSH14 0x195C881BDC88185C1C1C9BDD9959 PUSH1 0x92 SHL PUSH1 0x64 DUP3 ADD MSTORE PUSH1 0x84 SWAP1 REVERT JUMPDEST ISZERO PUSH2 0x1983 JUMPI JUMP JUMPDEST PUSH1 0x40 MLOAD PUSH3 0x461BCD PUSH1 0xE5 SHL DUP2 MSTORE PUSH1 0x20 PUSH1 0x4 DUP3 ADD MSTORE PUSH1 0x25 PUSH1 0x24 DUP3 ADD MSTORE PUSH32 0x455243313135353A207472616E7366657220746F20746865207A65726F206164 PUSH1 0x44 DUP3 ADD MSTORE PUSH5 0x6472657373 PUSH1 0xD8 SHL PUSH1 0x64 DUP3 ADD MSTORE PUSH1 0x84 SWAP1 REVERT JUMPDEST ISZERO PUSH2 0x19DD JUMPI JUMP JUMPDEST PUSH1 0x40 MLOAD PUSH3 0x461BCD PUSH1 0xE5 SHL DUP2 MSTORE PUSH1 0x20 PUSH1 0x4 DUP3 ADD MSTORE PUSH1 0x2A PUSH1 0x24 DUP3 ADD MSTORE PUSH32 0x455243313135353A20696E73756666696369656E742062616C616E636520666F PUSH1 0x44 DUP3 ADD MSTORE PUSH10 0x39103A3930B739B332B9 PUSH1 0xB1 SHL PUSH1 0x64 DUP3 ADD MSTORE PUSH1 0x84 SWAP1 REVERT JUMPDEST SWAP2 SWAP1 DUP3 ADD DUP1 SWAP3 GT PUSH2 0x18D0 JUMPI JUMP JUMPDEST SWAP1 DUP2 PUSH1 0x20 SWAP2 SUB SLT PUSH2 0x15B9 JUMPI MLOAD PUSH1 0x1 PUSH1 0x1 PUSH1 0xE0 SHL SUB NOT DUP2 AND DUP2 SUB PUSH2 0x15B9 JUMPI SWAP1 JUMP JUMPDEST PUSH0 SWAP1 PUSH1 0x3 RETURNDATASIZE GT PUSH2 0x1A6E JUMPI JUMP JUMPDEST SWAP1 POP PUSH1 0x4 PUSH0 DUP1 RETURNDATACOPY PUSH0 MLOAD PUSH1 0xE0 SHR SWAP1 JUMP JUMPDEST PUSH0 PUSH1 0x44 RETURNDATASIZE LT PUSH2 0x1AD9 JUMPI PUSH1 0x40 MLOAD PUSH1 0x3 NOT SWAP2 RETURNDATASIZE DUP4 ADD PUSH1 0x4 DUP4 RETURNDATACOPY DUP2 MLOAD PUSH1 0x1 PUSH1 0x1 PUSH1 0x40 SHL SUB SWAP2 DUP3 DUP3 GT RETURNDATASIZE PUSH1 0x24 DUP5 ADD GT OR PUSH2 0x1ADC JUMPI DUP2 DUP5 ADD SWAP5 DUP6 MLOAD SWAP4 DUP5 GT PUSH2 0x1AE4 JUMPI RETURNDATASIZE DUP6 ADD ADD PUSH1 0x20 DUP5 DUP8 ADD ADD GT PUSH2 0x1ADC JUMPI POP PUSH2 0x1AD9 SWAP3 SWAP2 ADD PUSH1 0x20 ADD SWAP1 PUSH2 0x161D JUMP JUMPDEST SWAP1 JUMP JUMPDEST SWAP5 SWAP4 POP POP POP POP JUMP JUMPDEST POP SWAP5 SWAP4 POP POP POP POP JUMP JUMPDEST PUSH1 0x80 SWAP1 PUSH1 0x20 DUP2 MSTORE PUSH1 0x34 PUSH1 0x20 DUP3 ADD MSTORE PUSH32 0x455243313135353A207472616E7366657220746F206E6F6E2D45524331313535 PUSH1 0x40 DUP3 ADD MSTORE PUSH20 0x2932B1B2B4BB32B91034B6B83632B6B2B73A32B9 PUSH1 0x61 SHL PUSH1 0x60 DUP3 ADD MSTORE ADD SWAP1 JUMP JUMPDEST PUSH1 0x40 MLOAD PUSH2 0x1B4E DUP2 PUSH2 0x1602 JUMP JUMPDEST PUSH1 0x1 DUP2 MSTORE PUSH1 0x20 CALLDATASIZE DUP2 DUP4 ADD CALLDATACOPY PUSH1 0x1 PUSH2 0x1B64 DUP3 PUSH2 0x18E4 JUMP JUMPDEST MSTORE SWAP1 JUMP JUMPDEST PUSH1 0x40 MLOAD SWAP1 PUSH2 0x1B75 DUP3 PUSH2 0x1602 JUMP JUMPDEST PUSH1 0x1 DUP3 MSTORE PUSH1 0x20 CALLDATASIZE DUP2 DUP5 ADD CALLDATACOPY PUSH2 0x1B64 DUP3 PUSH2 0x18E4 JUMP JUMPDEST DUP2 DUP2 LT PUSH2 0x1B94 JUMPI POP POP JUMP JUMPDEST PUSH0 DUP2 SSTORE PUSH1 0x1 ADD PUSH2 0x1B89 JUMP JUMPDEST ISZERO PUSH2 0x1BA6 JUMPI JUMP JUMPDEST PUSH1 0x40 MLOAD PUSH3 0x461BCD PUSH1 0xE5 SHL DUP2 MSTORE PUSH1 0x20 PUSH1 0x4 DUP3 ADD MSTORE PUSH1 0x15 PUSH1 0x24 DUP3 ADD MSTORE PUSH21 0x14D95C9A595CC8191BD95CC81B9BDD08195E1A5CDD PUSH1 0x5A SHL PUSH1 0x44 DUP3 ADD MSTORE PUSH1 0x64 SWAP1 REVERT INVALID LOG2 PUSH5 0x6970667358 0x22 SLT KECCAK256 EQ 0xB9 0xE1 JUMP 0x2C NOT 0x4C 0xD8 SELFDESTRUCT CALLCODE NUMBER SELFDESTRUCT DIV 0x24 CALLDATASIZE BALANCE COINBASE 0xBA MSIZE PUSH22 0x787D16B04A44D98E5DE796E364736F6C634300081500 CALLER "},"methodIdentifiers":{"balanceOf(address,uint256)":"00fdd58e","balanceOfBatch(address[],uint256[])":"4e1273f4","createSeries(string,string,uint256[],uint256)":"993d3c26","defaultDropRates(string)":"a09d4a03","isApprovedForAll(address,address)":"e985e9c5","mintPack(string)":"ec2ba0e1","openPack(string,uint256)":"d0b1f025","owner()":"8da5cb5b","renounceOwnership()":"715018a6","safeBatchTransferFrom(address,address,uint256[],uint256[],bytes)":"2eb2c2d6","safeTransferFrom(address,address,uint256,uint256,bytes)":"f242432a","series(string)":"0b29e516","setApprovalForAll(address,bool)":"a22cb465","setDefaultDropRate(string,uint256)":"0a761a05","supportsInterface(bytes4)":"01ffc9a7","transferOwnership(address)":"f2fde38b","updateDropRate(string,uint256,uint256)":"05685fa6","uri(uint256)":"0e89341c"}}}}}