{"contracts/Politician.sol":{"PoliticianCards":{"abi":[{"inputs":[{"internalType":"string","name":"uri","type":"string"}],"stateMutability":"nonpayable","type":"constructor"},{"anonymous":false,"inputs":[{"indexed":true,"internalType":"address","name":"account","type":"address"},{"indexed":true,"internalType":"address","name":"operator","type":"address"},{"indexed":false,"internalType":"bool","name":"approved","type":"bool"}],"name":"ApprovalForAll","type":"event"},{"anonymous":false,"inputs":[{"indexed":true,"internalType":"address","name":"previousOwner","type":"address"},{"indexed":true,"internalType":"address","name":"newOwner","type":"address"}],"name":"OwnershipTransferred","type":"event"},{"anonymous":false,"inputs":[{"indexed":true,"internalType":"address","name":"operator","type":"address"},{"indexed":true,"internalType":"address","name":"from","type":"address"},{"indexed":true,"internalType":"address","name":"to","type":"address"},{"indexed":false,"internalType":"uint256[]","name":"ids","type":"uint256[]"},{"indexed":false,"internalType":"uint256[]","name":"values","type":"uint256[]"}],"name":"TransferBatch","type":"event"},{"anonymous":false,"inputs":[{"indexed":true,"internalType":"address","name":"operator","type":"address"},{"indexed":true,"internalType":"address","name":"from","type":"address"},{"indexed":true,"internalType":"address","name":"to","type":"address"},{"indexed":false,"internalType":"uint256","name":"id","type":"uint256"},{"indexed":false,"internalType":"uint256","name":"value","type":"uint256"}],"name":"TransferSingle","type":"event"},{"anonymous":false,"inputs":[{"indexed":false,"internalType":"string","name":"value","type":"string"},{"indexed":true,"internalType":"uint256","name":"id","type":"uint256"}],"name":"URI","type":"event"},{"inputs":[{"internalType":"address","name":"account","type":"address"},{"internalType":"uint256","name":"id","type":"uint256"}],"name":"balanceOf","outputs":[{"internalType":"uint256","name":"","type":"uint256"}],"stateMutability":"view","type":"function"},{"inputs":[{"internalType":"address[]","name":"accounts","type":"address[]"},{"internalType":"uint256[]","name":"ids","type":"uint256[]"}],"name":"balanceOfBatch","outputs":[{"internalType":"uint256[]","name":"","type":"uint256[]"}],"stateMutability":"view","type":"function"},{"inputs":[{"internalType":"string","name":"_set","type":"string"},{"internalType":"string","name":"_name","type":"string"},{"internalType":"uint256","name":"_ageAtBooking","type":"uint256"},{"internalType":"string","name":"_DOB","type":"string"},{"internalType":"uint256","name":"_weightAtBooking","type":"uint256"},{"internalType":"uint256","name":"_height","type":"uint256"},{"internalType":"string","name":"_addressAtTimeOfBooking","type":"string"},{"internalType":"string","name":"_highestHeldPoliticalStation","type":"string"},{"internalType":"string","name":"_bookingLocation","type":"string"},{"internalType":"uint256","name":"_bailOrBond","type":"uint256"},{"internalType":"string[]","name":"_charges","type":"string[]"},{"internalType":"uint256","name":"_copies","type":"uint256"},{"internalType":"uint256","name":"_rarity","type":"uint256"}],"name":"createPolitician","outputs":[],"stateMutability":"nonpayable","type":"function"},{"inputs":[{"internalType":"string","name":"_setName","type":"string"}],"name":"createSet","outputs":[],"stateMutability":"nonpayable","type":"function"},{"inputs":[{"internalType":"address","name":"account","type":"address"},{"internalType":"address","name":"operator","type":"address"}],"name":"isApprovedForAll","outputs":[{"internalType":"bool","name":"","type":"bool"}],"stateMutability":"view","type":"function"},{"inputs":[{"internalType":"uint256","name":"tokenId","type":"uint256"},{"internalType":"address","name":"to","type":"address"}],"name":"mintPolitician","outputs":[],"stateMutability":"nonpayable","type":"function"},{"inputs":[],"name":"owner","outputs":[{"internalType":"address","name":"","type":"address"}],"stateMutability":"view","type":"function"},{"inputs":[{"internalType":"uint256","name":"","type":"uint256"}],"name":"politicians","outputs":[{"internalType":"string","name":"set","type":"string"},{"internalType":"string","name":"name","type":"string"},{"internalType":"uint256","name":"ageAtBooking","type":"uint256"},{"internalType":"string","name":"DOB","type":"string"},{"internalType":"uint256","name":"weightAtBooking","type":"uint256"},{"internalType":"uint256","name":"height","type":"uint256"},{"internalType":"string","name":"addressAtTimeOfBooking","type":"string"},{"internalType":"string","name":"highestHeldPoliticalStation","type":"string"},{"internalType":"string","name":"bookingLocation","type":"string"},{"internalType":"uint256","name":"bailOrBond","type":"uint256"},{"internalType":"uint256","name":"copies","type":"uint256"},{"internalType":"uint256","name":"rarity","type":"uint256"}],"stateMutability":"view","type":"function"},{"inputs":[{"internalType":"string","name":"","type":"string"},{"internalType":"uint256","name":"","type":"uint256"}],"name":"politiciansBySet","outputs":[{"internalType":"string","name":"set","type":"string"},{"internalType":"string","name":"name","type":"string"},{"internalType":"uint256","name":"ageAtBooking","type":"uint256"},{"internalType":"string","name":"DOB","type":"string"},{"internalType":"uint256","name":"weightAtBooking","type":"uint256"},{"internalType":"uint256","name":"height","type":"uint256"},{"internalType":"string","name":"addressAtTimeOfBooking","type":"string"},{"internalType":"string","name":"highestHeldPoliticalStation","type":"string"},{"internalType":"string","name":"bookingLocation","type":"string"},{"internalType":"uint256","name":"bailOrBond","type":"uint256"},{"internalType":"uint256","name":"copies","type":"uint256"},{"internalType":"uint256","name":"rarity","type":"uint256"}],"stateMutability":"view","type":"function"},{"inputs":[],"name":"renounceOwnership","outputs":[],"stateMutability":"nonpayable","type":"function"},{"inputs":[{"internalType":"address","name":"from","type":"address"},{"internalType":"address","name":"to","type":"address"},{"internalType":"uint256[]","name":"ids","type":"uint256[]"},{"internalType":"uint256[]","name":"amounts","type":"uint256[]"},{"internalType":"bytes","name":"data","type":"bytes"}],"name":"safeBatchTransferFrom","outputs":[],"stateMutability":"nonpayable","type":"function"},{"inputs":[{"internalType":"address","name":"from","type":"address"},{"internalType":"address","name":"to","type":"address"},{"internalType":"uint256","name":"id","type":"uint256"},{"internalType":"uint256","name":"amount","type":"uint256"},{"internalType":"bytes","name":"data","type":"bytes"}],"name":"safeTransferFrom","outputs":[],"stateMutability":"nonpayable","type":"function"},{"inputs":[{"internalType":"address","name":"operator","type":"address"},{"internalType":"bool","name":"approved","type":"bool"}],"name":"setApprovalForAll","outputs":[],"stateMutability":"nonpayable","type":"function"},{"inputs":[{"internalType":"bytes4","name":"interfaceId","type":"bytes4"}],"name":"supportsInterface","outputs":[{"internalType":"bool","name":"","type":"bool"}],"stateMutability":"view","type":"function"},{"inputs":[{"internalType":"address","name":"newOwner","type":"address"}],"name":"transferOwnership","outputs":[],"stateMutability":"nonpayable","type":"function"},{"inputs":[{"internalType":"uint256","name":"","type":"uint256"}],"name":"uri","outputs":[{"internalType":"string","name":"","type":"string"}],"stateMutability":"view","type":"function"}],"evm":{"bytecode":{"linkReferences":{},"object":"6080604052346200024c57620024a5803803806200001d8162000250565b928339810190602080828403126200024c5781516001600160401b03928382116200024c570192601f908082860112156200024c5784518481116200022357601f1995620000718285018816860162000250565b928284528583830101116200024c5784905f5b838110620002375750505f918301015280519384116200022357600254926001938481811c9116801562000218575b828210146200020457838111620001bb575b5080928511600114620001545750839450908392915f9462000148575b50501b915f199060031b1c1916176002555b60038054336001600160a01b03198216811790925560405191906001600160a01b03167f8be0079c531659141344cd1fd0a4f28419497f9722a3daafe3b4186f6b6457e05f80a361222e9081620002778239f35b015192505f80620000e2565b92948490811660025f52845f20945f905b88838310620001a0575050501062000187575b505050811b01600255620000f4565b01515f1960f88460031b161c191690555f808062000178565b85870151885590960195948501948793509081019062000165565b60025f52815f208480880160051c820192848910620001fa575b0160051c019085905b828110620001ee575050620000c5565b5f8155018590620001de565b92508192620001d5565b634e487b7160e01b5f52602260045260245ffd5b90607f1690620000b3565b634e487b7160e01b5f52604160045260245ffd5b81810183015185820184015286920162000084565b5f80fd5b6040519190601f01601f191682016001600160401b03811183821017620002235760405256fe60406080815260049081361015610014575f80fd5b5f91823560e01c8062fdd58e1461135457806301ffc9a7146112e75780630e89341c146111fe578063158e709014610eb25780632eb2c2d614610b9c5780634e1273f414610a0c578063715018a6146109af57806385b476ff146109385780638da5cb5b1461090f578063a22cb46514610832578063bf4a8c0c14610582578063c53c4fec14610533578063e396c13f14610495578063e985e9c514610443578063f242432a1461019b5763f2fde38b146100cd575f80fd5b34610197576020366003190112610197576100e6611384565b906100ef6116e5565b6001600160a01b03918216928315610145575050600354826bffffffffffffffffffffffff60a01b821617600355167f8be0079c531659141344cd1fd0a4f28419497f9722a3daafe3b4186f6b6457e08380a380f35b906020608492519162461bcd60e51b8352820152602660248201527f4f776e61626c653a206e6577206f776e657220697320746865207a65726f206160448201526564647265737360d01b6064820152fd5b8280fd5b50346101975760a0366003190112610197576101b5611384565b916101be61139e565b9260443590606435906084356001600160401b03811161043f576101e590369087016114c0565b926001600160a01b03918216913383148015610420575b610205906117f3565b871691610213831515611856565b61021c82611a1c565b5061022684611a1c565b50818952602097898952868a20828b52895284878b2054610249828210156118b0565b848c528b8b52888c20848d528b5203878b2055828a52898952868a20848b528952868a2061027886825461190f565b905583828851858152878c8201527fc3d58168c5ae7397731d063d5bbf3d657854427343f4c083240f7aacaa2d0f628a3392a43b6102b4578880f35b918697989596949391868a946102fd8a519788968795869463f23a6e6160e01b9c8d8752339087015260248601526044850152606484015260a0608484015260a48301906113d5565b03925af18391816103f1575b506103725750505061031961193c565b6308c379a014610341575b5162461bcd60e51b81529150819061033d9082016119c7565b0390fd5b610349611957565b806103545750610324565b61033d915193849362461bcd60e51b855284015260248301906113d5565b9194506001600160e01b0319909116036103945750505f808080808080808880f35b5162461bcd60e51b81529150819061033d90820160809060208152602860208201527f455243313135353a204552433131353552656365697665722072656a656374656040820152676420746f6b656e7360c01b60608201520190565b610412919250873d8911610419575b61040a818361142a565b81019061191c565b905f610309565b503d610400565b5082895260016020908152868a20338b5290528589205460ff166101fc565b8780fd5b50503461049157806003193601126104915760ff81602093610463611384565b61046b61139e565b6001600160a01b0391821683526001875283832091168252855220549151911615158152f35b5080fd5b509134610530576020366003190112610530578161052c9184358152600560205220916104c1836115ad565b926104ce600182016115ad565b946002820154906104e1600384016115ad565b9083015460058401546104f6600686016115ad565b90610503600787016115ad565b92610510600888016115ad565b94600988015496600c600b8a015499015499519c8d9c8d61164e565b0390f35b80fd5b5090346101975760203660031901126101975781356001600160401b03811161057e5761057b92610566913691016114c0565b9061056f6116e5565b516020825192016113b4565b80f35b8380fd5b509134610530576101a0366003190112610530576001600160401b03918335838111610197576105b590369086016114c0565b93602493843581811161082e576105cf90369084016114c0565b9260643582811161082a576105e790369085016114c0565b9660c435838111610826576105ff90369086016114c0565b9160e43584811161043f5761061790369087016114c0565b93610104358181116108225761063090369088016114c0565b610144359582871161081e573660238801121561081e5786880135926106558461144b565b936106628651958661142a565b8085526020988d8a87019260051b8201019236841161081a578e8201925b8484106107ef5750505050506106946116e5565b8351958551968881818901996106ab81838d6113b4565b81018c81520301902054156107b85761074998999a9b9c85519b6106ce8d6113fa565b878d52898d0152604435868d015260608c015260843560808c015260a43560a08c015260c08b015260e08a015261010089015261012435610120890152610140880152610164356101608801526101843561018088015260065488526005845261073a87828a20611a67565b519384928392519283916113b4565b810184815203019020805490600160401b8210156107a5579061077191600182018155611548565b91909161079457509061078391611a67565b61078e6006546117bd565b60065580f35b634e487b7160e01b84528390528383fd5b5050634e487b7160e01b83526041905250fd5b845162461bcd60e51b8152808a018990526012818e01527114d95d08191bd95cc81b9bdd08195e1a5cdd60721b6044820152606490fd5b81843511610816578f8c9161080b8392369088358801016114c0565b815201930192610680565b8e80fd5b8d80fd5b8980fd5b8880fd5b8680fd5b8580fd5b8480fd5b50903461019757806003193601126101975761084c611384565b906024359182151580930361082e576001600160a01b0316923384146108bb5750338452600160205280842083855260205280842060ff1981541660ff8416179055519081527f17307eab39ab6107e8899845ad3d59bd9653f200f220920489ca2b5937696c3160203392a380f35b6020608492519162461bcd60e51b8352820152602960248201527f455243313135353a2073657474696e6720617070726f76616c20737461747573604482015268103337b91039b2b63360b91b6064820152fd5b50503461049157816003193601126104915760035490516001600160a01b039091168152602090f35b50913461053057816003193601126105305782356001600160401b0381116104915761096790369085016114c0565b90610983602060243593818651938285809451938492016113b4565b810187815203019020908154831015610530575061052c916109a491611548565b50916104c1836115ad565b83346105305780600319360112610530576109c86116e5565b600380546001600160a01b0319811690915581906001600160a01b03167f8be0079c531659141344cd1fd0a4f28419497f9722a3daafe3b4186f6b6457e08280a380f35b503461019757816003193601126101975780356001600160401b0380821161082e573660238301121561082e578183013590610a478261144b565b92610a548651948561142a565b82845260209260248486019160051b8301019136831161082257602401905b828210610b7d5750505060243590811161082a57610a949036908501611462565b928251845103610b2a5750815194610aab8661144b565b95610ab88651978861142a565b808752610ac7601f199161144b565b0136838801375b8251811015610b1857610b1390610b036001600160a01b03610af083876117df565b5116610afc83886117df565b519061173d565b610b0d82896117df565b526117bd565b610ace565b84518281528061052c81850189611515565b60849185519162461bcd60e51b8352820152602960248201527f455243313135353a206163636f756e747320616e6420696473206c656e677468604482015268040dad2e6dac2e8c6d60bb1b6064820152fd5b81356001600160a01b038116810361081e578152908401908401610a73565b508234610530576003199260a03685011261049157610bb9611384565b91610bc261139e565b946001600160401b039360443585811161057e57610be39036908801611462565b60643586811161082e57610bfa9036908901611462565b9560843590811161082e57610c1290369089016114c0565b966001600160a01b03928316923384148015610e93575b610c32906117f3565b8251885103610e3f57891693610c49851515611856565b855b8351811015610ccd5780610c62610cc892866117df565b51610c6d828c6117df565b5190808a526020908a82528b8b20898c528252828c8c8b8282205492610c95858510156118b0565b858352828752822091528452038c8c20558a528981528a8a2090898b5252610cc18a8a2091825461190f565b90556117bd565b610c4b565b50949897909692959784878a518b81527f4a39dc06d4c0dbc64b70af90fd698a233a518aa5d07e595d983b8c0526c8f7fb610d0a8d830188611515565b91808303602082015280610d1f33948b611515565b0390a43b610d2b578880f35b8798969751948593849363bc197c8160e01b98898652338c87015260248601526044850160a0905260a48501610d6091611515565b82858203016064860152610d7391611515565b90838203016084840152610d86916113d5565b0381865a94602095f1839181610e1f575b50610dff57505050610da761193c565b6308c379a014610dcb575b905162461bcd60e51b815290819061033d9082016119c7565b610dd3611957565b80610dde5750610db2565b61033d906020935193849362461bcd60e51b855284015260248301906113d5565b9193916001600160e01b0319160361039457505081808080808080808880f35b610e3891925060203d81116104195761040a818361142a565b9086610d97565b865162461bcd60e51b8152602081840152602860248201527f455243313135353a2069647320616e6420616d6f756e7473206c656e677468206044820152670dad2e6dac2e8c6d60c31b6064820152608490fd5b508386526001602090815287872033885290528686205460ff16610c29565b5034610197578160031936011261019757803591610ece61139e565b92610ed76116e5565b6006548110156111bb57808552602093600585528286208351610ef9816113fa565b610f02826115ad565b81526001610f118184016115ad565b88830152600283015486830152610f2a600384016115ad565b6060830152868301546080830152600583015460a0830152610f4e600684016115ad565b60c0830152610f5f600784016115ad565b60e0830152610f70600884016115ad565b6101008301526009830154610120830152600a8301908154610f918161144b565b92610f9e8951948561142a565b8184528b52898b208b908b8086015b84841061119e57505050505050906101809291610140820152600c600b83015492836101608401520154928391015281810291818304149015171561118b578351928684018481106001600160401b038211176111785785528784526001600160a01b03831692831561112b5761102382611a1c565b5061102d83611a1c565b50818952888852858920848a52885285892061104a84825461190f565b905583898751848152858b8201527fc3d58168c5ae7397731d063d5bbf3d657854427343f4c083240f7aacaa2d0f62893392a43b611086578780f35b926110cf9287989596979286899689519687958694859363f23a6e6160e01b9b8c865233908601528560248601526044850152606484015260a0608484015260a48301906113d5565b03925af183918161110c575b506110eb5750505061031961193c565b9194506001600160e01b0319909116036103945750505f8080808080808780f35b611124919250873d89116104195761040a818361142a565b905f6110db565b855162461bcd60e51b8152808801899052602160248201527f455243313135353a206d696e7420746f20746865207a65726f206164647265736044820152607360f81b6064820152608490fd5b634e487b7160e01b895260418752602489fd5b634e487b7160e01b875260118552602487fd5b859182916111ab856115ad565b8152019201920191908c90610fad565b815162461bcd60e51b8152602081850152601760248201527f546f6b656e20494420646f6573206e6f742065786973740000000000000000006044820152606490fd5b50503461049157602090816003193601126101975780518381949060025461122581611575565b918285526001918783821691825f146112c0575050600114611264575b50505061052c929161125591038561142a565b519282849384528301906113d5565b9190869350600283527f405787fa12a823e0f2b7631cc41b3ba8828b3321ca811111fa75cd3aa3bb5ace5b8284106112a8575050508201018161125561052c611242565b8054848a01860152889550879490930192810161128f565b60ff19168782015293151560051b86019093019350849250611255915061052c9050611242565b503461019757602036600319011261019757359063ffffffff60e01b82168092036101975760209250636cdb3d1360e11b8214918215611343575b8215611332575b50519015158152f35b6301ffc9a760e01b1491505f611329565b6303a24d0760e21b81149250611322565b50503461049157806003193601126104915760209061137d611374611384565b6024359061173d565b9051908152f35b600435906001600160a01b038216820361139a57565b5f80fd5b602435906001600160a01b038216820361139a57565b5f5b8381106113c55750505f910152565b81810151838201526020016113b6565b906020916113ee815180928185528580860191016113b4565b601f01601f1916010190565b6101a081019081106001600160401b0382111761141657604052565b634e487b7160e01b5f52604160045260245ffd5b90601f801991011681019081106001600160401b0382111761141657604052565b6001600160401b0381116114165760051b60200190565b9080601f8301121561139a57602090823561147c8161144b565b9361148a604051958661142a565b818552838086019260051b82010192831161139a578301905b8282106114b1575050505090565b813581529083019083016114a3565b81601f8201121561139a578035906001600160401b03821161141657604051926114f4601f8401601f19166020018561142a565b8284526020838301011161139a57815f926020809301838601378301015290565b9081518082526020808093019301915f5b828110611534575050505090565b835185529381019392810192600101611526565b8054821015611561575f52600d60205f20910201905f90565b634e487b7160e01b5f52603260045260245ffd5b90600182811c921680156115a3575b602083101461158f57565b634e487b7160e01b5f52602260045260245ffd5b91607f1691611584565b9060405191825f82546115bf81611575565b9081845260209460019182811690815f1461162c57506001146115ee575b5050506115ec9250038361142a565b565b5f90815285812095935091905b8183106116145750506115ec93508201015f80806115dd565b855488840185015294850194879450918301916115fb565b925050506115ec94925060ff191682840152151560051b8201015f80806115dd565b989561169f8a6101609c9f9e9d9a966116b796604061168f6116c59b986116816116d49f996101808089528801906113d5565b9086820360208801526113d5565b9301528c820360608e01526113d5565b9260808b015260a08a015288820360c08a01526113d5565b9086820360e08801526113d5565b908482036101008601526113d5565b956101208301526101408201520152565b6003546001600160a01b031633036116f957565b606460405162461bcd60e51b815260206004820152602060248201527f4f776e61626c653a2063616c6c6572206973206e6f7420746865206f776e65726044820152fd5b6001600160a01b0316908115611765575f525f60205260405f20905f5260205260405f205490565b60405162461bcd60e51b815260206004820152602a60248201527f455243313135353a2061646472657373207a65726f206973206e6f742061207660448201526930b634b21037bbb732b960b11b6064820152608490fd5b5f1981146117cb5760010190565b634e487b7160e01b5f52601160045260245ffd5b80518210156115615760209160051b010190565b156117fa57565b60405162461bcd60e51b815260206004820152602e60248201527f455243313135353a2063616c6c6572206973206e6f7420746f6b656e206f776e60448201526d195c881bdc88185c1c1c9bdd995960921b6064820152608490fd5b1561185d57565b60405162461bcd60e51b815260206004820152602560248201527f455243313135353a207472616e7366657220746f20746865207a65726f206164604482015264647265737360d81b6064820152608490fd5b156118b757565b60405162461bcd60e51b815260206004820152602a60248201527f455243313135353a20696e73756666696369656e742062616c616e636520666f60448201526939103a3930b739b332b960b11b6064820152608490fd5b919082018092116117cb57565b9081602091031261139a57516001600160e01b03198116810361139a5790565b5f9060033d1161194857565b905060045f803e5f5160e01c90565b5f60443d106119b357604051600319913d83016004833e81516001600160401b03918282113d6024840111176119b6578184019485519384116119be573d850101602084870101116119b657506119b39291016020019061142a565b90565b949350505050565b50949350505050565b60809060208152603460208201527f455243313135353a207472616e7366657220746f206e6f6e2d455243313135356040820152732932b1b2b4bb32b91034b6b83632b6b2b73a32b960611b60608201520190565b60405190604082018281106001600160401b038211176114165760405260018252602082016020368237825115611561575290565b818110611a5c575050565b5f8155600101611a51565b90805180516001600160401b039081811161141657611a868554611575565b92601f938481116121ca575b5060209084831160011461216757611ac192915f9183611d65575b50508160011b915f199060031b1c19161790565b84555b600190818501602085015180519083821161141657611ae38354611575565b868111612139575b506020908683116001146120db57611b1992915f9183611d655750508160011b915f199060031b1c19161790565b90555b604084015160028601556003808601606086015180519084821161141657611b448354611575565b8781116120a3575b5060209087831160011461204657611b7a92915f9183611d655750508160011b915f199060031b1c19161790565b90555b60049360808601518588015560059260a0870151848901556006880160c0880151805190838211611e8e57611bb28354611575565b85811161201a575b50602090858311600114611fbd57611be892915f9183611d655750508160011b915f199060031b1c19161790565b90555b6007880160e0880151805190838211611e8e57611c088354611575565b858111611f91575b50602090858311600114611f3457611c3e92915f9183611d655750508160011b915f199060031b1c19161790565b90555b60088801610100880151805190838211611e8e57611c5f8354611575565b858111611efe575b50602090858311600114611ea157611c9592915f9183611d655750508160011b915f199060031b1c19161790565b90555b6101208701516009890155600a88019161014088015194855195600160401b8711611e8e578454878655808810611e1f575b505f9485526020808620959691015b878710611d02575050505050505050505061018081610160600c930151600b8501550151910155565b8051805190868211611e0c57908a91611d1b8954611575565b878111611dd6575b50602090878311600114611d705782602093859693611d56935f92611d655750508160011b915f199060031b1c19161790565b89555b01960196019594611cd9565b015190505f80611aad565b90601f198316918a5f52815f20925f5b818110611dbe575092859693928592602096889510611da7575b505050811b018955611d59565b01515f19838a1b60f8161c191690555f8080611d9a565b8284015185558f969094019360209384019301611d80565b611dfd908a5f5260205f20898086018a1c82019260208710611e03575b01891c0190611a51565b5f611d23565b92508192611df3565b60418c634e487b7160e01b5f525260245ffd5b855f52888860205f2092830192015b828110611e3c575050611cca565b611e468154611575565b80611e55575b50018990611e2e565b868111600114611e6a57505f81555b5f611e4c565b5f90828252611e8588602084209201881c8201858301611a51565b81835555611e64565b604189634e487b7160e01b5f525260245ffd5b889291601f19831691855f52815f20925f5b818110611ee657508411611ecf575b505050811b019055611c98565b01515f1983891b60f8161c191690555f8080611ec2565b8284015185558c969094019360209384019301611eb3565b611f2590845f5260205f20878086018b1c82019260208710611f2b575b018a1c0190611a51565b5f611c67565b92508192611f1b565b889291601f19831691855f52815f20925f5b818110611f7957508411611f62575b505050811b019055611c41565b01515f1983891b60f8161c191690555f8080611f55565b8284015185558c969094019360209384019301611f46565b611fb790845f5260205f20878086018b1c82019260208710611f2b57018a1c0190611a51565b5f611c10565b889291601f19831691855f52815f20925f5b81811061200257508411611feb575b505050811b019055611beb565b01515f1983891b60f8161c191690555f8080611fde565b8284015185558c969094019360209384019301611fcf565b61204090845f5260205f20878086018b1c82019260208710611f2b57018a1c0190611a51565b5f611bba565b869291601f19831691855f52815f20925f5b81811061208b57508411612074575b505050811b019055611b7d565b01515f1983871b60f8161c191690555f8080612067565b8284015185558a969094019360209384019301612058565b6120cc90845f5260205f208980860160051c820192602087106120d2575b0160051c0190611a51565b5f611b4c565b925081926120c1565b859291601f19831691855f52815f20925f5b81811061212157508411612109575b505050811b019055611b1c565b01515f1960f88460031b161c191690555f80806120fc565b828401518555899690940193602093840193016120ed565b61216190845f5260205f208880860160051c820192602087106120d2570160051c0190611a51565b5f611aeb565b90601f19831691875f52815f20925f5b8181106121b2575090846001959493921061219a575b505050811b018455611ac4565b01515f1960f88460031b161c191690555f808061218d565b92936020600181928786015181550195019301612177565b6121f290875f5260205f208680860160051c820192602087106120d2570160051c0190611a51565b5f611a9256fea264697066735822122040c73135c1961c012635905093686e25a71fef310a368ce52f5a05e786bc962364736f6c63430008150033","opcodes":"PUSH1 0x80 PUSH1 0x40 MSTORE CALLVALUE PUSH3 0x24C JUMPI PUSH3 0x24A5 DUP1 CODESIZE SUB DUP1 PUSH3 0x1D DUP2 PUSH3 0x250 JUMP JUMPDEST SWAP3 DUP4 CODECOPY DUP2 ADD SWAP1 PUSH1 0x20 DUP1 DUP3 DUP5 SUB SLT PUSH3 0x24C JUMPI DUP2 MLOAD PUSH1 0x1 PUSH1 0x1 PUSH1 0x40 SHL SUB SWAP3 DUP4 DUP3 GT PUSH3 0x24C JUMPI ADD SWAP3 PUSH1 0x1F SWAP1 DUP1 DUP3 DUP7 ADD SLT ISZERO PUSH3 0x24C JUMPI DUP5 MLOAD DUP5 DUP2 GT PUSH3 0x223 JUMPI PUSH1 0x1F NOT SWAP6 PUSH3 0x71 DUP3 DUP6 ADD DUP9 AND DUP7 ADD PUSH3 0x250 JUMP JUMPDEST SWAP3 DUP3 DUP5 MSTORE DUP6 DUP4 DUP4 ADD ADD GT PUSH3 0x24C JUMPI DUP5 SWAP1 PUSH0 JUMPDEST DUP4 DUP2 LT PUSH3 0x237 JUMPI POP POP PUSH0 SWAP2 DUP4 ADD ADD MSTORE DUP1 MLOAD SWAP4 DUP5 GT PUSH3 0x223 JUMPI PUSH1 0x2 SLOAD SWAP3 PUSH1 0x1 SWAP4 DUP5 DUP2 DUP2 SHR SWAP2 AND DUP1 ISZERO PUSH3 0x218 JUMPI JUMPDEST DUP3 DUP3 LT EQ PUSH3 0x204 JUMPI DUP4 DUP2 GT PUSH3 0x1BB JUMPI JUMPDEST POP DUP1 SWAP3 DUP6 GT PUSH1 0x1 EQ PUSH3 0x154 JUMPI POP DUP4 SWAP5 POP SWAP1 DUP4 SWAP3 SWAP2 PUSH0 SWAP5 PUSH3 0x148 JUMPI JUMPDEST POP POP SHL SWAP2 PUSH0 NOT SWAP1 PUSH1 0x3 SHL SHR NOT AND OR PUSH1 0x2 SSTORE JUMPDEST PUSH1 0x3 DUP1 SLOAD CALLER PUSH1 0x1 PUSH1 0x1 PUSH1 0xA0 SHL SUB NOT DUP3 AND DUP2 OR SWAP1 SWAP3 SSTORE PUSH1 0x40 MLOAD SWAP2 SWAP1 PUSH1 0x1 PUSH1 0x1 PUSH1 0xA0 SHL SUB AND PUSH32 0x8BE0079C531659141344CD1FD0A4F28419497F9722A3DAAFE3B4186F6B6457E0 PUSH0 DUP1 LOG3 PUSH2 0x222E SWAP1 DUP2 PUSH3 0x277 DUP3 CODECOPY RETURN JUMPDEST ADD MLOAD SWAP3 POP PUSH0 DUP1 PUSH3 0xE2 JUMP JUMPDEST SWAP3 SWAP5 DUP5 SWAP1 DUP2 AND PUSH1 0x2 PUSH0 MSTORE DUP5 PUSH0 KECCAK256 SWAP5 PUSH0 SWAP1 JUMPDEST DUP9 DUP4 DUP4 LT PUSH3 0x1A0 JUMPI POP POP POP LT PUSH3 0x187 JUMPI JUMPDEST POP POP POP DUP2 SHL ADD PUSH1 0x2 SSTORE PUSH3 0xF4 JUMP JUMPDEST ADD MLOAD PUSH0 NOT PUSH1 0xF8 DUP5 PUSH1 0x3 SHL AND SHR NOT AND SWAP1 SSTORE PUSH0 DUP1 DUP1 PUSH3 0x178 JUMP JUMPDEST DUP6 DUP8 ADD MLOAD DUP9 SSTORE SWAP1 SWAP7 ADD SWAP6 SWAP5 DUP6 ADD SWAP5 DUP8 SWAP4 POP SWAP1 DUP2 ADD SWAP1 PUSH3 0x165 JUMP JUMPDEST PUSH1 0x2 PUSH0 MSTORE DUP2 PUSH0 KECCAK256 DUP5 DUP1 DUP9 ADD PUSH1 0x5 SHR DUP3 ADD SWAP3 DUP5 DUP10 LT PUSH3 0x1FA JUMPI JUMPDEST ADD PUSH1 0x5 SHR ADD SWAP1 DUP6 SWAP1 JUMPDEST DUP3 DUP2 LT PUSH3 0x1EE JUMPI POP POP PUSH3 0xC5 JUMP JUMPDEST PUSH0 DUP2 SSTORE ADD DUP6 SWAP1 PUSH3 0x1DE JUMP JUMPDEST SWAP3 POP DUP2 SWAP3 PUSH3 0x1D5 JUMP JUMPDEST PUSH4 0x4E487B71 PUSH1 0xE0 SHL PUSH0 MSTORE PUSH1 0x22 PUSH1 0x4 MSTORE PUSH1 0x24 PUSH0 REVERT JUMPDEST SWAP1 PUSH1 0x7F AND SWAP1 PUSH3 0xB3 JUMP JUMPDEST PUSH4 0x4E487B71 PUSH1 0xE0 SHL PUSH0 MSTORE PUSH1 0x41 PUSH1 0x4 MSTORE PUSH1 0x24 PUSH0 REVERT JUMPDEST DUP2 DUP2 ADD DUP4 ADD MLOAD DUP6 DUP3 ADD DUP5 ADD MSTORE DUP7 SWAP3 ADD PUSH3 0x84 JUMP JUMPDEST PUSH0 DUP1 REVERT JUMPDEST PUSH1 0x40 MLOAD SWAP2 SWAP1 PUSH1 0x1F ADD PUSH1 0x1F NOT AND DUP3 ADD PUSH1 0x1 PUSH1 0x1 PUSH1 0x40 SHL SUB DUP2 GT DUP4 DUP3 LT OR PUSH3 0x223 JUMPI PUSH1 0x40 MSTORE JUMP INVALID PUSH1 0x40 PUSH1 0x80 DUP2 MSTORE PUSH1 0x4 SWAP1 DUP2 CALLDATASIZE LT ISZERO PUSH2 0x14 JUMPI PUSH0 DUP1 REVERT JUMPDEST PUSH0 SWAP2 DUP3 CALLDATALOAD PUSH1 0xE0 SHR DUP1 PUSH3 0xFDD58E EQ PUSH2 0x1354 JUMPI DUP1 PUSH4 0x1FFC9A7 EQ PUSH2 0x12E7 JUMPI DUP1 PUSH4 0xE89341C EQ PUSH2 0x11FE JUMPI DUP1 PUSH4 0x158E7090 EQ PUSH2 0xEB2 JUMPI DUP1 PUSH4 0x2EB2C2D6 EQ PUSH2 0xB9C JUMPI DUP1 PUSH4 0x4E1273F4 EQ PUSH2 0xA0C JUMPI DUP1 PUSH4 0x715018A6 EQ PUSH2 0x9AF JUMPI DUP1 PUSH4 0x85B476FF EQ PUSH2 0x938 JUMPI DUP1 PUSH4 0x8DA5CB5B EQ PUSH2 0x90F JUMPI DUP1 PUSH4 0xA22CB465 EQ PUSH2 0x832 JUMPI DUP1 PUSH4 0xBF4A8C0C EQ PUSH2 0x582 JUMPI DUP1 PUSH4 0xC53C4FEC EQ PUSH2 0x533 JUMPI DUP1 PUSH4 0xE396C13F EQ PUSH2 0x495 JUMPI DUP1 PUSH4 0xE985E9C5 EQ PUSH2 0x443 JUMPI DUP1 PUSH4 0xF242432A EQ PUSH2 0x19B JUMPI PUSH4 0xF2FDE38B EQ PUSH2 0xCD JUMPI PUSH0 DUP1 REVERT JUMPDEST CALLVALUE PUSH2 0x197 JUMPI PUSH1 0x20 CALLDATASIZE PUSH1 0x3 NOT ADD SLT PUSH2 0x197 JUMPI PUSH2 0xE6 PUSH2 0x1384 JUMP JUMPDEST SWAP1 PUSH2 0xEF PUSH2 0x16E5 JUMP JUMPDEST PUSH1 0x1 PUSH1 0x1 PUSH1 0xA0 SHL SUB SWAP2 DUP3 AND SWAP3 DUP4 ISZERO PUSH2 0x145 JUMPI POP POP PUSH1 0x3 SLOAD DUP3 PUSH12 0xFFFFFFFFFFFFFFFFFFFFFFFF PUSH1 0xA0 SHL DUP3 AND OR PUSH1 0x3 SSTORE AND PUSH32 0x8BE0079C531659141344CD1FD0A4F28419497F9722A3DAAFE3B4186F6B6457E0 DUP4 DUP1 LOG3 DUP1 RETURN JUMPDEST SWAP1 PUSH1 0x20 PUSH1 0x84 SWAP3 MLOAD SWAP2 PUSH3 0x461BCD PUSH1 0xE5 SHL DUP4 MSTORE DUP3 ADD MSTORE PUSH1 0x26 PUSH1 0x24 DUP3 ADD MSTORE PUSH32 0x4F776E61626C653A206E6577206F776E657220697320746865207A65726F2061 PUSH1 0x44 DUP3 ADD MSTORE PUSH6 0x646472657373 PUSH1 0xD0 SHL PUSH1 0x64 DUP3 ADD MSTORE REVERT JUMPDEST DUP3 DUP1 REVERT JUMPDEST POP CALLVALUE PUSH2 0x197 JUMPI PUSH1 0xA0 CALLDATASIZE PUSH1 0x3 NOT ADD SLT PUSH2 0x197 JUMPI PUSH2 0x1B5 PUSH2 0x1384 JUMP JUMPDEST SWAP2 PUSH2 0x1BE PUSH2 0x139E JUMP JUMPDEST SWAP3 PUSH1 0x44 CALLDATALOAD SWAP1 PUSH1 0x64 CALLDATALOAD SWAP1 PUSH1 0x84 CALLDATALOAD PUSH1 0x1 PUSH1 0x1 PUSH1 0x40 SHL SUB DUP2 GT PUSH2 0x43F JUMPI PUSH2 0x1E5 SWAP1 CALLDATASIZE SWAP1 DUP8 ADD PUSH2 0x14C0 JUMP JUMPDEST SWAP3 PUSH1 0x1 PUSH1 0x1 PUSH1 0xA0 SHL SUB SWAP2 DUP3 AND SWAP2 CALLER DUP4 EQ DUP1 ISZERO PUSH2 0x420 JUMPI JUMPDEST PUSH2 0x205 SWAP1 PUSH2 0x17F3 JUMP JUMPDEST DUP8 AND SWAP2 PUSH2 0x213 DUP4 ISZERO ISZERO PUSH2 0x1856 JUMP JUMPDEST PUSH2 0x21C DUP3 PUSH2 0x1A1C JUMP JUMPDEST POP PUSH2 0x226 DUP5 PUSH2 0x1A1C JUMP JUMPDEST POP DUP2 DUP10 MSTORE PUSH1 0x20 SWAP8 DUP10 DUP10 MSTORE DUP7 DUP11 KECCAK256 DUP3 DUP12 MSTORE DUP10 MSTORE DUP5 DUP8 DUP12 KECCAK256 SLOAD PUSH2 0x249 DUP3 DUP3 LT ISZERO PUSH2 0x18B0 JUMP JUMPDEST DUP5 DUP13 MSTORE DUP12 DUP12 MSTORE DUP9 DUP13 KECCAK256 DUP5 DUP14 MSTORE DUP12 MSTORE SUB DUP8 DUP12 KECCAK256 SSTORE DUP3 DUP11 MSTORE DUP10 DUP10 MSTORE DUP7 DUP11 KECCAK256 DUP5 DUP12 MSTORE DUP10 MSTORE DUP7 DUP11 KECCAK256 PUSH2 0x278 DUP7 DUP3 SLOAD PUSH2 0x190F JUMP JUMPDEST SWAP1 SSTORE DUP4 DUP3 DUP9 MLOAD DUP6 DUP2 MSTORE DUP8 DUP13 DUP3 ADD MSTORE PUSH32 0xC3D58168C5AE7397731D063D5BBF3D657854427343F4C083240F7AACAA2D0F62 DUP11 CALLER SWAP3 LOG4 EXTCODESIZE PUSH2 0x2B4 JUMPI DUP9 DUP1 RETURN JUMPDEST SWAP2 DUP7 SWAP8 SWAP9 SWAP6 SWAP7 SWAP5 SWAP4 SWAP2 DUP7 DUP11 SWAP5 PUSH2 0x2FD DUP11 MLOAD SWAP8 DUP9 SWAP7 DUP8 SWAP6 DUP7 SWAP5 PUSH4 0xF23A6E61 PUSH1 0xE0 SHL SWAP13 DUP14 DUP8 MSTORE CALLER SWAP1 DUP8 ADD MSTORE PUSH1 0x24 DUP7 ADD MSTORE PUSH1 0x44 DUP6 ADD MSTORE PUSH1 0x64 DUP5 ADD MSTORE PUSH1 0xA0 PUSH1 0x84 DUP5 ADD MSTORE PUSH1 0xA4 DUP4 ADD SWAP1 PUSH2 0x13D5 JUMP JUMPDEST SUB SWAP3 GAS CALL DUP4 SWAP2 DUP2 PUSH2 0x3F1 JUMPI JUMPDEST POP PUSH2 0x372 JUMPI POP POP POP PUSH2 0x319 PUSH2 0x193C JUMP JUMPDEST PUSH4 0x8C379A0 EQ PUSH2 0x341 JUMPI JUMPDEST MLOAD PUSH3 0x461BCD PUSH1 0xE5 SHL DUP2 MSTORE SWAP2 POP DUP2 SWAP1 PUSH2 0x33D SWAP1 DUP3 ADD PUSH2 0x19C7 JUMP JUMPDEST SUB SWAP1 REVERT JUMPDEST PUSH2 0x349 PUSH2 0x1957 JUMP JUMPDEST DUP1 PUSH2 0x354 JUMPI POP PUSH2 0x324 JUMP JUMPDEST PUSH2 0x33D SWAP2 MLOAD SWAP4 DUP5 SWAP4 PUSH3 0x461BCD PUSH1 0xE5 SHL DUP6 MSTORE DUP5 ADD MSTORE PUSH1 0x24 DUP4 ADD SWAP1 PUSH2 0x13D5 JUMP JUMPDEST SWAP2 SWAP5 POP PUSH1 0x1 PUSH1 0x1 PUSH1 0xE0 SHL SUB NOT SWAP1 SWAP2 AND SUB PUSH2 0x394 JUMPI POP POP PUSH0 DUP1 DUP1 DUP1 DUP1 DUP1 DUP1 DUP1 DUP9 DUP1 RETURN JUMPDEST MLOAD PUSH3 0x461BCD PUSH1 0xE5 SHL DUP2 MSTORE SWAP2 POP DUP2 SWAP1 PUSH2 0x33D SWAP1 DUP3 ADD PUSH1 0x80 SWAP1 PUSH1 0x20 DUP2 MSTORE PUSH1 0x28 PUSH1 0x20 DUP3 ADD MSTORE PUSH32 0x455243313135353A204552433131353552656365697665722072656A65637465 PUSH1 0x40 DUP3 ADD MSTORE PUSH8 0x6420746F6B656E73 PUSH1 0xC0 SHL PUSH1 0x60 DUP3 ADD MSTORE ADD SWAP1 JUMP JUMPDEST PUSH2 0x412 SWAP2 SWAP3 POP DUP8 RETURNDATASIZE DUP10 GT PUSH2 0x419 JUMPI JUMPDEST PUSH2 0x40A DUP2 DUP4 PUSH2 0x142A JUMP JUMPDEST DUP2 ADD SWAP1 PUSH2 0x191C JUMP JUMPDEST SWAP1 PUSH0 PUSH2 0x309 JUMP JUMPDEST POP RETURNDATASIZE PUSH2 0x400 JUMP JUMPDEST POP DUP3 DUP10 MSTORE PUSH1 0x1 PUSH1 0x20 SWAP1 DUP2 MSTORE DUP7 DUP11 KECCAK256 CALLER DUP12 MSTORE SWAP1 MSTORE DUP6 DUP10 KECCAK256 SLOAD PUSH1 0xFF AND PUSH2 0x1FC JUMP JUMPDEST DUP8 DUP1 REVERT JUMPDEST POP POP CALLVALUE PUSH2 0x491 JUMPI DUP1 PUSH1 0x3 NOT CALLDATASIZE ADD SLT PUSH2 0x491 JUMPI PUSH1 0xFF DUP2 PUSH1 0x20 SWAP4 PUSH2 0x463 PUSH2 0x1384 JUMP JUMPDEST PUSH2 0x46B PUSH2 0x139E JUMP JUMPDEST PUSH1 0x1 PUSH1 0x1 PUSH1 0xA0 SHL SUB SWAP2 DUP3 AND DUP4 MSTORE PUSH1 0x1 DUP8 MSTORE DUP4 DUP4 KECCAK256 SWAP2 AND DUP3 MSTORE DUP6 MSTORE KECCAK256 SLOAD SWAP2 MLOAD SWAP2 AND ISZERO ISZERO DUP2 MSTORE RETURN JUMPDEST POP DUP1 REVERT JUMPDEST POP SWAP2 CALLVALUE PUSH2 0x530 JUMPI PUSH1 0x20 CALLDATASIZE PUSH1 0x3 NOT ADD SLT PUSH2 0x530 JUMPI DUP2 PUSH2 0x52C SWAP2 DUP5 CALLDATALOAD DUP2 MSTORE PUSH1 0x5 PUSH1 0x20 MSTORE KECCAK256 SWAP2 PUSH2 0x4C1 DUP4 PUSH2 0x15AD JUMP JUMPDEST SWAP3 PUSH2 0x4CE PUSH1 0x1 DUP3 ADD PUSH2 0x15AD JUMP JUMPDEST SWAP5 PUSH1 0x2 DUP3 ADD SLOAD SWAP1 PUSH2 0x4E1 PUSH1 0x3 DUP5 ADD PUSH2 0x15AD JUMP JUMPDEST SWAP1 DUP4 ADD SLOAD PUSH1 0x5 DUP5 ADD SLOAD PUSH2 0x4F6 PUSH1 0x6 DUP7 ADD PUSH2 0x15AD JUMP JUMPDEST SWAP1 PUSH2 0x503 PUSH1 0x7 DUP8 ADD PUSH2 0x15AD JUMP JUMPDEST SWAP3 PUSH2 0x510 PUSH1 0x8 DUP9 ADD PUSH2 0x15AD JUMP JUMPDEST SWAP5 PUSH1 0x9 DUP9 ADD SLOAD SWAP7 PUSH1 0xC PUSH1 0xB DUP11 ADD SLOAD SWAP10 ADD SLOAD SWAP10 MLOAD SWAP13 DUP14 SWAP13 DUP14 PUSH2 0x164E JUMP JUMPDEST SUB SWAP1 RETURN JUMPDEST DUP1 REVERT JUMPDEST POP SWAP1 CALLVALUE PUSH2 0x197 JUMPI PUSH1 0x20 CALLDATASIZE PUSH1 0x3 NOT ADD SLT PUSH2 0x197 JUMPI DUP2 CALLDATALOAD PUSH1 0x1 PUSH1 0x1 PUSH1 0x40 SHL SUB DUP2 GT PUSH2 0x57E JUMPI PUSH2 0x57B SWAP3 PUSH2 0x566 SWAP2 CALLDATASIZE SWAP2 ADD PUSH2 0x14C0 JUMP JUMPDEST SWAP1 PUSH2 0x56F PUSH2 0x16E5 JUMP JUMPDEST MLOAD PUSH1 0x20 DUP3 MLOAD SWAP3 ADD PUSH2 0x13B4 JUMP JUMPDEST DUP1 RETURN JUMPDEST DUP4 DUP1 REVERT JUMPDEST POP SWAP2 CALLVALUE PUSH2 0x530 JUMPI PUSH2 0x1A0 CALLDATASIZE PUSH1 0x3 NOT ADD SLT PUSH2 0x530 JUMPI PUSH1 0x1 PUSH1 0x1 PUSH1 0x40 SHL SUB SWAP2 DUP4 CALLDATALOAD DUP4 DUP2 GT PUSH2 0x197 JUMPI PUSH2 0x5B5 SWAP1 CALLDATASIZE SWAP1 DUP7 ADD PUSH2 0x14C0 JUMP JUMPDEST SWAP4 PUSH1 0x24 SWAP4 DUP5 CALLDATALOAD DUP2 DUP2 GT PUSH2 0x82E JUMPI PUSH2 0x5CF SWAP1 CALLDATASIZE SWAP1 DUP5 ADD PUSH2 0x14C0 JUMP JUMPDEST SWAP3 PUSH1 0x64 CALLDATALOAD DUP3 DUP2 GT PUSH2 0x82A JUMPI PUSH2 0x5E7 SWAP1 CALLDATASIZE SWAP1 DUP6 ADD PUSH2 0x14C0 JUMP JUMPDEST SWAP7 PUSH1 0xC4 CALLDATALOAD DUP4 DUP2 GT PUSH2 0x826 JUMPI PUSH2 0x5FF SWAP1 CALLDATASIZE SWAP1 DUP7 ADD PUSH2 0x14C0 JUMP JUMPDEST SWAP2 PUSH1 0xE4 CALLDATALOAD DUP5 DUP2 GT PUSH2 0x43F JUMPI PUSH2 0x617 SWAP1 CALLDATASIZE SWAP1 DUP8 ADD PUSH2 0x14C0 JUMP JUMPDEST SWAP4 PUSH2 0x104 CALLDATALOAD DUP2 DUP2 GT PUSH2 0x822 JUMPI PUSH2 0x630 SWAP1 CALLDATASIZE SWAP1 DUP9 ADD PUSH2 0x14C0 JUMP JUMPDEST PUSH2 0x144 CALLDATALOAD SWAP6 DUP3 DUP8 GT PUSH2 0x81E JUMPI CALLDATASIZE PUSH1 0x23 DUP9 ADD SLT ISZERO PUSH2 0x81E JUMPI DUP7 DUP9 ADD CALLDATALOAD SWAP3 PUSH2 0x655 DUP5 PUSH2 0x144B JUMP JUMPDEST SWAP4 PUSH2 0x662 DUP7 MLOAD SWAP6 DUP7 PUSH2 0x142A JUMP JUMPDEST DUP1 DUP6 MSTORE PUSH1 0x20 SWAP9 DUP14 DUP11 DUP8 ADD SWAP3 PUSH1 0x5 SHL DUP3 ADD ADD SWAP3 CALLDATASIZE DUP5 GT PUSH2 0x81A JUMPI DUP15 DUP3 ADD SWAP3 JUMPDEST DUP5 DUP5 LT PUSH2 0x7EF JUMPI POP POP POP POP POP PUSH2 0x694 PUSH2 0x16E5 JUMP JUMPDEST DUP4 MLOAD SWAP6 DUP6 MLOAD SWAP7 DUP9 DUP2 DUP2 DUP10 ADD SWAP10 PUSH2 0x6AB DUP2 DUP4 DUP14 PUSH2 0x13B4 JUMP JUMPDEST DUP2 ADD DUP13 DUP2 MSTORE SUB ADD SWAP1 KECCAK256 SLOAD ISZERO PUSH2 0x7B8 JUMPI PUSH2 0x749 SWAP9 SWAP10 SWAP11 SWAP12 SWAP13 DUP6 MLOAD SWAP12 PUSH2 0x6CE DUP14 PUSH2 0x13FA JUMP JUMPDEST DUP8 DUP14 MSTORE DUP10 DUP14 ADD MSTORE PUSH1 0x44 CALLDATALOAD DUP7 DUP14 ADD MSTORE PUSH1 0x60 DUP13 ADD MSTORE PUSH1 0x84 CALLDATALOAD PUSH1 0x80 DUP13 ADD MSTORE PUSH1 0xA4 CALLDATALOAD PUSH1 0xA0 DUP13 ADD MSTORE PUSH1 0xC0 DUP12 ADD MSTORE PUSH1 0xE0 DUP11 ADD MSTORE PUSH2 0x100 DUP10 ADD MSTORE PUSH2 0x124 CALLDATALOAD PUSH2 0x120 DUP10 ADD MSTORE PUSH2 0x140 DUP9 ADD MSTORE PUSH2 0x164 CALLDATALOAD PUSH2 0x160 DUP9 ADD MSTORE PUSH2 0x184 CALLDATALOAD PUSH2 0x180 DUP9 ADD MSTORE PUSH1 0x6 SLOAD DUP9 MSTORE PUSH1 0x5 DUP5 MSTORE PUSH2 0x73A DUP8 DUP3 DUP11 KECCAK256 PUSH2 0x1A67 JUMP JUMPDEST MLOAD SWAP4 DUP5 SWAP3 DUP4 SWAP3 MLOAD SWAP3 DUP4 SWAP2 PUSH2 0x13B4 JUMP JUMPDEST DUP2 ADD DUP5 DUP2 MSTORE SUB ADD SWAP1 KECCAK256 DUP1 SLOAD SWAP1 PUSH1 0x1 PUSH1 0x40 SHL DUP3 LT ISZERO PUSH2 0x7A5 JUMPI SWAP1 PUSH2 0x771 SWAP2 PUSH1 0x1 DUP3 ADD DUP2 SSTORE PUSH2 0x1548 JUMP JUMPDEST SWAP2 SWAP1 SWAP2 PUSH2 0x794 JUMPI POP SWAP1 PUSH2 0x783 SWAP2 PUSH2 0x1A67 JUMP JUMPDEST PUSH2 0x78E PUSH1 0x6 SLOAD PUSH2 0x17BD JUMP JUMPDEST PUSH1 0x6 SSTORE DUP1 RETURN JUMPDEST PUSH4 0x4E487B71 PUSH1 0xE0 SHL DUP5 MSTORE DUP4 SWAP1 MSTORE DUP4 DUP4 REVERT JUMPDEST POP POP PUSH4 0x4E487B71 PUSH1 0xE0 SHL DUP4 MSTORE PUSH1 0x41 SWAP1 MSTORE POP REVERT JUMPDEST DUP5 MLOAD PUSH3 0x461BCD PUSH1 0xE5 SHL DUP2 MSTORE DUP1 DUP11 ADD DUP10 SWAP1 MSTORE PUSH1 0x12 DUP2 DUP15 ADD MSTORE PUSH18 0x14D95D08191BD95CC81B9BDD08195E1A5CDD PUSH1 0x72 SHL PUSH1 0x44 DUP3 ADD MSTORE PUSH1 0x64 SWAP1 REVERT JUMPDEST DUP2 DUP5 CALLDATALOAD GT PUSH2 0x816 JUMPI DUP16 DUP13 SWAP2 PUSH2 0x80B DUP4 SWAP3 CALLDATASIZE SWAP1 DUP9 CALLDATALOAD DUP9 ADD ADD PUSH2 0x14C0 JUMP JUMPDEST DUP2 MSTORE ADD SWAP4 ADD SWAP3 PUSH2 0x680 JUMP JUMPDEST DUP15 DUP1 REVERT JUMPDEST DUP14 DUP1 REVERT JUMPDEST DUP10 DUP1 REVERT JUMPDEST DUP9 DUP1 REVERT JUMPDEST DUP7 DUP1 REVERT JUMPDEST DUP6 DUP1 REVERT JUMPDEST DUP5 DUP1 REVERT JUMPDEST POP SWAP1 CALLVALUE PUSH2 0x197 JUMPI DUP1 PUSH1 0x3 NOT CALLDATASIZE ADD SLT PUSH2 0x197 JUMPI PUSH2 0x84C PUSH2 0x1384 JUMP JUMPDEST SWAP1 PUSH1 0x24 CALLDATALOAD SWAP2 DUP3 ISZERO ISZERO DUP1 SWAP4 SUB PUSH2 0x82E JUMPI PUSH1 0x1 PUSH1 0x1 PUSH1 0xA0 SHL SUB AND SWAP3 CALLER DUP5 EQ PUSH2 0x8BB JUMPI POP CALLER DUP5 MSTORE PUSH1 0x1 PUSH1 0x20 MSTORE DUP1 DUP5 KECCAK256 DUP4 DUP6 MSTORE PUSH1 0x20 MSTORE DUP1 DUP5 KECCAK256 PUSH1 0xFF NOT DUP2 SLOAD AND PUSH1 0xFF DUP5 AND OR SWAP1 SSTORE MLOAD SWAP1 DUP2 MSTORE PUSH32 0x17307EAB39AB6107E8899845AD3D59BD9653F200F220920489CA2B5937696C31 PUSH1 0x20 CALLER SWAP3 LOG3 DUP1 RETURN JUMPDEST PUSH1 0x20 PUSH1 0x84 SWAP3 MLOAD SWAP2 PUSH3 0x461BCD PUSH1 0xE5 SHL DUP4 MSTORE DUP3 ADD MSTORE PUSH1 0x29 PUSH1 0x24 DUP3 ADD MSTORE PUSH32 0x455243313135353A2073657474696E6720617070726F76616C20737461747573 PUSH1 0x44 DUP3 ADD MSTORE PUSH9 0x103337B91039B2B633 PUSH1 0xB9 SHL PUSH1 0x64 DUP3 ADD MSTORE REVERT JUMPDEST POP POP CALLVALUE PUSH2 0x491 JUMPI DUP2 PUSH1 0x3 NOT CALLDATASIZE ADD SLT PUSH2 0x491 JUMPI PUSH1 0x3 SLOAD SWAP1 MLOAD PUSH1 0x1 PUSH1 0x1 PUSH1 0xA0 SHL SUB SWAP1 SWAP2 AND DUP2 MSTORE PUSH1 0x20 SWAP1 RETURN JUMPDEST POP SWAP2 CALLVALUE PUSH2 0x530 JUMPI DUP2 PUSH1 0x3 NOT CALLDATASIZE ADD SLT PUSH2 0x530 JUMPI DUP3 CALLDATALOAD PUSH1 0x1 PUSH1 0x1 PUSH1 0x40 SHL SUB DUP2 GT PUSH2 0x491 JUMPI PUSH2 0x967 SWAP1 CALLDATASIZE SWAP1 DUP6 ADD PUSH2 0x14C0 JUMP JUMPDEST SWAP1 PUSH2 0x983 PUSH1 0x20 PUSH1 0x24 CALLDATALOAD SWAP4 DUP2 DUP7 MLOAD SWAP4 DUP3 DUP6 DUP1 SWAP5 MLOAD SWAP4 DUP5 SWAP3 ADD PUSH2 0x13B4 JUMP JUMPDEST DUP2 ADD DUP8 DUP2 MSTORE SUB ADD SWAP1 KECCAK256 SWAP1 DUP2 SLOAD DUP4 LT ISZERO PUSH2 0x530 JUMPI POP PUSH2 0x52C SWAP2 PUSH2 0x9A4 SWAP2 PUSH2 0x1548 JUMP JUMPDEST POP SWAP2 PUSH2 0x4C1 DUP4 PUSH2 0x15AD JUMP JUMPDEST DUP4 CALLVALUE PUSH2 0x530 JUMPI DUP1 PUSH1 0x3 NOT CALLDATASIZE ADD SLT PUSH2 0x530 JUMPI PUSH2 0x9C8 PUSH2 0x16E5 JUMP JUMPDEST PUSH1 0x3 DUP1 SLOAD PUSH1 0x1 PUSH1 0x1 PUSH1 0xA0 SHL SUB NOT DUP2 AND SWAP1 SWAP2 SSTORE DUP2 SWAP1 PUSH1 0x1 PUSH1 0x1 PUSH1 0xA0 SHL SUB AND PUSH32 0x8BE0079C531659141344CD1FD0A4F28419497F9722A3DAAFE3B4186F6B6457E0 DUP3 DUP1 LOG3 DUP1 RETURN JUMPDEST POP CALLVALUE PUSH2 0x197 JUMPI DUP2 PUSH1 0x3 NOT CALLDATASIZE ADD SLT PUSH2 0x197 JUMPI DUP1 CALLDATALOAD PUSH1 0x1 PUSH1 0x1 PUSH1 0x40 SHL SUB DUP1 DUP3 GT PUSH2 0x82E JUMPI CALLDATASIZE PUSH1 0x23 DUP4 ADD SLT ISZERO PUSH2 0x82E JUMPI DUP2 DUP4 ADD CALLDATALOAD SWAP1 PUSH2 0xA47 DUP3 PUSH2 0x144B JUMP JUMPDEST SWAP3 PUSH2 0xA54 DUP7 MLOAD SWAP5 DUP6 PUSH2 0x142A JUMP JUMPDEST DUP3 DUP5 MSTORE PUSH1 0x20 SWAP3 PUSH1 0x24 DUP5 DUP7 ADD SWAP2 PUSH1 0x5 SHL DUP4 ADD ADD SWAP2 CALLDATASIZE DUP4 GT PUSH2 0x822 JUMPI PUSH1 0x24 ADD SWAP1 JUMPDEST DUP3 DUP3 LT PUSH2 0xB7D JUMPI POP POP POP PUSH1 0x24 CALLDATALOAD SWAP1 DUP2 GT PUSH2 0x82A JUMPI PUSH2 0xA94 SWAP1 CALLDATASIZE SWAP1 DUP6 ADD PUSH2 0x1462 JUMP JUMPDEST SWAP3 DUP3 MLOAD DUP5 MLOAD SUB PUSH2 0xB2A JUMPI POP DUP2 MLOAD SWAP5 PUSH2 0xAAB DUP7 PUSH2 0x144B JUMP JUMPDEST SWAP6 PUSH2 0xAB8 DUP7 MLOAD SWAP8 DUP9 PUSH2 0x142A JUMP JUMPDEST DUP1 DUP8 MSTORE PUSH2 0xAC7 PUSH1 0x1F NOT SWAP2 PUSH2 0x144B JUMP JUMPDEST ADD CALLDATASIZE DUP4 DUP9 ADD CALLDATACOPY JUMPDEST DUP3 MLOAD DUP2 LT ISZERO PUSH2 0xB18 JUMPI PUSH2 0xB13 SWAP1 PUSH2 0xB03 PUSH1 0x1 PUSH1 0x1 PUSH1 0xA0 SHL SUB PUSH2 0xAF0 DUP4 DUP8 PUSH2 0x17DF JUMP JUMPDEST MLOAD AND PUSH2 0xAFC DUP4 DUP9 PUSH2 0x17DF JUMP JUMPDEST MLOAD SWAP1 PUSH2 0x173D JUMP JUMPDEST PUSH2 0xB0D DUP3 DUP10 PUSH2 0x17DF JUMP JUMPDEST MSTORE PUSH2 0x17BD JUMP JUMPDEST PUSH2 0xACE JUMP JUMPDEST DUP5 MLOAD DUP3 DUP2 MSTORE DUP1 PUSH2 0x52C DUP2 DUP6 ADD DUP10 PUSH2 0x1515 JUMP JUMPDEST PUSH1 0x84 SWAP2 DUP6 MLOAD SWAP2 PUSH3 0x461BCD PUSH1 0xE5 SHL DUP4 MSTORE DUP3 ADD MSTORE PUSH1 0x29 PUSH1 0x24 DUP3 ADD MSTORE PUSH32 0x455243313135353A206163636F756E747320616E6420696473206C656E677468 PUSH1 0x44 DUP3 ADD MSTORE PUSH9 0x40DAD2E6DAC2E8C6D PUSH1 0xBB SHL PUSH1 0x64 DUP3 ADD MSTORE REVERT JUMPDEST DUP2 CALLDATALOAD PUSH1 0x1 PUSH1 0x1 PUSH1 0xA0 SHL SUB DUP2 AND DUP2 SUB PUSH2 0x81E JUMPI DUP2 MSTORE SWAP1 DUP5 ADD SWAP1 DUP5 ADD PUSH2 0xA73 JUMP JUMPDEST POP DUP3 CALLVALUE PUSH2 0x530 JUMPI PUSH1 0x3 NOT SWAP3 PUSH1 0xA0 CALLDATASIZE DUP6 ADD SLT PUSH2 0x491 JUMPI PUSH2 0xBB9 PUSH2 0x1384 JUMP JUMPDEST SWAP2 PUSH2 0xBC2 PUSH2 0x139E JUMP JUMPDEST SWAP5 PUSH1 0x1 PUSH1 0x1 PUSH1 0x40 SHL SUB SWAP4 PUSH1 0x44 CALLDATALOAD DUP6 DUP2 GT PUSH2 0x57E JUMPI PUSH2 0xBE3 SWAP1 CALLDATASIZE SWAP1 DUP9 ADD PUSH2 0x1462 JUMP JUMPDEST PUSH1 0x64 CALLDATALOAD DUP7 DUP2 GT PUSH2 0x82E JUMPI PUSH2 0xBFA SWAP1 CALLDATASIZE SWAP1 DUP10 ADD PUSH2 0x1462 JUMP JUMPDEST SWAP6 PUSH1 0x84 CALLDATALOAD SWAP1 DUP2 GT PUSH2 0x82E JUMPI PUSH2 0xC12 SWAP1 CALLDATASIZE SWAP1 DUP10 ADD PUSH2 0x14C0 JUMP JUMPDEST SWAP7 PUSH1 0x1 PUSH1 0x1 PUSH1 0xA0 SHL SUB SWAP3 DUP4 AND SWAP3 CALLER DUP5 EQ DUP1 ISZERO PUSH2 0xE93 JUMPI JUMPDEST PUSH2 0xC32 SWAP1 PUSH2 0x17F3 JUMP JUMPDEST DUP3 MLOAD DUP9 MLOAD SUB PUSH2 0xE3F JUMPI DUP10 AND SWAP4 PUSH2 0xC49 DUP6 ISZERO ISZERO PUSH2 0x1856 JUMP JUMPDEST DUP6 JUMPDEST DUP4 MLOAD DUP2 LT ISZERO PUSH2 0xCCD JUMPI DUP1 PUSH2 0xC62 PUSH2 0xCC8 SWAP3 DUP7 PUSH2 0x17DF JUMP JUMPDEST MLOAD PUSH2 0xC6D DUP3 DUP13 PUSH2 0x17DF JUMP JUMPDEST MLOAD SWAP1 DUP1 DUP11 MSTORE PUSH1 0x20 SWAP1 DUP11 DUP3 MSTORE DUP12 DUP12 KECCAK256 DUP10 DUP13 MSTORE DUP3 MSTORE DUP3 DUP13 DUP13 DUP12 DUP3 DUP3 KECCAK256 SLOAD SWAP3 PUSH2 0xC95 DUP6 DUP6 LT ISZERO PUSH2 0x18B0 JUMP JUMPDEST DUP6 DUP4 MSTORE DUP3 DUP8 MSTORE DUP3 KECCAK256 SWAP2 MSTORE DUP5 MSTORE SUB DUP13 DUP13 KECCAK256 SSTORE DUP11 MSTORE DUP10 DUP2 MSTORE DUP11 DUP11 KECCAK256 SWAP1 DUP10 DUP12 MSTORE MSTORE PUSH2 0xCC1 DUP11 DUP11 KECCAK256 SWAP2 DUP3 SLOAD PUSH2 0x190F JUMP JUMPDEST SWAP1 SSTORE PUSH2 0x17BD JUMP JUMPDEST PUSH2 0xC4B JUMP JUMPDEST POP SWAP5 SWAP9 SWAP8 SWAP1 SWAP7 SWAP3 SWAP6 SWAP8 DUP5 DUP8 DUP11 MLOAD DUP12 DUP2 MSTORE PUSH32 0x4A39DC06D4C0DBC64B70AF90FD698A233A518AA5D07E595D983B8C0526C8F7FB PUSH2 0xD0A DUP14 DUP4 ADD DUP9 PUSH2 0x1515 JUMP JUMPDEST SWAP2 DUP1 DUP4 SUB PUSH1 0x20 DUP3 ADD MSTORE DUP1 PUSH2 0xD1F CALLER SWAP5 DUP12 PUSH2 0x1515 JUMP JUMPDEST SUB SWAP1 LOG4 EXTCODESIZE PUSH2 0xD2B JUMPI DUP9 DUP1 RETURN JUMPDEST DUP8 SWAP9 SWAP7 SWAP8 MLOAD SWAP5 DUP6 SWAP4 DUP5 SWAP4 PUSH4 0xBC197C81 PUSH1 0xE0 SHL SWAP9 DUP10 DUP7 MSTORE CALLER DUP13 DUP8 ADD MSTORE PUSH1 0x24 DUP7 ADD MSTORE PUSH1 0x44 DUP6 ADD PUSH1 0xA0 SWAP1 MSTORE PUSH1 0xA4 DUP6 ADD PUSH2 0xD60 SWAP2 PUSH2 0x1515 JUMP JUMPDEST DUP3 DUP6 DUP3 SUB ADD PUSH1 0x64 DUP7 ADD MSTORE PUSH2 0xD73 SWAP2 PUSH2 0x1515 JUMP JUMPDEST SWAP1 DUP4 DUP3 SUB ADD PUSH1 0x84 DUP5 ADD MSTORE PUSH2 0xD86 SWAP2 PUSH2 0x13D5 JUMP JUMPDEST SUB DUP2 DUP7 GAS SWAP5 PUSH1 0x20 SWAP6 CALL DUP4 SWAP2 DUP2 PUSH2 0xE1F JUMPI JUMPDEST POP PUSH2 0xDFF JUMPI POP POP POP PUSH2 0xDA7 PUSH2 0x193C JUMP JUMPDEST PUSH4 0x8C379A0 EQ PUSH2 0xDCB JUMPI JUMPDEST SWAP1 MLOAD PUSH3 0x461BCD PUSH1 0xE5 SHL DUP2 MSTORE SWAP1 DUP2 SWAP1 PUSH2 0x33D SWAP1 DUP3 ADD PUSH2 0x19C7 JUMP JUMPDEST PUSH2 0xDD3 PUSH2 0x1957 JUMP JUMPDEST DUP1 PUSH2 0xDDE JUMPI POP PUSH2 0xDB2 JUMP JUMPDEST PUSH2 0x33D SWAP1 PUSH1 0x20 SWAP4 MLOAD SWAP4 DUP5 SWAP4 PUSH3 0x461BCD PUSH1 0xE5 SHL DUP6 MSTORE DUP5 ADD MSTORE PUSH1 0x24 DUP4 ADD SWAP1 PUSH2 0x13D5 JUMP JUMPDEST SWAP2 SWAP4 SWAP2 PUSH1 0x1 PUSH1 0x1 PUSH1 0xE0 SHL SUB NOT AND SUB PUSH2 0x394 JUMPI POP POP DUP2 DUP1 DUP1 DUP1 DUP1 DUP1 DUP1 DUP1 DUP9 DUP1 RETURN JUMPDEST PUSH2 0xE38 SWAP2 SWAP3 POP PUSH1 0x20 RETURNDATASIZE DUP2 GT PUSH2 0x419 JUMPI PUSH2 0x40A DUP2 DUP4 PUSH2 0x142A JUMP JUMPDEST SWAP1 DUP7 PUSH2 0xD97 JUMP JUMPDEST DUP7 MLOAD PUSH3 0x461BCD PUSH1 0xE5 SHL DUP2 MSTORE PUSH1 0x20 DUP2 DUP5 ADD MSTORE PUSH1 0x28 PUSH1 0x24 DUP3 ADD MSTORE PUSH32 0x455243313135353A2069647320616E6420616D6F756E7473206C656E67746820 PUSH1 0x44 DUP3 ADD MSTORE PUSH8 0xDAD2E6DAC2E8C6D PUSH1 0xC3 SHL PUSH1 0x64 DUP3 ADD MSTORE PUSH1 0x84 SWAP1 REVERT JUMPDEST POP DUP4 DUP7 MSTORE PUSH1 0x1 PUSH1 0x20 SWAP1 DUP2 MSTORE DUP8 DUP8 KECCAK256 CALLER DUP9 MSTORE SWAP1 MSTORE DUP7 DUP7 KECCAK256 SLOAD PUSH1 0xFF AND PUSH2 0xC29 JUMP JUMPDEST POP CALLVALUE PUSH2 0x197 JUMPI DUP2 PUSH1 0x3 NOT CALLDATASIZE ADD SLT PUSH2 0x197 JUMPI DUP1 CALLDATALOAD SWAP2 PUSH2 0xECE PUSH2 0x139E JUMP JUMPDEST SWAP3 PUSH2 0xED7 PUSH2 0x16E5 JUMP JUMPDEST PUSH1 0x6 SLOAD DUP2 LT ISZERO PUSH2 0x11BB JUMPI DUP1 DUP6 MSTORE PUSH1 0x20 SWAP4 PUSH1 0x5 DUP6 MSTORE DUP3 DUP7 KECCAK256 DUP4 MLOAD PUSH2 0xEF9 DUP2 PUSH2 0x13FA JUMP JUMPDEST PUSH2 0xF02 DUP3 PUSH2 0x15AD JUMP JUMPDEST DUP2 MSTORE PUSH1 0x1 PUSH2 0xF11 DUP2 DUP5 ADD PUSH2 0x15AD JUMP JUMPDEST DUP9 DUP4 ADD MSTORE PUSH1 0x2 DUP4 ADD SLOAD DUP7 DUP4 ADD MSTORE PUSH2 0xF2A PUSH1 0x3 DUP5 ADD PUSH2 0x15AD JUMP JUMPDEST PUSH1 0x60 DUP4 ADD MSTORE DUP7 DUP4 ADD SLOAD PUSH1 0x80 DUP4 ADD MSTORE PUSH1 0x5 DUP4 ADD SLOAD PUSH1 0xA0 DUP4 ADD MSTORE PUSH2 0xF4E PUSH1 0x6 DUP5 ADD PUSH2 0x15AD JUMP JUMPDEST PUSH1 0xC0 DUP4 ADD MSTORE PUSH2 0xF5F PUSH1 0x7 DUP5 ADD PUSH2 0x15AD JUMP JUMPDEST PUSH1 0xE0 DUP4 ADD MSTORE PUSH2 0xF70 PUSH1 0x8 DUP5 ADD PUSH2 0x15AD JUMP JUMPDEST PUSH2 0x100 DUP4 ADD MSTORE PUSH1 0x9 DUP4 ADD SLOAD PUSH2 0x120 DUP4 ADD MSTORE PUSH1 0xA DUP4 ADD SWAP1 DUP2 SLOAD PUSH2 0xF91 DUP2 PUSH2 0x144B JUMP JUMPDEST SWAP3 PUSH2 0xF9E DUP10 MLOAD SWAP5 DUP6 PUSH2 0x142A JUMP JUMPDEST DUP2 DUP5 MSTORE DUP12 MSTORE DUP10 DUP12 KECCAK256 DUP12 SWAP1 DUP12 DUP1 DUP7 ADD JUMPDEST DUP5 DUP5 LT PUSH2 0x119E JUMPI POP POP POP POP POP POP SWAP1 PUSH2 0x180 SWAP3 SWAP2 PUSH2 0x140 DUP3 ADD MSTORE PUSH1 0xC PUSH1 0xB DUP4 ADD SLOAD SWAP3 DUP4 PUSH2 0x160 DUP5 ADD MSTORE ADD SLOAD SWAP3 DUP4 SWAP2 ADD MSTORE DUP2 DUP2 MUL SWAP2 DUP2 DUP4 DIV EQ SWAP1 ISZERO OR ISZERO PUSH2 0x118B JUMPI DUP4 MLOAD SWAP3 DUP7 DUP5 ADD DUP5 DUP2 LT PUSH1 0x1 PUSH1 0x1 PUSH1 0x40 SHL SUB DUP3 GT OR PUSH2 0x1178 JUMPI DUP6 MSTORE DUP8 DUP5 MSTORE PUSH1 0x1 PUSH1 0x1 PUSH1 0xA0 SHL SUB DUP4 AND SWAP3 DUP4 ISZERO PUSH2 0x112B JUMPI PUSH2 0x1023 DUP3 PUSH2 0x1A1C JUMP JUMPDEST POP PUSH2 0x102D DUP4 PUSH2 0x1A1C JUMP JUMPDEST POP DUP2 DUP10 MSTORE DUP9 DUP9 MSTORE DUP6 DUP10 KECCAK256 DUP5 DUP11 MSTORE DUP9 MSTORE DUP6 DUP10 KECCAK256 PUSH2 0x104A DUP5 DUP3 SLOAD PUSH2 0x190F JUMP JUMPDEST SWAP1 SSTORE DUP4 DUP10 DUP8 MLOAD DUP5 DUP2 MSTORE DUP6 DUP12 DUP3 ADD MSTORE PUSH32 0xC3D58168C5AE7397731D063D5BBF3D657854427343F4C083240F7AACAA2D0F62 DUP10 CALLER SWAP3 LOG4 EXTCODESIZE PUSH2 0x1086 JUMPI DUP8 DUP1 RETURN JUMPDEST SWAP3 PUSH2 0x10CF SWAP3 DUP8 SWAP9 SWAP6 SWAP7 SWAP8 SWAP3 DUP7 DUP10 SWAP7 DUP10 MLOAD SWAP7 DUP8 SWAP6 DUP7 SWAP5 DUP6 SWAP4 PUSH4 0xF23A6E61 PUSH1 0xE0 SHL SWAP12 DUP13 DUP7 MSTORE CALLER SWAP1 DUP7 ADD MSTORE DUP6 PUSH1 0x24 DUP7 ADD MSTORE PUSH1 0x44 DUP6 ADD MSTORE PUSH1 0x64 DUP5 ADD MSTORE PUSH1 0xA0 PUSH1 0x84 DUP5 ADD MSTORE PUSH1 0xA4 DUP4 ADD SWAP1 PUSH2 0x13D5 JUMP JUMPDEST SUB SWAP3 GAS CALL DUP4 SWAP2 DUP2 PUSH2 0x110C JUMPI JUMPDEST POP PUSH2 0x10EB JUMPI POP POP POP PUSH2 0x319 PUSH2 0x193C JUMP JUMPDEST SWAP2 SWAP5 POP PUSH1 0x1 PUSH1 0x1 PUSH1 0xE0 SHL SUB NOT SWAP1 SWAP2 AND SUB PUSH2 0x394 JUMPI POP POP PUSH0 DUP1 DUP1 DUP1 DUP1 DUP1 DUP1 DUP8 DUP1 RETURN JUMPDEST PUSH2 0x1124 SWAP2 SWAP3 POP DUP8 RETURNDATASIZE DUP10 GT PUSH2 0x419 JUMPI PUSH2 0x40A DUP2 DUP4 PUSH2 0x142A JUMP JUMPDEST SWAP1 PUSH0 PUSH2 0x10DB JUMP JUMPDEST DUP6 MLOAD PUSH3 0x461BCD PUSH1 0xE5 SHL DUP2 MSTORE DUP1 DUP9 ADD DUP10 SWAP1 MSTORE PUSH1 0x21 PUSH1 0x24 DUP3 ADD MSTORE PUSH32 0x455243313135353A206D696E7420746F20746865207A65726F20616464726573 PUSH1 0x44 DUP3 ADD MSTORE PUSH1 0x73 PUSH1 0xF8 SHL PUSH1 0x64 DUP3 ADD MSTORE PUSH1 0x84 SWAP1 REVERT JUMPDEST PUSH4 0x4E487B71 PUSH1 0xE0 SHL DUP10 MSTORE PUSH1 0x41 DUP8 MSTORE PUSH1 0x24 DUP10 REVERT JUMPDEST PUSH4 0x4E487B71 PUSH1 0xE0 SHL DUP8 MSTORE PUSH1 0x11 DUP6 MSTORE PUSH1 0x24 DUP8 REVERT JUMPDEST DUP6 SWAP2 DUP3 SWAP2 PUSH2 0x11AB DUP6 PUSH2 0x15AD JUMP JUMPDEST DUP2 MSTORE ADD SWAP3 ADD SWAP3 ADD SWAP2 SWAP1 DUP13 SWAP1 PUSH2 0xFAD JUMP JUMPDEST DUP2 MLOAD PUSH3 0x461BCD PUSH1 0xE5 SHL DUP2 MSTORE PUSH1 0x20 DUP2 DUP6 ADD MSTORE PUSH1 0x17 PUSH1 0x24 DUP3 ADD MSTORE PUSH32 0x546F6B656E20494420646F6573206E6F74206578697374000000000000000000 PUSH1 0x44 DUP3 ADD MSTORE PUSH1 0x64 SWAP1 REVERT JUMPDEST POP POP CALLVALUE PUSH2 0x491 JUMPI PUSH1 0x20 SWAP1 DUP2 PUSH1 0x3 NOT CALLDATASIZE ADD SLT PUSH2 0x197 JUMPI DUP1 MLOAD DUP4 DUP2 SWAP5 SWAP1 PUSH1 0x2 SLOAD PUSH2 0x1225 DUP2 PUSH2 0x1575 JUMP JUMPDEST SWAP2 DUP3 DUP6 MSTORE PUSH1 0x1 SWAP2 DUP8 DUP4 DUP3 AND SWAP2 DUP3 PUSH0 EQ PUSH2 0x12C0 JUMPI POP POP PUSH1 0x1 EQ PUSH2 0x1264 JUMPI JUMPDEST POP POP POP PUSH2 0x52C SWAP3 SWAP2 PUSH2 0x1255 SWAP2 SUB DUP6 PUSH2 0x142A JUMP JUMPDEST MLOAD SWAP3 DUP3 DUP5 SWAP4 DUP5 MSTORE DUP4 ADD SWAP1 PUSH2 0x13D5 JUMP JUMPDEST SWAP2 SWAP1 DUP7 SWAP4 POP PUSH1 0x2 DUP4 MSTORE PUSH32 0x405787FA12A823E0F2B7631CC41B3BA8828B3321CA811111FA75CD3AA3BB5ACE JUMPDEST DUP3 DUP5 LT PUSH2 0x12A8 JUMPI POP POP POP DUP3 ADD ADD DUP2 PUSH2 0x1255 PUSH2 0x52C PUSH2 0x1242 JUMP JUMPDEST DUP1 SLOAD DUP5 DUP11 ADD DUP7 ADD MSTORE DUP9 SWAP6 POP DUP8 SWAP5 SWAP1 SWAP4 ADD SWAP3 DUP2 ADD PUSH2 0x128F JUMP JUMPDEST PUSH1 0xFF NOT AND DUP8 DUP3 ADD MSTORE SWAP4 ISZERO ISZERO PUSH1 0x5 SHL DUP7 ADD SWAP1 SWAP4 ADD SWAP4 POP DUP5 SWAP3 POP PUSH2 0x1255 SWAP2 POP PUSH2 0x52C SWAP1 POP PUSH2 0x1242 JUMP JUMPDEST POP CALLVALUE PUSH2 0x197 JUMPI PUSH1 0x20 CALLDATASIZE PUSH1 0x3 NOT ADD SLT PUSH2 0x197 JUMPI CALLDATALOAD SWAP1 PUSH4 0xFFFFFFFF PUSH1 0xE0 SHL DUP3 AND DUP1 SWAP3 SUB PUSH2 0x197 JUMPI PUSH1 0x20 SWAP3 POP PUSH4 0x6CDB3D13 PUSH1 0xE1 SHL DUP3 EQ SWAP2 DUP3 ISZERO PUSH2 0x1343 JUMPI JUMPDEST DUP3 ISZERO PUSH2 0x1332 JUMPI JUMPDEST POP MLOAD SWAP1 ISZERO ISZERO DUP2 MSTORE RETURN JUMPDEST PUSH4 0x1FFC9A7 PUSH1 0xE0 SHL EQ SWAP2 POP PUSH0 PUSH2 0x1329 JUMP JUMPDEST PUSH4 0x3A24D07 PUSH1 0xE2 SHL DUP2 EQ SWAP3 POP PUSH2 0x1322 JUMP JUMPDEST POP POP CALLVALUE PUSH2 0x491 JUMPI DUP1 PUSH1 0x3 NOT CALLDATASIZE ADD SLT PUSH2 0x491 JUMPI PUSH1 0x20 SWAP1 PUSH2 0x137D PUSH2 0x1374 PUSH2 0x1384 JUMP JUMPDEST PUSH1 0x24 CALLDATALOAD SWAP1 PUSH2 0x173D JUMP JUMPDEST SWAP1 MLOAD SWAP1 DUP2 MSTORE RETURN JUMPDEST PUSH1 0x4 CALLDATALOAD SWAP1 PUSH1 0x1 PUSH1 0x1 PUSH1 0xA0 SHL SUB DUP3 AND DUP3 SUB PUSH2 0x139A JUMPI JUMP JUMPDEST PUSH0 DUP1 REVERT JUMPDEST PUSH1 0x24 CALLDATALOAD SWAP1 PUSH1 0x1 PUSH1 0x1 PUSH1 0xA0 SHL SUB DUP3 AND DUP3 SUB PUSH2 0x139A JUMPI JUMP JUMPDEST PUSH0 JUMPDEST DUP4 DUP2 LT PUSH2 0x13C5 JUMPI POP POP PUSH0 SWAP2 ADD MSTORE JUMP JUMPDEST DUP2 DUP2 ADD MLOAD DUP4 DUP3 ADD MSTORE PUSH1 0x20 ADD PUSH2 0x13B6 JUMP JUMPDEST SWAP1 PUSH1 0x20 SWAP2 PUSH2 0x13EE DUP2 MLOAD DUP1 SWAP3 DUP2 DUP6 MSTORE DUP6 DUP1 DUP7 ADD SWAP2 ADD PUSH2 0x13B4 JUMP JUMPDEST PUSH1 0x1F ADD PUSH1 0x1F NOT AND ADD ADD SWAP1 JUMP JUMPDEST PUSH2 0x1A0 DUP2 ADD SWAP1 DUP2 LT PUSH1 0x1 PUSH1 0x1 PUSH1 0x40 SHL SUB DUP3 GT OR PUSH2 0x1416 JUMPI PUSH1 0x40 MSTORE JUMP JUMPDEST PUSH4 0x4E487B71 PUSH1 0xE0 SHL PUSH0 MSTORE PUSH1 0x41 PUSH1 0x4 MSTORE PUSH1 0x24 PUSH0 REVERT JUMPDEST SWAP1 PUSH1 0x1F DUP1 NOT SWAP2 ADD AND DUP2 ADD SWAP1 DUP2 LT PUSH1 0x1 PUSH1 0x1 PUSH1 0x40 SHL SUB DUP3 GT OR PUSH2 0x1416 JUMPI PUSH1 0x40 MSTORE JUMP JUMPDEST PUSH1 0x1 PUSH1 0x1 PUSH1 0x40 SHL SUB DUP2 GT PUSH2 0x1416 JUMPI PUSH1 0x5 SHL PUSH1 0x20 ADD SWAP1 JUMP JUMPDEST SWAP1 DUP1 PUSH1 0x1F DUP4 ADD SLT ISZERO PUSH2 0x139A JUMPI PUSH1 0x20 SWAP1 DUP3 CALLDATALOAD PUSH2 0x147C DUP2 PUSH2 0x144B JUMP JUMPDEST SWAP4 PUSH2 0x148A PUSH1 0x40 MLOAD SWAP6 DUP7 PUSH2 0x142A JUMP JUMPDEST DUP2 DUP6 MSTORE DUP4 DUP1 DUP7 ADD SWAP3 PUSH1 0x5 SHL DUP3 ADD ADD SWAP3 DUP4 GT PUSH2 0x139A JUMPI DUP4 ADD SWAP1 JUMPDEST DUP3 DUP3 LT PUSH2 0x14B1 JUMPI POP POP POP POP SWAP1 JUMP JUMPDEST DUP2 CALLDATALOAD DUP2 MSTORE SWAP1 DUP4 ADD SWAP1 DUP4 ADD PUSH2 0x14A3 JUMP JUMPDEST DUP2 PUSH1 0x1F DUP3 ADD SLT ISZERO PUSH2 0x139A JUMPI DUP1 CALLDATALOAD SWAP1 PUSH1 0x1 PUSH1 0x1 PUSH1 0x40 SHL SUB DUP3 GT PUSH2 0x1416 JUMPI PUSH1 0x40 MLOAD SWAP3 PUSH2 0x14F4 PUSH1 0x1F DUP5 ADD PUSH1 0x1F NOT AND PUSH1 0x20 ADD DUP6 PUSH2 0x142A JUMP JUMPDEST DUP3 DUP5 MSTORE PUSH1 0x20 DUP4 DUP4 ADD ADD GT PUSH2 0x139A JUMPI DUP2 PUSH0 SWAP3 PUSH1 0x20 DUP1 SWAP4 ADD DUP4 DUP7 ADD CALLDATACOPY DUP4 ADD ADD MSTORE SWAP1 JUMP JUMPDEST SWAP1 DUP2 MLOAD DUP1 DUP3 MSTORE PUSH1 0x20 DUP1 DUP1 SWAP4 ADD SWAP4 ADD SWAP2 PUSH0 JUMPDEST DUP3 DUP2 LT PUSH2 0x1534 JUMPI POP POP POP POP SWAP1 JUMP JUMPDEST DUP4 MLOAD DUP6 MSTORE SWAP4 DUP2 ADD SWAP4 SWAP3 DUP2 ADD SWAP3 PUSH1 0x1 ADD PUSH2 0x1526 JUMP JUMPDEST DUP1 SLOAD DUP3 LT ISZERO PUSH2 0x1561 JUMPI PUSH0 MSTORE PUSH1 0xD PUSH1 0x20 PUSH0 KECCAK256 SWAP2 MUL ADD SWAP1 PUSH0 SWAP1 JUMP JUMPDEST PUSH4 0x4E487B71 PUSH1 0xE0 SHL PUSH0 MSTORE PUSH1 0x32 PUSH1 0x4 MSTORE PUSH1 0x24 PUSH0 REVERT JUMPDEST SWAP1 PUSH1 0x1 DUP3 DUP2 SHR SWAP3 AND DUP1 ISZERO PUSH2 0x15A3 JUMPI JUMPDEST PUSH1 0x20 DUP4 LT EQ PUSH2 0x158F JUMPI JUMP JUMPDEST PUSH4 0x4E487B71 PUSH1 0xE0 SHL PUSH0 MSTORE PUSH1 0x22 PUSH1 0x4 MSTORE PUSH1 0x24 PUSH0 REVERT JUMPDEST SWAP2 PUSH1 0x7F AND SWAP2 PUSH2 0x1584 JUMP JUMPDEST SWAP1 PUSH1 0x40 MLOAD SWAP2 DUP3 PUSH0 DUP3 SLOAD PUSH2 0x15BF DUP2 PUSH2 0x1575 JUMP JUMPDEST SWAP1 DUP2 DUP5 MSTORE PUSH1 0x20 SWAP5 PUSH1 0x1 SWAP2 DUP3 DUP2 AND SWAP1 DUP2 PUSH0 EQ PUSH2 0x162C JUMPI POP PUSH1 0x1 EQ PUSH2 0x15EE JUMPI JUMPDEST POP POP POP PUSH2 0x15EC SWAP3 POP SUB DUP4 PUSH2 0x142A JUMP JUMPDEST JUMP JUMPDEST PUSH0 SWAP1 DUP2 MSTORE DUP6 DUP2 KECCAK256 SWAP6 SWAP4 POP SWAP2 SWAP1 JUMPDEST DUP2 DUP4 LT PUSH2 0x1614 JUMPI POP POP PUSH2 0x15EC SWAP4 POP DUP3 ADD ADD PUSH0 DUP1 DUP1 PUSH2 0x15DD JUMP JUMPDEST DUP6 SLOAD DUP9 DUP5 ADD DUP6 ADD MSTORE SWAP5 DUP6 ADD SWAP5 DUP8 SWAP5 POP SWAP2 DUP4 ADD SWAP2 PUSH2 0x15FB JUMP JUMPDEST SWAP3 POP POP POP PUSH2 0x15EC SWAP5 SWAP3 POP PUSH1 0xFF NOT AND DUP3 DUP5 ADD MSTORE ISZERO ISZERO PUSH1 0x5 SHL DUP3 ADD ADD PUSH0 DUP1 DUP1 PUSH2 0x15DD JUMP JUMPDEST SWAP9 SWAP6 PUSH2 0x169F DUP11 PUSH2 0x160 SWAP13 SWAP16 SWAP15 SWAP14 SWAP11 SWAP7 PUSH2 0x16B7 SWAP7 PUSH1 0x40 PUSH2 0x168F PUSH2 0x16C5 SWAP12 SWAP9 PUSH2 0x1681 PUSH2 0x16D4 SWAP16 SWAP10 PUSH2 0x180 DUP1 DUP10 MSTORE DUP9 ADD SWAP1 PUSH2 0x13D5 JUMP JUMPDEST SWAP1 DUP7 DUP3 SUB PUSH1 0x20 DUP9 ADD MSTORE PUSH2 0x13D5 JUMP JUMPDEST SWAP4 ADD MSTORE DUP13 DUP3 SUB PUSH1 0x60 DUP15 ADD MSTORE PUSH2 0x13D5 JUMP JUMPDEST SWAP3 PUSH1 0x80 DUP12 ADD MSTORE PUSH1 0xA0 DUP11 ADD MSTORE DUP9 DUP3 SUB PUSH1 0xC0 DUP11 ADD MSTORE PUSH2 0x13D5 JUMP JUMPDEST SWAP1 DUP7 DUP3 SUB PUSH1 0xE0 DUP9 ADD MSTORE PUSH2 0x13D5 JUMP JUMPDEST SWAP1 DUP5 DUP3 SUB PUSH2 0x100 DUP7 ADD MSTORE PUSH2 0x13D5 JUMP JUMPDEST SWAP6 PUSH2 0x120 DUP4 ADD MSTORE PUSH2 0x140 DUP3 ADD MSTORE ADD MSTORE JUMP JUMPDEST PUSH1 0x3 SLOAD PUSH1 0x1 PUSH1 0x1 PUSH1 0xA0 SHL SUB AND CALLER SUB PUSH2 0x16F9 JUMPI JUMP JUMPDEST PUSH1 0x64 PUSH1 0x40 MLOAD PUSH3 0x461BCD PUSH1 0xE5 SHL DUP2 MSTORE PUSH1 0x20 PUSH1 0x4 DUP3 ADD MSTORE PUSH1 0x20 PUSH1 0x24 DUP3 ADD MSTORE PUSH32 0x4F776E61626C653A2063616C6C6572206973206E6F7420746865206F776E6572 PUSH1 0x44 DUP3 ADD MSTORE REVERT JUMPDEST PUSH1 0x1 PUSH1 0x1 PUSH1 0xA0 SHL SUB AND SWAP1 DUP2 ISZERO PUSH2 0x1765 JUMPI PUSH0 MSTORE PUSH0 PUSH1 0x20 MSTORE PUSH1 0x40 PUSH0 KECCAK256 SWAP1 PUSH0 MSTORE PUSH1 0x20 MSTORE PUSH1 0x40 PUSH0 KECCAK256 SLOAD SWAP1 JUMP JUMPDEST PUSH1 0x40 MLOAD PUSH3 0x461BCD PUSH1 0xE5 SHL DUP2 MSTORE PUSH1 0x20 PUSH1 0x4 DUP3 ADD MSTORE PUSH1 0x2A PUSH1 0x24 DUP3 ADD MSTORE PUSH32 0x455243313135353A2061646472657373207A65726F206973206E6F7420612076 PUSH1 0x44 DUP3 ADD MSTORE PUSH10 0x30B634B21037BBB732B9 PUSH1 0xB1 SHL PUSH1 0x64 DUP3 ADD MSTORE PUSH1 0x84 SWAP1 REVERT JUMPDEST PUSH0 NOT DUP2 EQ PUSH2 0x17CB JUMPI PUSH1 0x1 ADD SWAP1 JUMP JUMPDEST PUSH4 0x4E487B71 PUSH1 0xE0 SHL PUSH0 MSTORE PUSH1 0x11 PUSH1 0x4 MSTORE PUSH1 0x24 PUSH0 REVERT JUMPDEST DUP1 MLOAD DUP3 LT ISZERO PUSH2 0x1561 JUMPI PUSH1 0x20 SWAP2 PUSH1 0x5 SHL ADD ADD SWAP1 JUMP JUMPDEST ISZERO PUSH2 0x17FA JUMPI JUMP JUMPDEST PUSH1 0x40 MLOAD PUSH3 0x461BCD PUSH1 0xE5 SHL DUP2 MSTORE PUSH1 0x20 PUSH1 0x4 DUP3 ADD MSTORE PUSH1 0x2E PUSH1 0x24 DUP3 ADD MSTORE PUSH32 0x455243313135353A2063616C6C6572206973206E6F7420746F6B656E206F776E PUSH1 0x44 DUP3 ADD MSTORE PUSH14 0x195C881BDC88185C1C1C9BDD9959 PUSH1 0x92 SHL PUSH1 0x64 DUP3 ADD MSTORE PUSH1 0x84 SWAP1 REVERT JUMPDEST ISZERO PUSH2 0x185D JUMPI JUMP JUMPDEST PUSH1 0x40 MLOAD PUSH3 0x461BCD PUSH1 0xE5 SHL DUP2 MSTORE PUSH1 0x20 PUSH1 0x4 DUP3 ADD MSTORE PUSH1 0x25 PUSH1 0x24 DUP3 ADD MSTORE PUSH32 0x455243313135353A207472616E7366657220746F20746865207A65726F206164 PUSH1 0x44 DUP3 ADD MSTORE PUSH5 0x6472657373 PUSH1 0xD8 SHL PUSH1 0x64 DUP3 ADD MSTORE PUSH1 0x84 SWAP1 REVERT JUMPDEST ISZERO PUSH2 0x18B7 JUMPI JUMP JUMPDEST PUSH1 0x40 MLOAD PUSH3 0x461BCD PUSH1 0xE5 SHL DUP2 MSTORE PUSH1 0x20 PUSH1 0x4 DUP3 ADD MSTORE PUSH1 0x2A PUSH1 0x24 DUP3 ADD MSTORE PUSH32 0x455243313135353A20696E73756666696369656E742062616C616E636520666F PUSH1 0x44 DUP3 ADD MSTORE PUSH10 0x39103A3930B739B332B9 PUSH1 0xB1 SHL PUSH1 0x64 DUP3 ADD MSTORE PUSH1 0x84 SWAP1 REVERT JUMPDEST SWAP2 SWAP1 DUP3 ADD DUP1 SWAP3 GT PUSH2 0x17CB JUMPI JUMP JUMPDEST SWAP1 DUP2 PUSH1 0x20 SWAP2 SUB SLT PUSH2 0x139A JUMPI MLOAD PUSH1 0x1 PUSH1 0x1 PUSH1 0xE0 SHL SUB NOT DUP2 AND DUP2 SUB PUSH2 0x139A JUMPI SWAP1 JUMP JUMPDEST PUSH0 SWAP1 PUSH1 0x3 RETURNDATASIZE GT PUSH2 0x1948 JUMPI JUMP JUMPDEST SWAP1 POP PUSH1 0x4 PUSH0 DUP1 RETURNDATACOPY PUSH0 MLOAD PUSH1 0xE0 SHR SWAP1 JUMP JUMPDEST PUSH0 PUSH1 0x44 RETURNDATASIZE LT PUSH2 0x19B3 JUMPI PUSH1 0x40 MLOAD PUSH1 0x3 NOT SWAP2 RETURNDATASIZE DUP4 ADD PUSH1 0x4 DUP4 RETURNDATACOPY DUP2 MLOAD PUSH1 0x1 PUSH1 0x1 PUSH1 0x40 SHL SUB SWAP2 DUP3 DUP3 GT RETURNDATASIZE PUSH1 0x24 DUP5 ADD GT OR PUSH2 0x19B6 JUMPI DUP2 DUP5 ADD SWAP5 DUP6 MLOAD SWAP4 DUP5 GT PUSH2 0x19BE JUMPI RETURNDATASIZE DUP6 ADD ADD PUSH1 0x20 DUP5 DUP8 ADD ADD GT PUSH2 0x19B6 JUMPI POP PUSH2 0x19B3 SWAP3 SWAP2 ADD PUSH1 0x20 ADD SWAP1 PUSH2 0x142A JUMP JUMPDEST SWAP1 JUMP JUMPDEST SWAP5 SWAP4 POP POP POP POP JUMP JUMPDEST POP SWAP5 SWAP4 POP POP POP POP JUMP JUMPDEST PUSH1 0x80 SWAP1 PUSH1 0x20 DUP2 MSTORE PUSH1 0x34 PUSH1 0x20 DUP3 ADD MSTORE PUSH32 0x455243313135353A207472616E7366657220746F206E6F6E2D45524331313535 PUSH1 0x40 DUP3 ADD MSTORE PUSH20 0x2932B1B2B4BB32B91034B6B83632B6B2B73A32B9 PUSH1 0x61 SHL PUSH1 0x60 DUP3 ADD MSTORE ADD SWAP1 JUMP JUMPDEST PUSH1 0x40 MLOAD SWAP1 PUSH1 0x40 DUP3 ADD DUP3 DUP2 LT PUSH1 0x1 PUSH1 0x1 PUSH1 0x40 SHL SUB DUP3 GT OR PUSH2 0x1416 JUMPI PUSH1 0x40 MSTORE PUSH1 0x1 DUP3 MSTORE PUSH1 0x20 DUP3 ADD PUSH1 0x20 CALLDATASIZE DUP3 CALLDATACOPY DUP3 MLOAD ISZERO PUSH2 0x1561 JUMPI MSTORE SWAP1 JUMP JUMPDEST DUP2 DUP2 LT PUSH2 0x1A5C JUMPI POP POP JUMP JUMPDEST PUSH0 DUP2 SSTORE PUSH1 0x1 ADD PUSH2 0x1A51 JUMP JUMPDEST SWAP1 DUP1 MLOAD DUP1 MLOAD PUSH1 0x1 PUSH1 0x1 PUSH1 0x40 SHL SUB SWAP1 DUP2 DUP2 GT PUSH2 0x1416 JUMPI PUSH2 0x1A86 DUP6 SLOAD PUSH2 0x1575 JUMP JUMPDEST SWAP3 PUSH1 0x1F SWAP4 DUP5 DUP2 GT PUSH2 0x21CA JUMPI JUMPDEST POP PUSH1 0x20 SWAP1 DUP5 DUP4 GT PUSH1 0x1 EQ PUSH2 0x2167 JUMPI PUSH2 0x1AC1 SWAP3 SWAP2 PUSH0 SWAP2 DUP4 PUSH2 0x1D65 JUMPI JUMPDEST POP POP DUP2 PUSH1 0x1 SHL SWAP2 PUSH0 NOT SWAP1 PUSH1 0x3 SHL SHR NOT AND OR SWAP1 JUMP JUMPDEST DUP5 SSTORE JUMPDEST PUSH1 0x1 SWAP1 DUP2 DUP6 ADD PUSH1 0x20 DUP6 ADD MLOAD DUP1 MLOAD SWAP1 DUP4 DUP3 GT PUSH2 0x1416 JUMPI PUSH2 0x1AE3 DUP4 SLOAD PUSH2 0x1575 JUMP JUMPDEST DUP7 DUP2 GT PUSH2 0x2139 JUMPI JUMPDEST POP PUSH1 0x20 SWAP1 DUP7 DUP4 GT PUSH1 0x1 EQ PUSH2 0x20DB JUMPI PUSH2 0x1B19 SWAP3 SWAP2 PUSH0 SWAP2 DUP4 PUSH2 0x1D65 JUMPI POP POP DUP2 PUSH1 0x1 SHL SWAP2 PUSH0 NOT SWAP1 PUSH1 0x3 SHL SHR NOT AND OR SWAP1 JUMP JUMPDEST SWAP1 SSTORE JUMPDEST PUSH1 0x40 DUP5 ADD MLOAD PUSH1 0x2 DUP7 ADD SSTORE PUSH1 0x3 DUP1 DUP7 ADD PUSH1 0x60 DUP7 ADD MLOAD DUP1 MLOAD SWAP1 DUP5 DUP3 GT PUSH2 0x1416 JUMPI PUSH2 0x1B44 DUP4 SLOAD PUSH2 0x1575 JUMP JUMPDEST DUP8 DUP2 GT PUSH2 0x20A3 JUMPI JUMPDEST POP PUSH1 0x20 SWAP1 DUP8 DUP4 GT PUSH1 0x1 EQ PUSH2 0x2046 JUMPI PUSH2 0x1B7A SWAP3 SWAP2 PUSH0 SWAP2 DUP4 PUSH2 0x1D65 JUMPI POP POP DUP2 PUSH1 0x1 SHL SWAP2 PUSH0 NOT SWAP1 PUSH1 0x3 SHL SHR NOT AND OR SWAP1 JUMP JUMPDEST SWAP1 SSTORE JUMPDEST PUSH1 0x4 SWAP4 PUSH1 0x80 DUP7 ADD MLOAD DUP6 DUP9 ADD SSTORE PUSH1 0x5 SWAP3 PUSH1 0xA0 DUP8 ADD MLOAD DUP5 DUP10 ADD SSTORE PUSH1 0x6 DUP9 ADD PUSH1 0xC0 DUP9 ADD MLOAD DUP1 MLOAD SWAP1 DUP4 DUP3 GT PUSH2 0x1E8E JUMPI PUSH2 0x1BB2 DUP4 SLOAD PUSH2 0x1575 JUMP JUMPDEST DUP6 DUP2 GT PUSH2 0x201A JUMPI JUMPDEST POP PUSH1 0x20 SWAP1 DUP6 DUP4 GT PUSH1 0x1 EQ PUSH2 0x1FBD JUMPI PUSH2 0x1BE8 SWAP3 SWAP2 PUSH0 SWAP2 DUP4 PUSH2 0x1D65 JUMPI POP POP DUP2 PUSH1 0x1 SHL SWAP2 PUSH0 NOT SWAP1 PUSH1 0x3 SHL SHR NOT AND OR SWAP1 JUMP JUMPDEST SWAP1 SSTORE JUMPDEST PUSH1 0x7 DUP9 ADD PUSH1 0xE0 DUP9 ADD MLOAD DUP1 MLOAD SWAP1 DUP4 DUP3 GT PUSH2 0x1E8E JUMPI PUSH2 0x1C08 DUP4 SLOAD PUSH2 0x1575 JUMP JUMPDEST DUP6 DUP2 GT PUSH2 0x1F91 JUMPI JUMPDEST POP PUSH1 0x20 SWAP1 DUP6 DUP4 GT PUSH1 0x1 EQ PUSH2 0x1F34 JUMPI PUSH2 0x1C3E SWAP3 SWAP2 PUSH0 SWAP2 DUP4 PUSH2 0x1D65 JUMPI POP POP DUP2 PUSH1 0x1 SHL SWAP2 PUSH0 NOT SWAP1 PUSH1 0x3 SHL SHR NOT AND OR SWAP1 JUMP JUMPDEST SWAP1 SSTORE JUMPDEST PUSH1 0x8 DUP9 ADD PUSH2 0x100 DUP9 ADD MLOAD DUP1 MLOAD SWAP1 DUP4 DUP3 GT PUSH2 0x1E8E JUMPI PUSH2 0x1C5F DUP4 SLOAD PUSH2 0x1575 JUMP JUMPDEST DUP6 DUP2 GT PUSH2 0x1EFE JUMPI JUMPDEST POP PUSH1 0x20 SWAP1 DUP6 DUP4 GT PUSH1 0x1 EQ PUSH2 0x1EA1 JUMPI PUSH2 0x1C95 SWAP3 SWAP2 PUSH0 SWAP2 DUP4 PUSH2 0x1D65 JUMPI POP POP DUP2 PUSH1 0x1 SHL SWAP2 PUSH0 NOT SWAP1 PUSH1 0x3 SHL SHR NOT AND OR SWAP1 JUMP JUMPDEST SWAP1 SSTORE JUMPDEST PUSH2 0x120 DUP8 ADD MLOAD PUSH1 0x9 DUP10 ADD SSTORE PUSH1 0xA DUP9 ADD SWAP2 PUSH2 0x140 DUP9 ADD MLOAD SWAP5 DUP6 MLOAD SWAP6 PUSH1 0x1 PUSH1 0x40 SHL DUP8 GT PUSH2 0x1E8E JUMPI DUP5 SLOAD DUP8 DUP7 SSTORE DUP1 DUP9 LT PUSH2 0x1E1F JUMPI JUMPDEST POP PUSH0 SWAP5 DUP6 MSTORE PUSH1 0x20 DUP1 DUP7 KECCAK256 SWAP6 SWAP7 SWAP2 ADD JUMPDEST DUP8 DUP8 LT PUSH2 0x1D02 JUMPI POP POP POP POP POP POP POP POP POP POP PUSH2 0x180 DUP2 PUSH2 0x160 PUSH1 0xC SWAP4 ADD MLOAD PUSH1 0xB DUP6 ADD SSTORE ADD MLOAD SWAP2 ADD SSTORE JUMP JUMPDEST DUP1 MLOAD DUP1 MLOAD SWAP1 DUP7 DUP3 GT PUSH2 0x1E0C JUMPI SWAP1 DUP11 SWAP2 PUSH2 0x1D1B DUP10 SLOAD PUSH2 0x1575 JUMP JUMPDEST DUP8 DUP2 GT PUSH2 0x1DD6 JUMPI JUMPDEST POP PUSH1 0x20 SWAP1 DUP8 DUP4 GT PUSH1 0x1 EQ PUSH2 0x1D70 JUMPI DUP3 PUSH1 0x20 SWAP4 DUP6 SWAP7 SWAP4 PUSH2 0x1D56 SWAP4 PUSH0 SWAP3 PUSH2 0x1D65 JUMPI POP POP DUP2 PUSH1 0x1 SHL SWAP2 PUSH0 NOT SWAP1 PUSH1 0x3 SHL SHR NOT AND OR SWAP1 JUMP JUMPDEST DUP10 SSTORE JUMPDEST ADD SWAP7 ADD SWAP7 ADD SWAP6 SWAP5 PUSH2 0x1CD9 JUMP JUMPDEST ADD MLOAD SWAP1 POP PUSH0 DUP1 PUSH2 0x1AAD JUMP JUMPDEST SWAP1 PUSH1 0x1F NOT DUP4 AND SWAP2 DUP11 PUSH0 MSTORE DUP2 PUSH0 KECCAK256 SWAP3 PUSH0 JUMPDEST DUP2 DUP2 LT PUSH2 0x1DBE JUMPI POP SWAP3 DUP6 SWAP7 SWAP4 SWAP3 DUP6 SWAP3 PUSH1 0x20 SWAP7 DUP9 SWAP6 LT PUSH2 0x1DA7 JUMPI JUMPDEST POP POP POP DUP2 SHL ADD DUP10 SSTORE PUSH2 0x1D59 JUMP JUMPDEST ADD MLOAD PUSH0 NOT DUP4 DUP11 SHL PUSH1 0xF8 AND SHR NOT AND SWAP1 SSTORE PUSH0 DUP1 DUP1 PUSH2 0x1D9A JUMP JUMPDEST DUP3 DUP5 ADD MLOAD DUP6 SSTORE DUP16 SWAP7 SWAP1 SWAP5 ADD SWAP4 PUSH1 0x20 SWAP4 DUP5 ADD SWAP4 ADD PUSH2 0x1D80 JUMP JUMPDEST PUSH2 0x1DFD SWAP1 DUP11 PUSH0 MSTORE PUSH1 0x20 PUSH0 KECCAK256 DUP10 DUP1 DUP7 ADD DUP11 SHR DUP3 ADD SWAP3 PUSH1 0x20 DUP8 LT PUSH2 0x1E03 JUMPI JUMPDEST ADD DUP10 SHR ADD SWAP1 PUSH2 0x1A51 JUMP JUMPDEST PUSH0 PUSH2 0x1D23 JUMP JUMPDEST SWAP3 POP DUP2 SWAP3 PUSH2 0x1DF3 JUMP JUMPDEST PUSH1 0x41 DUP13 PUSH4 0x4E487B71 PUSH1 0xE0 SHL PUSH0 MSTORE MSTORE PUSH1 0x24 PUSH0 REVERT JUMPDEST DUP6 PUSH0 MSTORE DUP9 DUP9 PUSH1 0x20 PUSH0 KECCAK256 SWAP3 DUP4 ADD SWAP3 ADD JUMPDEST DUP3 DUP2 LT PUSH2 0x1E3C JUMPI POP POP PUSH2 0x1CCA JUMP JUMPDEST PUSH2 0x1E46 DUP2 SLOAD PUSH2 0x1575 JUMP JUMPDEST DUP1 PUSH2 0x1E55 JUMPI JUMPDEST POP ADD DUP10 SWAP1 PUSH2 0x1E2E JUMP JUMPDEST DUP7 DUP2 GT PUSH1 0x1 EQ PUSH2 0x1E6A JUMPI POP PUSH0 DUP2 SSTORE JUMPDEST PUSH0 PUSH2 0x1E4C JUMP JUMPDEST PUSH0 SWAP1 DUP3 DUP3 MSTORE PUSH2 0x1E85 DUP9 PUSH1 0x20 DUP5 KECCAK256 SWAP3 ADD DUP9 SHR DUP3 ADD DUP6 DUP4 ADD PUSH2 0x1A51 JUMP JUMPDEST DUP2 DUP4 SSTORE SSTORE PUSH2 0x1E64 JUMP JUMPDEST PUSH1 0x41 DUP10 PUSH4 0x4E487B71 PUSH1 0xE0 SHL PUSH0 MSTORE MSTORE PUSH1 0x24 PUSH0 REVERT JUMPDEST DUP9 SWAP3 SWAP2 PUSH1 0x1F NOT DUP4 AND SWAP2 DUP6 PUSH0 MSTORE DUP2 PUSH0 KECCAK256 SWAP3 PUSH0 JUMPDEST DUP2 DUP2 LT PUSH2 0x1EE6 JUMPI POP DUP5 GT PUSH2 0x1ECF JUMPI JUMPDEST POP POP POP DUP2 SHL ADD SWAP1 SSTORE PUSH2 0x1C98 JUMP JUMPDEST ADD MLOAD PUSH0 NOT DUP4 DUP10 SHL PUSH1 0xF8 AND SHR NOT AND SWAP1 SSTORE PUSH0 DUP1 DUP1 PUSH2 0x1EC2 JUMP JUMPDEST DUP3 DUP5 ADD MLOAD DUP6 SSTORE DUP13 SWAP7 SWAP1 SWAP5 ADD SWAP4 PUSH1 0x20 SWAP4 DUP5 ADD SWAP4 ADD PUSH2 0x1EB3 JUMP JUMPDEST PUSH2 0x1F25 SWAP1 DUP5 PUSH0 MSTORE PUSH1 0x20 PUSH0 KECCAK256 DUP8 DUP1 DUP7 ADD DUP12 SHR DUP3 ADD SWAP3 PUSH1 0x20 DUP8 LT PUSH2 0x1F2B JUMPI JUMPDEST ADD DUP11 SHR ADD SWAP1 PUSH2 0x1A51 JUMP JUMPDEST PUSH0 PUSH2 0x1C67 JUMP JUMPDEST SWAP3 POP DUP2 SWAP3 PUSH2 0x1F1B JUMP JUMPDEST DUP9 SWAP3 SWAP2 PUSH1 0x1F NOT DUP4 AND SWAP2 DUP6 PUSH0 MSTORE DUP2 PUSH0 KECCAK256 SWAP3 PUSH0 JUMPDEST DUP2 DUP2 LT PUSH2 0x1F79 JUMPI POP DUP5 GT PUSH2 0x1F62 JUMPI JUMPDEST POP POP POP DUP2 SHL ADD SWAP1 SSTORE PUSH2 0x1C41 JUMP JUMPDEST ADD MLOAD PUSH0 NOT DUP4 DUP10 SHL PUSH1 0xF8 AND SHR NOT AND SWAP1 SSTORE PUSH0 DUP1 DUP1 PUSH2 0x1F55 JUMP JUMPDEST DUP3 DUP5 ADD MLOAD DUP6 SSTORE DUP13 SWAP7 SWAP1 SWAP5 ADD SWAP4 PUSH1 0x20 SWAP4 DUP5 ADD SWAP4 ADD PUSH2 0x1F46 JUMP JUMPDEST PUSH2 0x1FB7 SWAP1 DUP5 PUSH0 MSTORE PUSH1 0x20 PUSH0 KECCAK256 DUP8 DUP1 DUP7 ADD DUP12 SHR DUP3 ADD SWAP3 PUSH1 0x20 DUP8 LT PUSH2 0x1F2B JUMPI ADD DUP11 SHR ADD SWAP1 PUSH2 0x1A51 JUMP JUMPDEST PUSH0 PUSH2 0x1C10 JUMP JUMPDEST DUP9 SWAP3 SWAP2 PUSH1 0x1F NOT DUP4 AND SWAP2 DUP6 PUSH0 MSTORE DUP2 PUSH0 KECCAK256 SWAP3 PUSH0 JUMPDEST DUP2 DUP2 LT PUSH2 0x2002 JUMPI POP DUP5 GT PUSH2 0x1FEB JUMPI JUMPDEST POP POP POP DUP2 SHL ADD SWAP1 SSTORE PUSH2 0x1BEB JUMP JUMPDEST ADD MLOAD PUSH0 NOT DUP4 DUP10 SHL PUSH1 0xF8 AND SHR NOT AND SWAP1 SSTORE PUSH0 DUP1 DUP1 PUSH2 0x1FDE JUMP JUMPDEST DUP3 DUP5 ADD MLOAD DUP6 SSTORE DUP13 SWAP7 SWAP1 SWAP5 ADD SWAP4 PUSH1 0x20 SWAP4 DUP5 ADD SWAP4 ADD PUSH2 0x1FCF JUMP JUMPDEST PUSH2 0x2040 SWAP1 DUP5 PUSH0 MSTORE PUSH1 0x20 PUSH0 KECCAK256 DUP8 DUP1 DUP7 ADD DUP12 SHR DUP3 ADD SWAP3 PUSH1 0x20 DUP8 LT PUSH2 0x1F2B JUMPI ADD DUP11 SHR ADD SWAP1 PUSH2 0x1A51 JUMP JUMPDEST PUSH0 PUSH2 0x1BBA JUMP JUMPDEST DUP7 SWAP3 SWAP2 PUSH1 0x1F NOT DUP4 AND SWAP2 DUP6 PUSH0 MSTORE DUP2 PUSH0 KECCAK256 SWAP3 PUSH0 JUMPDEST DUP2 DUP2 LT PUSH2 0x208B JUMPI POP DUP5 GT PUSH2 0x2074 JUMPI JUMPDEST POP POP POP DUP2 SHL ADD SWAP1 SSTORE PUSH2 0x1B7D JUMP JUMPDEST ADD MLOAD PUSH0 NOT DUP4 DUP8 SHL PUSH1 0xF8 AND SHR NOT AND SWAP1 SSTORE PUSH0 DUP1 DUP1 PUSH2 0x2067 JUMP JUMPDEST DUP3 DUP5 ADD MLOAD DUP6 SSTORE DUP11 SWAP7 SWAP1 SWAP5 ADD SWAP4 PUSH1 0x20 SWAP4 DUP5 ADD SWAP4 ADD PUSH2 0x2058 JUMP JUMPDEST PUSH2 0x20CC SWAP1 DUP5 PUSH0 MSTORE PUSH1 0x20 PUSH0 KECCAK256 DUP10 DUP1 DUP7 ADD PUSH1 0x5 SHR DUP3 ADD SWAP3 PUSH1 0x20 DUP8 LT PUSH2 0x20D2 JUMPI JUMPDEST ADD PUSH1 0x5 SHR ADD SWAP1 PUSH2 0x1A51 JUMP JUMPDEST PUSH0 PUSH2 0x1B4C JUMP JUMPDEST SWAP3 POP DUP2 SWAP3 PUSH2 0x20C1 JUMP JUMPDEST DUP6 SWAP3 SWAP2 PUSH1 0x1F NOT DUP4 AND SWAP2 DUP6 PUSH0 MSTORE DUP2 PUSH0 KECCAK256 SWAP3 PUSH0 JUMPDEST DUP2 DUP2 LT PUSH2 0x2121 JUMPI POP DUP5 GT PUSH2 0x2109 JUMPI JUMPDEST POP POP POP DUP2 SHL ADD SWAP1 SSTORE PUSH2 0x1B1C JUMP JUMPDEST ADD MLOAD PUSH0 NOT PUSH1 0xF8 DUP5 PUSH1 0x3 SHL AND SHR NOT AND SWAP1 SSTORE PUSH0 DUP1 DUP1 PUSH2 0x20FC JUMP JUMPDEST DUP3 DUP5 ADD MLOAD DUP6 SSTORE DUP10 SWAP7 SWAP1 SWAP5 ADD SWAP4 PUSH1 0x20 SWAP4 DUP5 ADD SWAP4 ADD PUSH2 0x20ED JUMP JUMPDEST PUSH2 0x2161 SWAP1 DUP5 PUSH0 MSTORE PUSH1 0x20 PUSH0 KECCAK256 DUP9 DUP1 DUP7 ADD PUSH1 0x5 SHR DUP3 ADD SWAP3 PUSH1 0x20 DUP8 LT PUSH2 0x20D2 JUMPI ADD PUSH1 0x5 SHR ADD SWAP1 PUSH2 0x1A51 JUMP JUMPDEST PUSH0 PUSH2 0x1AEB JUMP JUMPDEST SWAP1 PUSH1 0x1F NOT DUP4 AND SWAP2 DUP8 PUSH0 MSTORE DUP2 PUSH0 KECCAK256 SWAP3 PUSH0 JUMPDEST DUP2 DUP2 LT PUSH2 0x21B2 JUMPI POP SWAP1 DUP5 PUSH1 0x1 SWAP6 SWAP5 SWAP4 SWAP3 LT PUSH2 0x219A JUMPI JUMPDEST POP POP POP DUP2 SHL ADD DUP5 SSTORE PUSH2 0x1AC4 JUMP JUMPDEST ADD MLOAD PUSH0 NOT PUSH1 0xF8 DUP5 PUSH1 0x3 SHL AND SHR NOT AND SWAP1 SSTORE PUSH0 DUP1 DUP1 PUSH2 0x218D JUMP JUMPDEST SWAP3 SWAP4 PUSH1 0x20 PUSH1 0x1 DUP2 SWAP3 DUP8 DUP7 ADD MLOAD DUP2 SSTORE ADD SWAP6 ADD SWAP4 ADD PUSH2 0x2177 JUMP JUMPDEST PUSH2 0x21F2 SWAP1 DUP8 PUSH0 MSTORE PUSH1 0x20 PUSH0 KECCAK256 DUP7 DUP1 DUP7 ADD PUSH1 0x5 SHR DUP3 ADD SWAP3 PUSH1 0x20 DUP8 LT PUSH2 0x20D2 JUMPI ADD PUSH1 0x5 SHR ADD SWAP1 PUSH2 0x1A51 JUMP JUMPDEST PUSH0 PUSH2 0x1A92 JUMP INVALID LOG2 PUSH5 0x6970667358 0x22 SLT KECCAK256 BLOCKHASH 0xC7 BALANCE CALLDATALOAD 0xC1 SWAP7 SHR ADD 0x26 CALLDATALOAD SWAP1 POP SWAP4 PUSH9 0x6E25A71FEF310A368C 0xE5 0x2F GAS SDIV 0xE7 DUP7 0xBC SWAP7 0x23 PUSH5 0x736F6C6343 STOP ADDMOD ISZERO STOP CALLER "},"methodIdentifiers":{"balanceOf(address,uint256)":"00fdd58e","balanceOfBatch(address[],uint256[])":"4e1273f4","createPolitician(string,string,uint256,string,uint256,uint256,string,string,string,uint256,string[],uint256,uint256)":"bf4a8c0c","createSet(string)":"c53c4fec","isApprovedForAll(address,address)":"e985e9c5","mintPolitician(uint256,address)":"158e7090","owner()":"8da5cb5b","politicians(uint256)":"e396c13f","politiciansBySet(string,uint256)":"85b476ff","renounceOwnership()":"715018a6","safeBatchTransferFrom(address,address,uint256[],uint256[],bytes)":"2eb2c2d6","safeTransferFrom(address,address,uint256,uint256,bytes)":"f242432a","setApprovalForAll(address,bool)":"a22cb465","supportsInterface(bytes4)":"01ffc9a7","transferOwnership(address)":"f2fde38b","uri(uint256)":"0e89341c"}}}}}