{
  "_format": "hh-sol-artifact-1",
  "contractName": "PoliticalCorruptionPacks",
  "sourceName": "contracts/PoliticalCorruptionPacks.sol",
  "abi": [
    {
      "inputs": [
        {
          "internalType": "string",
          "name": "uri",
          "type": "string"
        }
      ],
      "stateMutability": "nonpayable",
      "type": "constructor"
    },
    {
      "anonymous": false,
      "inputs": [
        {
          "indexed": true,
          "internalType": "address",
          "name": "account",
          "type": "address"
        },
        {
          "indexed": true,
          "internalType": "address",
          "name": "operator",
          "type": "address"
        },
        {
          "indexed": false,
          "internalType": "bool",
          "name": "approved",
          "type": "bool"
        }
      ],
      "name": "ApprovalForAll",
      "type": "event"
    },
    {
      "anonymous": false,
      "inputs": [
        {
          "indexed": true,
          "internalType": "address",
          "name": "previousOwner",
          "type": "address"
        },
        {
          "indexed": true,
          "internalType": "address",
          "name": "newOwner",
          "type": "address"
        }
      ],
      "name": "OwnershipTransferred",
      "type": "event"
    },
    {
      "anonymous": false,
      "inputs": [
        {
          "indexed": true,
          "internalType": "address",
          "name": "operator",
          "type": "address"
        },
        {
          "indexed": true,
          "internalType": "address",
          "name": "from",
          "type": "address"
        },
        {
          "indexed": true,
          "internalType": "address",
          "name": "to",
          "type": "address"
        },
        {
          "indexed": false,
          "internalType": "uint256[]",
          "name": "ids",
          "type": "uint256[]"
        },
        {
          "indexed": false,
          "internalType": "uint256[]",
          "name": "values",
          "type": "uint256[]"
        }
      ],
      "name": "TransferBatch",
      "type": "event"
    },
    {
      "anonymous": false,
      "inputs": [
        {
          "indexed": true,
          "internalType": "address",
          "name": "operator",
          "type": "address"
        },
        {
          "indexed": true,
          "internalType": "address",
          "name": "from",
          "type": "address"
        },
        {
          "indexed": true,
          "internalType": "address",
          "name": "to",
          "type": "address"
        },
        {
          "indexed": false,
          "internalType": "uint256",
          "name": "id",
          "type": "uint256"
        },
        {
          "indexed": false,
          "internalType": "uint256",
          "name": "value",
          "type": "uint256"
        }
      ],
      "name": "TransferSingle",
      "type": "event"
    },
    {
      "anonymous": false,
      "inputs": [
        {
          "indexed": false,
          "internalType": "string",
          "name": "value",
          "type": "string"
        },
        {
          "indexed": true,
          "internalType": "uint256",
          "name": "id",
          "type": "uint256"
        }
      ],
      "name": "URI",
      "type": "event"
    },
    {
      "inputs": [
        {
          "internalType": "address",
          "name": "account",
          "type": "address"
        },
        {
          "internalType": "uint256",
          "name": "id",
          "type": "uint256"
        }
      ],
      "name": "balanceOf",
      "outputs": [
        {
          "internalType": "uint256",
          "name": "",
          "type": "uint256"
        }
      ],
      "stateMutability": "view",
      "type": "function"
    },
    {
      "inputs": [
        {
          "internalType": "address[]",
          "name": "accounts",
          "type": "address[]"
        },
        {
          "internalType": "uint256[]",
          "name": "ids",
          "type": "uint256[]"
        }
      ],
      "name": "balanceOfBatch",
      "outputs": [
        {
          "internalType": "uint256[]",
          "name": "",
          "type": "uint256[]"
        }
      ],
      "stateMutability": "view",
      "type": "function"
    },
    {
      "inputs": [
        {
          "internalType": "string",
          "name": "_seriesName",
          "type": "string"
        },
        {
          "internalType": "string",
          "name": "_setName",
          "type": "string"
        },
        {
          "internalType": "uint256[]",
          "name": "_politicianTokenIds",
          "type": "uint256[]"
        },
        {
          "internalType": "uint256",
          "name": "_mintingCost",
          "type": "uint256"
        }
      ],
      "name": "createSeries",
      "outputs": [],
      "stateMutability": "nonpayable",
      "type": "function"
    },
    {
      "inputs": [
        {
          "internalType": "string",
          "name": "",
          "type": "string"
        }
      ],
      "name": "defaultDropRates",
      "outputs": [
        {
          "internalType": "uint256",
          "name": "",
          "type": "uint256"
        }
      ],
      "stateMutability": "view",
      "type": "function"
    },
    {
      "inputs": [
        {
          "internalType": "address",
          "name": "account",
          "type": "address"
        },
        {
          "internalType": "address",
          "name": "operator",
          "type": "address"
        }
      ],
      "name": "isApprovedForAll",
      "outputs": [
        {
          "internalType": "bool",
          "name": "",
          "type": "bool"
        }
      ],
      "stateMutability": "view",
      "type": "function"
    },
    {
      "inputs": [
        {
          "internalType": "string",
          "name": "_seriesName",
          "type": "string"
        }
      ],
      "name": "mintPack",
      "outputs": [],
      "stateMutability": "payable",
      "type": "function"
    },
    {
      "inputs": [
        {
          "internalType": "string",
          "name": "_seriesName",
          "type": "string"
        },
        {
          "internalType": "uint256",
          "name": "packTokenId",
          "type": "uint256"
        }
      ],
      "name": "openPack",
      "outputs": [],
      "stateMutability": "nonpayable",
      "type": "function"
    },
    {
      "inputs": [],
      "name": "owner",
      "outputs": [
        {
          "internalType": "address",
          "name": "",
          "type": "address"
        }
      ],
      "stateMutability": "view",
      "type": "function"
    },
    {
      "inputs": [],
      "name": "renounceOwnership",
      "outputs": [],
      "stateMutability": "nonpayable",
      "type": "function"
    },
    {
      "inputs": [
        {
          "internalType": "address",
          "name": "from",
          "type": "address"
        },
        {
          "internalType": "address",
          "name": "to",
          "type": "address"
        },
        {
          "internalType": "uint256[]",
          "name": "ids",
          "type": "uint256[]"
        },
        {
          "internalType": "uint256[]",
          "name": "amounts",
          "type": "uint256[]"
        },
        {
          "internalType": "bytes",
          "name": "data",
          "type": "bytes"
        }
      ],
      "name": "safeBatchTransferFrom",
      "outputs": [],
      "stateMutability": "nonpayable",
      "type": "function"
    },
    {
      "inputs": [
        {
          "internalType": "address",
          "name": "from",
          "type": "address"
        },
        {
          "internalType": "address",
          "name": "to",
          "type": "address"
        },
        {
          "internalType": "uint256",
          "name": "id",
          "type": "uint256"
        },
        {
          "internalType": "uint256",
          "name": "amount",
          "type": "uint256"
        },
        {
          "internalType": "bytes",
          "name": "data",
          "type": "bytes"
        }
      ],
      "name": "safeTransferFrom",
      "outputs": [],
      "stateMutability": "nonpayable",
      "type": "function"
    },
    {
      "inputs": [
        {
          "internalType": "string",
          "name": "",
          "type": "string"
        }
      ],
      "name": "series",
      "outputs": [
        {
          "internalType": "string",
          "name": "setName",
          "type": "string"
        },
        {
          "internalType": "uint256",
          "name": "mintingCost",
          "type": "uint256"
        }
      ],
      "stateMutability": "view",
      "type": "function"
    },
    {
      "inputs": [
        {
          "internalType": "address",
          "name": "operator",
          "type": "address"
        },
        {
          "internalType": "bool",
          "name": "approved",
          "type": "bool"
        }
      ],
      "name": "setApprovalForAll",
      "outputs": [],
      "stateMutability": "nonpayable",
      "type": "function"
    },
    {
      "inputs": [
        {
          "internalType": "string",
          "name": "rarity",
          "type": "string"
        },
        {
          "internalType": "uint256",
          "name": "rate",
          "type": "uint256"
        }
      ],
      "name": "setDefaultDropRate",
      "outputs": [],
      "stateMutability": "nonpayable",
      "type": "function"
    },
    {
      "inputs": [
        {
          "internalType": "bytes4",
          "name": "interfaceId",
          "type": "bytes4"
        }
      ],
      "name": "supportsInterface",
      "outputs": [
        {
          "internalType": "bool",
          "name": "",
          "type": "bool"
        }
      ],
      "stateMutability": "view",
      "type": "function"
    },
    {
      "inputs": [
        {
          "internalType": "address",
          "name": "newOwner",
          "type": "address"
        }
      ],
      "name": "transferOwnership",
      "outputs": [],
      "stateMutability": "nonpayable",
      "type": "function"
    },
    {
      "inputs": [
        {
          "internalType": "string",
          "name": "_seriesName",
          "type": "string"
        },
        {
          "internalType": "uint256",
          "name": "_tokenId",
          "type": "uint256"
        },
        {
          "internalType": "uint256",
          "name": "_dropRate",
          "type": "uint256"
        }
      ],
      "name": "updateDropRate",
      "outputs": [],
      "stateMutability": "nonpayable",
      "type": "function"
    },
    {
      "inputs": [
        {
          "internalType": "uint256",
          "name": "",
          "type": "uint256"
        }
      ],
      "name": "uri",
      "outputs": [
        {
          "internalType": "string",
          "name": "",
          "type": "string"
        }
      ],
      "stateMutability": "view",
      "type": "function"
    }
  ],
  "bytecode": "0x6080604052346200024c5762001e90803803806200001d8162000250565b928339810190602080828403126200024c5781516001600160401b03928382116200024c570192601f908082860112156200024c5784518481116200022357601f1995620000718285018816860162000250565b928284528583830101116200024c5784905f5b838110620002375750505f918301015280519384116200022357600254926001938481811c9116801562000218575b828210146200020457838111620001bb575b5080928511600114620001545750839450908392915f9462000148575b50501b915f199060031b1c1916176002555b60038054336001600160a01b03198216811790925560405191906001600160a01b03167f8be0079c531659141344cd1fd0a4f28419497f9722a3daafe3b4186f6b6457e05f80a3611c199081620002778239f35b015192505f80620000e2565b92948490811660025f52845f20945f905b88838310620001a0575050501062000187575b505050811b01600255620000f4565b01515f1960f88460031b161c191690555f808062000178565b85870151885590960195948501948793509081019062000165565b60025f52815f208480880160051c820192848910620001fa575b0160051c019085905b828110620001ee575050620000c5565b5f8155018590620001de565b92508192620001d5565b634e487b7160e01b5f52602260045260245ffd5b90607f1690620000b3565b634e487b7160e01b5f52604160045260245ffd5b81810183015185820184015286920162000084565b5f80fd5b6040519190601f01601f191682016001600160401b03811183821017620002235760405256fe60406080815260049081361015610014575f80fd5b5f91823560e01c8062fdd58e1461157357806301ffc9a71461150657806305685fa6146114ab5780630a761a051461146b5780630b29e5161461135a5780630e89341c146112715780632eb2c2d614610f5b5780634e1273f414610dbf578063715018a614610d625780638da5cb5b14610d39578063993d3c2614610b19578063a09d4a0314610ab9578063a22cb465146109dc578063d0b1f02514610704578063e985e9c5146106b2578063ec2ba0e114610459578063f242432a146101b15763f2fde38b146100e3575f80fd5b346101ad5760203660031901126101ad576100fc6115a3565b906101056117ea565b6001600160a01b0391821692831561015b575050600354826bffffffffffffffffffffffff60a01b821617600355167f8be0079c531659141344cd1fd0a4f28419497f9722a3daafe3b4186f6b6457e08380a380f35b906020608492519162461bcd60e51b8352820152602660248201527f4f776e61626c653a206e6577206f776e657220697320746865207a65726f206160448201526564647265737360d01b6064820152fd5b8280fd5b50346101ad5760a03660031901126101ad576101cb6115a3565b916101d46115bd565b9260443590606435906084356001600160401b038111610455576101fb903690870161163e565b926001600160a01b03918216913383148015610436575b61021b90611919565b87169161022983151561197c565b61023282611b68565b5061023c84611b68565b50818952602097898952868a20828b52895284878b205461025f828210156119d6565b848c528b8b52888c20848d528b5203878b2055828a52898952868a20848b528952868a2061028e868254611a35565b905583828851858152878c8201527fc3d58168c5ae7397731d063d5bbf3d657854427343f4c083240f7aacaa2d0f628a3392a43b6102ca578880f35b918697989596949391868a946103138a519788968795869463f23a6e6160e01b9c8d8752339087015260248601526044850152606484015260a0608484015260a483019061171d565b03925af1839181610407575b506103885750505061032f611a62565b6308c379a014610357575b5162461bcd60e51b815291508190610353908201611aed565b0390fd5b61035f611a7d565b8061036a575061033a565b610353915193849362461bcd60e51b8552840152602483019061171d565b9194506001600160e01b0319909116036103aa5750505f808080808080808880f35b5162461bcd60e51b81529150819061035390820160809060208152602860208201527f455243313135353a204552433131353552656365697665722072656a656374656040820152676420746f6b656e7360c01b60608201520190565b610428919250873d891161042f575b610420818361161d565b810190611a42565b905f61031f565b503d610416565b5082895260016020908152868a20338b5290528589205460ff16610212565b8780fd5b50602091826003193601126106ae5781356001600160401b0381116106aa576104ca8461048b6003933690870161163e565b8451906104ba60018251938581818601966104a781838a6116c4565b8101600581520301902001541515611b9f565b85519384928392519283916116c4565b81016005815203019020015434036106725760065481516104ea816115d3565b8581523315610625576104fc82611b68565b50610505611b42565b50818652858552828620338752855282862080549060018201809211610612575582518281526001868201528633917fc3d58168c5ae7397731d063d5bbf3d657854427343f4c083240f7aacaa2d0f62863392a4333b610572575b8561056c6006546118c2565b60065580f35b846105b5918495969794518093819263f23a6e6160e01b96878452338b85015288602485015260448401526001606484015260a0608484015260a483019061171d565b038186335af18391816105f3575b506105d35750505061032f611a62565b9194506001600160e01b0319909116036103aa5750505f80808080610560565b61060b919250873d891161042f57610420818361161d565b905f6105c3565b634e487b7160e01b885260118652602488fd5b825162461bcd60e51b8152808501869052602160248201527f455243313135353a206d696e7420746f20746865207a65726f206164647265736044820152607360f81b6064820152608490fd5b91606492519162461bcd60e51b83528201526014602482015273125b98dbdc9c9958dd0811551208185b5bdd5b9d60621b6044820152fd5b8480fd5b8380fd5b50503461070057806003193601126107005760ff816020936106d26115a3565b6106da6115bd565b6001600160a01b0391821683526001875283832091168252855220549151911615158152f35b5080fd5b5090346101ad5761071436611693565b9190815181516020908184019061072c8185846116c4565b830161074b600591828152858560019788930301902001541515611b9f565b6107558733611842565b1561099957331561094a5761076987611b68565b50610772611b42565b5088865161077f816115d3565b52868952888352858920338a52835285892054968488106108fb5789905f989698198097828452838752898420338552875201888320558751908152858582015233907fc3d58168c5ae7397731d063d5bbf3d657854427343f4c083240f7aacaa2d0f62893392a48886516107f3816115d3565b52889443019643881197403360601b965b60038110610810578b80f35b896108e8578851868101838152898b830152605483818401528252608091828101918183106001600160401b038411176108d35782918a918c948f52815190209489846108618d8c519283916116c4565b830191820152030190200190888b518981806108818c8b519283916116c4565b81018a815203019020015480156108bf578254910610156108ac578c526108a7906118c2565b610804565b634e487b7160e01b8d5260328c5260248dfd5b50634e487b7160e01b8e5260128d5260248efd5b5050634e487b7160e01b8e5260418d5260248efd5b634e487b7160e01b8c5260118b5260248cfd5b865162461bcd60e51b8152808a018590526024808201527f455243313135353a206275726e20616d6f756e7420657863656564732062616c604482015263616e636560e01b6064820152608490fd5b855162461bcd60e51b8152808901849052602360248201527f455243313135353a206275726e2066726f6d20746865207a65726f206164647260448201526265737360e81b6064820152608490fd5b855162461bcd60e51b8152808901849052601860248201527f596f7520646f206e6f74206f776e2074686973207061636b00000000000000006044820152606490fd5b5090346101ad57806003193601126101ad576109f66115a3565b90602435918215158093036106aa576001600160a01b031692338414610a655750338452600160205280842083855260205280842060ff1981541660ff8416179055519081527f17307eab39ab6107e8899845ad3d59bd9653f200f220920489ca2b5937696c3160203392a380f35b6020608492519162461bcd60e51b8352820152602960248201527f455243313135353a2073657474696e6720617070726f76616c20737461747573604482015268103337b91039b2b63360b91b6064820152fd5b509134610b16576020366003190112610b16578235906001600160401b038211610b16575060208093610af2610b05933690830161163e565b90828551948386809551938492016116c4565b820190815203019020549051908152f35b80fd5b5090346101ad5760803660031901126101ad576001600160401b0382358181116106aa57610b4a903690850161163e565b92602435828111610d3557610b62903690830161163e565b93604435838111610d3157610b7a9036908401611759565b93610b836117ea565b518181809351610b9981602096878096016116c4565b8101600581520301902094805190848211610d1e578190610bba88546116e5565b601f8111610ce5575b508390601f8311600114610c83578992610c78575b50508160011b915f199060031b1c19161785555b600193848601928151948511610c6557680100000000000000008511610c65575081908354858555808610610c4b575b500191865280862090865b848110610c3a5760643560038801558780f35b835183820155928101928501610c27565b848952828920610c5f918101908701611b89565b5f610c1c565b634e487b7160e01b885260419052602487fd5b015190505f80610bd8565b888a52848a209250601f1984168a5b86828210610ccf575050908460019594939210610cb7575b505050811b018555610bec565b01515f1960f88460031b161c191690555f8080610caa565b6001859682939686015181550195019301610c92565b610d0e90898b52858b20601f850160051c810191878610610d14575b601f0160051c0190611b89565b5f610bc3565b9091508190610d01565b634e487b7160e01b885260418452602488fd5b8680fd5b8580fd5b50503461070057816003193601126107005760035490516001600160a01b039091168152602090f35b8334610b165780600319360112610b1657610d7b6117ea565b600380546001600160a01b0319811690915581906001600160a01b03167f8be0079c531659141344cd1fd0a4f28419497f9722a3daafe3b4186f6b6457e08280a380f35b50346101ad57816003193601126101ad5780356001600160401b038082116106aa57366023830112156106aa578183013590610dfa82611742565b92610e078651948561161d565b82845260209260248486019160051b83010191368311610f5757602401905b828210610f3457505050602435908111610d3557610e479036908501611759565b928251845103610ee15750815194610e5e86611742565b95610e6b8651978861161d565b808752610e7a601f1991611742565b0136838801375b8251811015610ecb57610ec690610eb66001600160a01b03610ea38387611905565b5116610eaf8388611905565b5190611842565b610ec08289611905565b526118c2565b610e81565b845182815280610edd818501896117b7565b0390f35b60849185519162461bcd60e51b8352820152602960248201527f455243313135353a206163636f756e747320616e6420696473206c656e677468604482015268040dad2e6dac2e8c6d60bb1b6064820152fd5b81356001600160a01b0381168103610f53578152908401908401610e26565b8980fd5b8880fd5b508234610b16576003199260a03685011261070057610f786115a3565b91610f816115bd565b946001600160401b03936044358581116106ae57610fa29036908801611759565b6064358681116106aa57610fb99036908901611759565b956084359081116106aa57610fd1903690890161163e565b966001600160a01b03928316923384148015611252575b610ff190611919565b82518851036111fe5789169361100885151561197c565b855b835181101561108c57806110216110879286611905565b5161102c828c611905565b5190808a526020908a82528b8b20898c528252828c8c8b8282205492611054858510156119d6565b858352828752822091528452038c8c20558a528981528a8a2090898b52526110808a8a20918254611a35565b90556118c2565b61100a565b50949897909692959784878a518b81527f4a39dc06d4c0dbc64b70af90fd698a233a518aa5d07e595d983b8c0526c8f7fb6110c98d8301886117b7565b918083036020820152806110de33948b6117b7565b0390a43b6110ea578880f35b8798969751948593849363bc197c8160e01b98898652338c87015260248601526044850160a0905260a4850161111f916117b7565b82858203016064860152611132916117b7565b908382030160848401526111459161171d565b0381865a94602095f18391816111de575b506111be57505050611166611a62565b6308c379a01461118a575b905162461bcd60e51b8152908190610353908201611aed565b611192611a7d565b8061119d5750611171565b610353906020935193849362461bcd60e51b8552840152602483019061171d565b9193916001600160e01b031916036103aa57505081808080808080808880f35b6111f791925060203d811161042f57610420818361161d565b9086611156565b865162461bcd60e51b8152602081840152602860248201527f455243313135353a2069647320616e6420616d6f756e7473206c656e677468206044820152670dad2e6dac2e8c6d60c31b6064820152608490fd5b508386526001602090815287872033885290528686205460ff16610fe8565b50503461070057602090816003193601126101ad57805183819490600254611298816116e5565b918285526001918783821691825f146113335750506001146112d7575b505050610edd92916112c891038561161d565b5192828493845283019061171d565b9190869350600283527f405787fa12a823e0f2b7631cc41b3ba8828b3321ca811111fa75cd3aa3bb5ace5b82841061131b57505050820101816112c8610edd6112b5565b8054848a018601528895508794909301928101611302565b60ff19168782015293151560051b860190930193508492506112c89150610edd90506112b5565b50346101ad57602090816003193601126106ae578035906001600160401b0382116106aa5761139083916113a29336910161163e565b818551938285809451938492016116c4565b8101600581520301902082518481959083546113bd816116e5565b918285526001918783821691825f14611445575050600114611409575b505050600392916113ec91038661161d565b0154611401835194848695865285019061171d565b918301520390f35b91908693508583528383205b82841061142d57505050820101816113ec60036113da565b8054848b018601528995508794909301928101611415565b60ff19168782015293151560051b860190930193508492506113ec9150600390506113da565b5090346101ad57602061149e91819361148336611693565b95909261148e6117ea565b51948386809551938492016116c4565b8201908152030190205580f35b50346101ad5760603660031901126101ad5780356001600160401b0381116106ae5760206114e16002936114e99336910161163e565b61048b6117ea565b810160058152030190200160243583526020526044359082205580f35b50346101ad5760203660031901126101ad57359063ffffffff60e01b82168092036101ad5760209250636cdb3d1360e11b8214918215611562575b8215611551575b50519015158152f35b6301ffc9a760e01b1491505f611548565b6303a24d0760e21b81149250611541565b50503461070057806003193601126107005760209061159c6115936115a3565b60243590611842565b9051908152f35b600435906001600160a01b03821682036115b957565b5f80fd5b602435906001600160a01b03821682036115b957565b602081019081106001600160401b038211176115ee57604052565b634e487b7160e01b5f52604160045260245ffd5b604081019081106001600160401b038211176115ee57604052565b90601f801991011681019081106001600160401b038211176115ee57604052565b81601f820112156115b9578035906001600160401b0382116115ee5760405192611672601f8401601f19166020018561161d565b828452602083830101116115b957815f926020809301838601378301015290565b60406003198201126115b957600435906001600160401b0382116115b9576116bd9160040161163e565b9060243590565b5f5b8381106116d55750505f910152565b81810151838201526020016116c6565b90600182811c92168015611713575b60208310146116ff57565b634e487b7160e01b5f52602260045260245ffd5b91607f16916116f4565b90602091611736815180928185528580860191016116c4565b601f01601f1916010190565b6001600160401b0381116115ee5760051b60200190565b9080601f830112156115b957602090823561177381611742565b93611781604051958661161d565b818552838086019260051b8201019283116115b9578301905b8282106117a8575050505090565b8135815290830190830161179a565b9081518082526020808093019301915f5b8281106117d6575050505090565b8351855293810193928101926001016117c8565b6003546001600160a01b031633036117fe57565b606460405162461bcd60e51b815260206004820152602060248201527f4f776e61626c653a2063616c6c6572206973206e6f7420746865206f776e65726044820152fd5b6001600160a01b031690811561186a575f525f60205260405f20905f5260205260405f205490565b60405162461bcd60e51b815260206004820152602a60248201527f455243313135353a2061646472657373207a65726f206973206e6f742061207660448201526930b634b21037bbb732b960b11b6064820152608490fd5b5f1981146118d05760010190565b634e487b7160e01b5f52601160045260245ffd5b8051156118f15760200190565b634e487b7160e01b5f52603260045260245ffd5b80518210156118f15760209160051b010190565b1561192057565b60405162461bcd60e51b815260206004820152602e60248201527f455243313135353a2063616c6c6572206973206e6f7420746f6b656e206f776e60448201526d195c881bdc88185c1c1c9bdd995960921b6064820152608490fd5b1561198357565b60405162461bcd60e51b815260206004820152602560248201527f455243313135353a207472616e7366657220746f20746865207a65726f206164604482015264647265737360d81b6064820152608490fd5b156119dd57565b60405162461bcd60e51b815260206004820152602a60248201527f455243313135353a20696e73756666696369656e742062616c616e636520666f60448201526939103a3930b739b332b960b11b6064820152608490fd5b919082018092116118d057565b908160209103126115b957516001600160e01b0319811681036115b95790565b5f9060033d11611a6e57565b905060045f803e5f5160e01c90565b5f60443d10611ad957604051600319913d83016004833e81516001600160401b03918282113d602484011117611adc57818401948551938411611ae4573d85010160208487010111611adc5750611ad99291016020019061161d565b90565b949350505050565b50949350505050565b60809060208152603460208201527f455243313135353a207472616e7366657220746f206e6f6e2d455243313135356040820152732932b1b2b4bb32b91034b6b83632b6b2b73a32b960611b60608201520190565b604051611b4e81611602565b60018152602036818301376001611b64826118e4565b5290565b60405190611b7582611602565b6001825260203681840137611b64826118e4565b818110611b94575050565b5f8155600101611b89565b15611ba657565b60405162461bcd60e51b815260206004820152601560248201527414d95c9a595cc8191bd95cc81b9bdd08195e1a5cdd605a1b6044820152606490fdfea264697066735822122014b9e1562c194cd8fff243ff0424363141ba5975787d16b04a44d98e5de796e364736f6c63430008150033",
  "linkReferences": {},
  "deployedLinkReferences": {}
}