{
  "_format": "hh-sol-artifact-1",
  "contractName": "PoliticianCards",
  "sourceName": "contracts/Politician.sol",
  "abi": [
    {
      "inputs": [
        {
          "internalType": "string",
          "name": "uri",
          "type": "string"
        }
      ],
      "stateMutability": "nonpayable",
      "type": "constructor"
    },
    {
      "anonymous": false,
      "inputs": [
        {
          "indexed": true,
          "internalType": "address",
          "name": "account",
          "type": "address"
        },
        {
          "indexed": true,
          "internalType": "address",
          "name": "operator",
          "type": "address"
        },
        {
          "indexed": false,
          "internalType": "bool",
          "name": "approved",
          "type": "bool"
        }
      ],
      "name": "ApprovalForAll",
      "type": "event"
    },
    {
      "anonymous": false,
      "inputs": [
        {
          "indexed": true,
          "internalType": "address",
          "name": "previousOwner",
          "type": "address"
        },
        {
          "indexed": true,
          "internalType": "address",
          "name": "newOwner",
          "type": "address"
        }
      ],
      "name": "OwnershipTransferred",
      "type": "event"
    },
    {
      "anonymous": false,
      "inputs": [
        {
          "indexed": true,
          "internalType": "address",
          "name": "operator",
          "type": "address"
        },
        {
          "indexed": true,
          "internalType": "address",
          "name": "from",
          "type": "address"
        },
        {
          "indexed": true,
          "internalType": "address",
          "name": "to",
          "type": "address"
        },
        {
          "indexed": false,
          "internalType": "uint256[]",
          "name": "ids",
          "type": "uint256[]"
        },
        {
          "indexed": false,
          "internalType": "uint256[]",
          "name": "values",
          "type": "uint256[]"
        }
      ],
      "name": "TransferBatch",
      "type": "event"
    },
    {
      "anonymous": false,
      "inputs": [
        {
          "indexed": true,
          "internalType": "address",
          "name": "operator",
          "type": "address"
        },
        {
          "indexed": true,
          "internalType": "address",
          "name": "from",
          "type": "address"
        },
        {
          "indexed": true,
          "internalType": "address",
          "name": "to",
          "type": "address"
        },
        {
          "indexed": false,
          "internalType": "uint256",
          "name": "id",
          "type": "uint256"
        },
        {
          "indexed": false,
          "internalType": "uint256",
          "name": "value",
          "type": "uint256"
        }
      ],
      "name": "TransferSingle",
      "type": "event"
    },
    {
      "anonymous": false,
      "inputs": [
        {
          "indexed": false,
          "internalType": "string",
          "name": "value",
          "type": "string"
        },
        {
          "indexed": true,
          "internalType": "uint256",
          "name": "id",
          "type": "uint256"
        }
      ],
      "name": "URI",
      "type": "event"
    },
    {
      "inputs": [
        {
          "internalType": "address",
          "name": "account",
          "type": "address"
        },
        {
          "internalType": "uint256",
          "name": "id",
          "type": "uint256"
        }
      ],
      "name": "balanceOf",
      "outputs": [
        {
          "internalType": "uint256",
          "name": "",
          "type": "uint256"
        }
      ],
      "stateMutability": "view",
      "type": "function"
    },
    {
      "inputs": [
        {
          "internalType": "address[]",
          "name": "accounts",
          "type": "address[]"
        },
        {
          "internalType": "uint256[]",
          "name": "ids",
          "type": "uint256[]"
        }
      ],
      "name": "balanceOfBatch",
      "outputs": [
        {
          "internalType": "uint256[]",
          "name": "",
          "type": "uint256[]"
        }
      ],
      "stateMutability": "view",
      "type": "function"
    },
    {
      "inputs": [
        {
          "internalType": "string",
          "name": "_set",
          "type": "string"
        },
        {
          "internalType": "string",
          "name": "_name",
          "type": "string"
        },
        {
          "internalType": "uint256",
          "name": "_ageAtBooking",
          "type": "uint256"
        },
        {
          "internalType": "string",
          "name": "_DOB",
          "type": "string"
        },
        {
          "internalType": "uint256",
          "name": "_weightAtBooking",
          "type": "uint256"
        },
        {
          "internalType": "uint256",
          "name": "_height",
          "type": "uint256"
        },
        {
          "internalType": "string",
          "name": "_addressAtTimeOfBooking",
          "type": "string"
        },
        {
          "internalType": "string",
          "name": "_highestHeldPoliticalStation",
          "type": "string"
        },
        {
          "internalType": "string",
          "name": "_bookingLocation",
          "type": "string"
        },
        {
          "internalType": "uint256",
          "name": "_bailOrBond",
          "type": "uint256"
        },
        {
          "internalType": "string[]",
          "name": "_charges",
          "type": "string[]"
        },
        {
          "internalType": "uint256",
          "name": "_copies",
          "type": "uint256"
        },
        {
          "internalType": "uint256",
          "name": "_rarity",
          "type": "uint256"
        }
      ],
      "name": "createPolitician",
      "outputs": [],
      "stateMutability": "nonpayable",
      "type": "function"
    },
    {
      "inputs": [
        {
          "internalType": "string",
          "name": "_setName",
          "type": "string"
        }
      ],
      "name": "createSet",
      "outputs": [],
      "stateMutability": "nonpayable",
      "type": "function"
    },
    {
      "inputs": [
        {
          "internalType": "address",
          "name": "account",
          "type": "address"
        },
        {
          "internalType": "address",
          "name": "operator",
          "type": "address"
        }
      ],
      "name": "isApprovedForAll",
      "outputs": [
        {
          "internalType": "bool",
          "name": "",
          "type": "bool"
        }
      ],
      "stateMutability": "view",
      "type": "function"
    },
    {
      "inputs": [
        {
          "internalType": "uint256",
          "name": "tokenId",
          "type": "uint256"
        },
        {
          "internalType": "address",
          "name": "to",
          "type": "address"
        }
      ],
      "name": "mintPolitician",
      "outputs": [],
      "stateMutability": "nonpayable",
      "type": "function"
    },
    {
      "inputs": [],
      "name": "owner",
      "outputs": [
        {
          "internalType": "address",
          "name": "",
          "type": "address"
        }
      ],
      "stateMutability": "view",
      "type": "function"
    },
    {
      "inputs": [
        {
          "internalType": "uint256",
          "name": "",
          "type": "uint256"
        }
      ],
      "name": "politicians",
      "outputs": [
        {
          "internalType": "string",
          "name": "set",
          "type": "string"
        },
        {
          "internalType": "string",
          "name": "name",
          "type": "string"
        },
        {
          "internalType": "uint256",
          "name": "ageAtBooking",
          "type": "uint256"
        },
        {
          "internalType": "string",
          "name": "DOB",
          "type": "string"
        },
        {
          "internalType": "uint256",
          "name": "weightAtBooking",
          "type": "uint256"
        },
        {
          "internalType": "uint256",
          "name": "height",
          "type": "uint256"
        },
        {
          "internalType": "string",
          "name": "addressAtTimeOfBooking",
          "type": "string"
        },
        {
          "internalType": "string",
          "name": "highestHeldPoliticalStation",
          "type": "string"
        },
        {
          "internalType": "string",
          "name": "bookingLocation",
          "type": "string"
        },
        {
          "internalType": "uint256",
          "name": "bailOrBond",
          "type": "uint256"
        },
        {
          "internalType": "uint256",
          "name": "copies",
          "type": "uint256"
        },
        {
          "internalType": "uint256",
          "name": "rarity",
          "type": "uint256"
        }
      ],
      "stateMutability": "view",
      "type": "function"
    },
    {
      "inputs": [
        {
          "internalType": "string",
          "name": "",
          "type": "string"
        },
        {
          "internalType": "uint256",
          "name": "",
          "type": "uint256"
        }
      ],
      "name": "politiciansBySet",
      "outputs": [
        {
          "internalType": "string",
          "name": "set",
          "type": "string"
        },
        {
          "internalType": "string",
          "name": "name",
          "type": "string"
        },
        {
          "internalType": "uint256",
          "name": "ageAtBooking",
          "type": "uint256"
        },
        {
          "internalType": "string",
          "name": "DOB",
          "type": "string"
        },
        {
          "internalType": "uint256",
          "name": "weightAtBooking",
          "type": "uint256"
        },
        {
          "internalType": "uint256",
          "name": "height",
          "type": "uint256"
        },
        {
          "internalType": "string",
          "name": "addressAtTimeOfBooking",
          "type": "string"
        },
        {
          "internalType": "string",
          "name": "highestHeldPoliticalStation",
          "type": "string"
        },
        {
          "internalType": "string",
          "name": "bookingLocation",
          "type": "string"
        },
        {
          "internalType": "uint256",
          "name": "bailOrBond",
          "type": "uint256"
        },
        {
          "internalType": "uint256",
          "name": "copies",
          "type": "uint256"
        },
        {
          "internalType": "uint256",
          "name": "rarity",
          "type": "uint256"
        }
      ],
      "stateMutability": "view",
      "type": "function"
    },
    {
      "inputs": [],
      "name": "renounceOwnership",
      "outputs": [],
      "stateMutability": "nonpayable",
      "type": "function"
    },
    {
      "inputs": [
        {
          "internalType": "address",
          "name": "from",
          "type": "address"
        },
        {
          "internalType": "address",
          "name": "to",
          "type": "address"
        },
        {
          "internalType": "uint256[]",
          "name": "ids",
          "type": "uint256[]"
        },
        {
          "internalType": "uint256[]",
          "name": "amounts",
          "type": "uint256[]"
        },
        {
          "internalType": "bytes",
          "name": "data",
          "type": "bytes"
        }
      ],
      "name": "safeBatchTransferFrom",
      "outputs": [],
      "stateMutability": "nonpayable",
      "type": "function"
    },
    {
      "inputs": [
        {
          "internalType": "address",
          "name": "from",
          "type": "address"
        },
        {
          "internalType": "address",
          "name": "to",
          "type": "address"
        },
        {
          "internalType": "uint256",
          "name": "id",
          "type": "uint256"
        },
        {
          "internalType": "uint256",
          "name": "amount",
          "type": "uint256"
        },
        {
          "internalType": "bytes",
          "name": "data",
          "type": "bytes"
        }
      ],
      "name": "safeTransferFrom",
      "outputs": [],
      "stateMutability": "nonpayable",
      "type": "function"
    },
    {
      "inputs": [
        {
          "internalType": "address",
          "name": "operator",
          "type": "address"
        },
        {
          "internalType": "bool",
          "name": "approved",
          "type": "bool"
        }
      ],
      "name": "setApprovalForAll",
      "outputs": [],
      "stateMutability": "nonpayable",
      "type": "function"
    },
    {
      "inputs": [
        {
          "internalType": "bytes4",
          "name": "interfaceId",
          "type": "bytes4"
        }
      ],
      "name": "supportsInterface",
      "outputs": [
        {
          "internalType": "bool",
          "name": "",
          "type": "bool"
        }
      ],
      "stateMutability": "view",
      "type": "function"
    },
    {
      "inputs": [
        {
          "internalType": "address",
          "name": "newOwner",
          "type": "address"
        }
      ],
      "name": "transferOwnership",
      "outputs": [],
      "stateMutability": "nonpayable",
      "type": "function"
    },
    {
      "inputs": [
        {
          "internalType": "uint256",
          "name": "",
          "type": "uint256"
        }
      ],
      "name": "uri",
      "outputs": [
        {
          "internalType": "string",
          "name": "",
          "type": "string"
        }
      ],
      "stateMutability": "view",
      "type": "function"
    }
  ],
  "bytecode": "0x6080604052346200024c57620024a5803803806200001d8162000250565b928339810190602080828403126200024c5781516001600160401b03928382116200024c570192601f908082860112156200024c5784518481116200022357601f1995620000718285018816860162000250565b928284528583830101116200024c5784905f5b838110620002375750505f918301015280519384116200022357600254926001938481811c9116801562000218575b828210146200020457838111620001bb575b5080928511600114620001545750839450908392915f9462000148575b50501b915f199060031b1c1916176002555b60038054336001600160a01b03198216811790925560405191906001600160a01b03167f8be0079c531659141344cd1fd0a4f28419497f9722a3daafe3b4186f6b6457e05f80a361222e9081620002778239f35b015192505f80620000e2565b92948490811660025f52845f20945f905b88838310620001a0575050501062000187575b505050811b01600255620000f4565b01515f1960f88460031b161c191690555f808062000178565b85870151885590960195948501948793509081019062000165565b60025f52815f208480880160051c820192848910620001fa575b0160051c019085905b828110620001ee575050620000c5565b5f8155018590620001de565b92508192620001d5565b634e487b7160e01b5f52602260045260245ffd5b90607f1690620000b3565b634e487b7160e01b5f52604160045260245ffd5b81810183015185820184015286920162000084565b5f80fd5b6040519190601f01601f191682016001600160401b03811183821017620002235760405256fe60406080815260049081361015610014575f80fd5b5f91823560e01c8062fdd58e1461135457806301ffc9a7146112e75780630e89341c146111fe578063158e709014610eb25780632eb2c2d614610b9c5780634e1273f414610a0c578063715018a6146109af57806385b476ff146109385780638da5cb5b1461090f578063a22cb46514610832578063bf4a8c0c14610582578063c53c4fec14610533578063e396c13f14610495578063e985e9c514610443578063f242432a1461019b5763f2fde38b146100cd575f80fd5b34610197576020366003190112610197576100e6611384565b906100ef6116e5565b6001600160a01b03918216928315610145575050600354826bffffffffffffffffffffffff60a01b821617600355167f8be0079c531659141344cd1fd0a4f28419497f9722a3daafe3b4186f6b6457e08380a380f35b906020608492519162461bcd60e51b8352820152602660248201527f4f776e61626c653a206e6577206f776e657220697320746865207a65726f206160448201526564647265737360d01b6064820152fd5b8280fd5b50346101975760a0366003190112610197576101b5611384565b916101be61139e565b9260443590606435906084356001600160401b03811161043f576101e590369087016114c0565b926001600160a01b03918216913383148015610420575b610205906117f3565b871691610213831515611856565b61021c82611a1c565b5061022684611a1c565b50818952602097898952868a20828b52895284878b2054610249828210156118b0565b848c528b8b52888c20848d528b5203878b2055828a52898952868a20848b528952868a2061027886825461190f565b905583828851858152878c8201527fc3d58168c5ae7397731d063d5bbf3d657854427343f4c083240f7aacaa2d0f628a3392a43b6102b4578880f35b918697989596949391868a946102fd8a519788968795869463f23a6e6160e01b9c8d8752339087015260248601526044850152606484015260a0608484015260a48301906113d5565b03925af18391816103f1575b506103725750505061031961193c565b6308c379a014610341575b5162461bcd60e51b81529150819061033d9082016119c7565b0390fd5b610349611957565b806103545750610324565b61033d915193849362461bcd60e51b855284015260248301906113d5565b9194506001600160e01b0319909116036103945750505f808080808080808880f35b5162461bcd60e51b81529150819061033d90820160809060208152602860208201527f455243313135353a204552433131353552656365697665722072656a656374656040820152676420746f6b656e7360c01b60608201520190565b610412919250873d8911610419575b61040a818361142a565b81019061191c565b905f610309565b503d610400565b5082895260016020908152868a20338b5290528589205460ff166101fc565b8780fd5b50503461049157806003193601126104915760ff81602093610463611384565b61046b61139e565b6001600160a01b0391821683526001875283832091168252855220549151911615158152f35b5080fd5b509134610530576020366003190112610530578161052c9184358152600560205220916104c1836115ad565b926104ce600182016115ad565b946002820154906104e1600384016115ad565b9083015460058401546104f6600686016115ad565b90610503600787016115ad565b92610510600888016115ad565b94600988015496600c600b8a015499015499519c8d9c8d61164e565b0390f35b80fd5b5090346101975760203660031901126101975781356001600160401b03811161057e5761057b92610566913691016114c0565b9061056f6116e5565b516020825192016113b4565b80f35b8380fd5b509134610530576101a0366003190112610530576001600160401b03918335838111610197576105b590369086016114c0565b93602493843581811161082e576105cf90369084016114c0565b9260643582811161082a576105e790369085016114c0565b9660c435838111610826576105ff90369086016114c0565b9160e43584811161043f5761061790369087016114c0565b93610104358181116108225761063090369088016114c0565b610144359582871161081e573660238801121561081e5786880135926106558461144b565b936106628651958661142a565b8085526020988d8a87019260051b8201019236841161081a578e8201925b8484106107ef5750505050506106946116e5565b8351958551968881818901996106ab81838d6113b4565b81018c81520301902054156107b85761074998999a9b9c85519b6106ce8d6113fa565b878d52898d0152604435868d015260608c015260843560808c015260a43560a08c015260c08b015260e08a015261010089015261012435610120890152610140880152610164356101608801526101843561018088015260065488526005845261073a87828a20611a67565b519384928392519283916113b4565b810184815203019020805490600160401b8210156107a5579061077191600182018155611548565b91909161079457509061078391611a67565b61078e6006546117bd565b60065580f35b634e487b7160e01b84528390528383fd5b5050634e487b7160e01b83526041905250fd5b845162461bcd60e51b8152808a018990526012818e01527114d95d08191bd95cc81b9bdd08195e1a5cdd60721b6044820152606490fd5b81843511610816578f8c9161080b8392369088358801016114c0565b815201930192610680565b8e80fd5b8d80fd5b8980fd5b8880fd5b8680fd5b8580fd5b8480fd5b50903461019757806003193601126101975761084c611384565b906024359182151580930361082e576001600160a01b0316923384146108bb5750338452600160205280842083855260205280842060ff1981541660ff8416179055519081527f17307eab39ab6107e8899845ad3d59bd9653f200f220920489ca2b5937696c3160203392a380f35b6020608492519162461bcd60e51b8352820152602960248201527f455243313135353a2073657474696e6720617070726f76616c20737461747573604482015268103337b91039b2b63360b91b6064820152fd5b50503461049157816003193601126104915760035490516001600160a01b039091168152602090f35b50913461053057816003193601126105305782356001600160401b0381116104915761096790369085016114c0565b90610983602060243593818651938285809451938492016113b4565b810187815203019020908154831015610530575061052c916109a491611548565b50916104c1836115ad565b83346105305780600319360112610530576109c86116e5565b600380546001600160a01b0319811690915581906001600160a01b03167f8be0079c531659141344cd1fd0a4f28419497f9722a3daafe3b4186f6b6457e08280a380f35b503461019757816003193601126101975780356001600160401b0380821161082e573660238301121561082e578183013590610a478261144b565b92610a548651948561142a565b82845260209260248486019160051b8301019136831161082257602401905b828210610b7d5750505060243590811161082a57610a949036908501611462565b928251845103610b2a5750815194610aab8661144b565b95610ab88651978861142a565b808752610ac7601f199161144b565b0136838801375b8251811015610b1857610b1390610b036001600160a01b03610af083876117df565b5116610afc83886117df565b519061173d565b610b0d82896117df565b526117bd565b610ace565b84518281528061052c81850189611515565b60849185519162461bcd60e51b8352820152602960248201527f455243313135353a206163636f756e747320616e6420696473206c656e677468604482015268040dad2e6dac2e8c6d60bb1b6064820152fd5b81356001600160a01b038116810361081e578152908401908401610a73565b508234610530576003199260a03685011261049157610bb9611384565b91610bc261139e565b946001600160401b039360443585811161057e57610be39036908801611462565b60643586811161082e57610bfa9036908901611462565b9560843590811161082e57610c1290369089016114c0565b966001600160a01b03928316923384148015610e93575b610c32906117f3565b8251885103610e3f57891693610c49851515611856565b855b8351811015610ccd5780610c62610cc892866117df565b51610c6d828c6117df565b5190808a526020908a82528b8b20898c528252828c8c8b8282205492610c95858510156118b0565b858352828752822091528452038c8c20558a528981528a8a2090898b5252610cc18a8a2091825461190f565b90556117bd565b610c4b565b50949897909692959784878a518b81527f4a39dc06d4c0dbc64b70af90fd698a233a518aa5d07e595d983b8c0526c8f7fb610d0a8d830188611515565b91808303602082015280610d1f33948b611515565b0390a43b610d2b578880f35b8798969751948593849363bc197c8160e01b98898652338c87015260248601526044850160a0905260a48501610d6091611515565b82858203016064860152610d7391611515565b90838203016084840152610d86916113d5565b0381865a94602095f1839181610e1f575b50610dff57505050610da761193c565b6308c379a014610dcb575b905162461bcd60e51b815290819061033d9082016119c7565b610dd3611957565b80610dde5750610db2565b61033d906020935193849362461bcd60e51b855284015260248301906113d5565b9193916001600160e01b0319160361039457505081808080808080808880f35b610e3891925060203d81116104195761040a818361142a565b9086610d97565b865162461bcd60e51b8152602081840152602860248201527f455243313135353a2069647320616e6420616d6f756e7473206c656e677468206044820152670dad2e6dac2e8c6d60c31b6064820152608490fd5b508386526001602090815287872033885290528686205460ff16610c29565b5034610197578160031936011261019757803591610ece61139e565b92610ed76116e5565b6006548110156111bb57808552602093600585528286208351610ef9816113fa565b610f02826115ad565b81526001610f118184016115ad565b88830152600283015486830152610f2a600384016115ad565b6060830152868301546080830152600583015460a0830152610f4e600684016115ad565b60c0830152610f5f600784016115ad565b60e0830152610f70600884016115ad565b6101008301526009830154610120830152600a8301908154610f918161144b565b92610f9e8951948561142a565b8184528b52898b208b908b8086015b84841061119e57505050505050906101809291610140820152600c600b83015492836101608401520154928391015281810291818304149015171561118b578351928684018481106001600160401b038211176111785785528784526001600160a01b03831692831561112b5761102382611a1c565b5061102d83611a1c565b50818952888852858920848a52885285892061104a84825461190f565b905583898751848152858b8201527fc3d58168c5ae7397731d063d5bbf3d657854427343f4c083240f7aacaa2d0f62893392a43b611086578780f35b926110cf9287989596979286899689519687958694859363f23a6e6160e01b9b8c865233908601528560248601526044850152606484015260a0608484015260a48301906113d5565b03925af183918161110c575b506110eb5750505061031961193c565b9194506001600160e01b0319909116036103945750505f8080808080808780f35b611124919250873d89116104195761040a818361142a565b905f6110db565b855162461bcd60e51b8152808801899052602160248201527f455243313135353a206d696e7420746f20746865207a65726f206164647265736044820152607360f81b6064820152608490fd5b634e487b7160e01b895260418752602489fd5b634e487b7160e01b875260118552602487fd5b859182916111ab856115ad565b8152019201920191908c90610fad565b815162461bcd60e51b8152602081850152601760248201527f546f6b656e20494420646f6573206e6f742065786973740000000000000000006044820152606490fd5b50503461049157602090816003193601126101975780518381949060025461122581611575565b918285526001918783821691825f146112c0575050600114611264575b50505061052c929161125591038561142a565b519282849384528301906113d5565b9190869350600283527f405787fa12a823e0f2b7631cc41b3ba8828b3321ca811111fa75cd3aa3bb5ace5b8284106112a8575050508201018161125561052c611242565b8054848a01860152889550879490930192810161128f565b60ff19168782015293151560051b86019093019350849250611255915061052c9050611242565b503461019757602036600319011261019757359063ffffffff60e01b82168092036101975760209250636cdb3d1360e11b8214918215611343575b8215611332575b50519015158152f35b6301ffc9a760e01b1491505f611329565b6303a24d0760e21b81149250611322565b50503461049157806003193601126104915760209061137d611374611384565b6024359061173d565b9051908152f35b600435906001600160a01b038216820361139a57565b5f80fd5b602435906001600160a01b038216820361139a57565b5f5b8381106113c55750505f910152565b81810151838201526020016113b6565b906020916113ee815180928185528580860191016113b4565b601f01601f1916010190565b6101a081019081106001600160401b0382111761141657604052565b634e487b7160e01b5f52604160045260245ffd5b90601f801991011681019081106001600160401b0382111761141657604052565b6001600160401b0381116114165760051b60200190565b9080601f8301121561139a57602090823561147c8161144b565b9361148a604051958661142a565b818552838086019260051b82010192831161139a578301905b8282106114b1575050505090565b813581529083019083016114a3565b81601f8201121561139a578035906001600160401b03821161141657604051926114f4601f8401601f19166020018561142a565b8284526020838301011161139a57815f926020809301838601378301015290565b9081518082526020808093019301915f5b828110611534575050505090565b835185529381019392810192600101611526565b8054821015611561575f52600d60205f20910201905f90565b634e487b7160e01b5f52603260045260245ffd5b90600182811c921680156115a3575b602083101461158f57565b634e487b7160e01b5f52602260045260245ffd5b91607f1691611584565b9060405191825f82546115bf81611575565b9081845260209460019182811690815f1461162c57506001146115ee575b5050506115ec9250038361142a565b565b5f90815285812095935091905b8183106116145750506115ec93508201015f80806115dd565b855488840185015294850194879450918301916115fb565b925050506115ec94925060ff191682840152151560051b8201015f80806115dd565b989561169f8a6101609c9f9e9d9a966116b796604061168f6116c59b986116816116d49f996101808089528801906113d5565b9086820360208801526113d5565b9301528c820360608e01526113d5565b9260808b015260a08a015288820360c08a01526113d5565b9086820360e08801526113d5565b908482036101008601526113d5565b956101208301526101408201520152565b6003546001600160a01b031633036116f957565b606460405162461bcd60e51b815260206004820152602060248201527f4f776e61626c653a2063616c6c6572206973206e6f7420746865206f776e65726044820152fd5b6001600160a01b0316908115611765575f525f60205260405f20905f5260205260405f205490565b60405162461bcd60e51b815260206004820152602a60248201527f455243313135353a2061646472657373207a65726f206973206e6f742061207660448201526930b634b21037bbb732b960b11b6064820152608490fd5b5f1981146117cb5760010190565b634e487b7160e01b5f52601160045260245ffd5b80518210156115615760209160051b010190565b156117fa57565b60405162461bcd60e51b815260206004820152602e60248201527f455243313135353a2063616c6c6572206973206e6f7420746f6b656e206f776e60448201526d195c881bdc88185c1c1c9bdd995960921b6064820152608490fd5b1561185d57565b60405162461bcd60e51b815260206004820152602560248201527f455243313135353a207472616e7366657220746f20746865207a65726f206164604482015264647265737360d81b6064820152608490fd5b156118b757565b60405162461bcd60e51b815260206004820152602a60248201527f455243313135353a20696e73756666696369656e742062616c616e636520666f60448201526939103a3930b739b332b960b11b6064820152608490fd5b919082018092116117cb57565b9081602091031261139a57516001600160e01b03198116810361139a5790565b5f9060033d1161194857565b905060045f803e5f5160e01c90565b5f60443d106119b357604051600319913d83016004833e81516001600160401b03918282113d6024840111176119b6578184019485519384116119be573d850101602084870101116119b657506119b39291016020019061142a565b90565b949350505050565b50949350505050565b60809060208152603460208201527f455243313135353a207472616e7366657220746f206e6f6e2d455243313135356040820152732932b1b2b4bb32b91034b6b83632b6b2b73a32b960611b60608201520190565b60405190604082018281106001600160401b038211176114165760405260018252602082016020368237825115611561575290565b818110611a5c575050565b5f8155600101611a51565b90805180516001600160401b039081811161141657611a868554611575565b92601f938481116121ca575b5060209084831160011461216757611ac192915f9183611d65575b50508160011b915f199060031b1c19161790565b84555b600190818501602085015180519083821161141657611ae38354611575565b868111612139575b506020908683116001146120db57611b1992915f9183611d655750508160011b915f199060031b1c19161790565b90555b604084015160028601556003808601606086015180519084821161141657611b448354611575565b8781116120a3575b5060209087831160011461204657611b7a92915f9183611d655750508160011b915f199060031b1c19161790565b90555b60049360808601518588015560059260a0870151848901556006880160c0880151805190838211611e8e57611bb28354611575565b85811161201a575b50602090858311600114611fbd57611be892915f9183611d655750508160011b915f199060031b1c19161790565b90555b6007880160e0880151805190838211611e8e57611c088354611575565b858111611f91575b50602090858311600114611f3457611c3e92915f9183611d655750508160011b915f199060031b1c19161790565b90555b60088801610100880151805190838211611e8e57611c5f8354611575565b858111611efe575b50602090858311600114611ea157611c9592915f9183611d655750508160011b915f199060031b1c19161790565b90555b6101208701516009890155600a88019161014088015194855195600160401b8711611e8e578454878655808810611e1f575b505f9485526020808620959691015b878710611d02575050505050505050505061018081610160600c930151600b8501550151910155565b8051805190868211611e0c57908a91611d1b8954611575565b878111611dd6575b50602090878311600114611d705782602093859693611d56935f92611d655750508160011b915f199060031b1c19161790565b89555b01960196019594611cd9565b015190505f80611aad565b90601f198316918a5f52815f20925f5b818110611dbe575092859693928592602096889510611da7575b505050811b018955611d59565b01515f19838a1b60f8161c191690555f8080611d9a565b8284015185558f969094019360209384019301611d80565b611dfd908a5f5260205f20898086018a1c82019260208710611e03575b01891c0190611a51565b5f611d23565b92508192611df3565b60418c634e487b7160e01b5f525260245ffd5b855f52888860205f2092830192015b828110611e3c575050611cca565b611e468154611575565b80611e55575b50018990611e2e565b868111600114611e6a57505f81555b5f611e4c565b5f90828252611e8588602084209201881c8201858301611a51565b81835555611e64565b604189634e487b7160e01b5f525260245ffd5b889291601f19831691855f52815f20925f5b818110611ee657508411611ecf575b505050811b019055611c98565b01515f1983891b60f8161c191690555f8080611ec2565b8284015185558c969094019360209384019301611eb3565b611f2590845f5260205f20878086018b1c82019260208710611f2b575b018a1c0190611a51565b5f611c67565b92508192611f1b565b889291601f19831691855f52815f20925f5b818110611f7957508411611f62575b505050811b019055611c41565b01515f1983891b60f8161c191690555f8080611f55565b8284015185558c969094019360209384019301611f46565b611fb790845f5260205f20878086018b1c82019260208710611f2b57018a1c0190611a51565b5f611c10565b889291601f19831691855f52815f20925f5b81811061200257508411611feb575b505050811b019055611beb565b01515f1983891b60f8161c191690555f8080611fde565b8284015185558c969094019360209384019301611fcf565b61204090845f5260205f20878086018b1c82019260208710611f2b57018a1c0190611a51565b5f611bba565b869291601f19831691855f52815f20925f5b81811061208b57508411612074575b505050811b019055611b7d565b01515f1983871b60f8161c191690555f8080612067565b8284015185558a969094019360209384019301612058565b6120cc90845f5260205f208980860160051c820192602087106120d2575b0160051c0190611a51565b5f611b4c565b925081926120c1565b859291601f19831691855f52815f20925f5b81811061212157508411612109575b505050811b019055611b1c565b01515f1960f88460031b161c191690555f80806120fc565b828401518555899690940193602093840193016120ed565b61216190845f5260205f208880860160051c820192602087106120d2570160051c0190611a51565b5f611aeb565b90601f19831691875f52815f20925f5b8181106121b2575090846001959493921061219a575b505050811b018455611ac4565b01515f1960f88460031b161c191690555f808061218d565b92936020600181928786015181550195019301612177565b6121f290875f5260205f208680860160051c820192602087106120d2570160051c0190611a51565b5f611a9256fea264697066735822122040c73135c1961c012635905093686e25a71fef310a368ce52f5a05e786bc962364736f6c63430008150033",
  "linkReferences": {},
  "deployedLinkReferences": {}
}